{
	"contracts/Gov.sol": {
		"DAO": {
			"abi": [
				{
					"inputs": [
						{
							"internalType": "contract IERC20",
							"name": "_token",
							"type": "address"
						}
					],
					"stateMutability": "nonpayable",
					"type": "constructor"
				},
				{
					"inputs": [],
					"name": "VOTING_DELAY",
					"outputs": [
						{
							"internalType": "uint256",
							"name": "",
							"type": "uint256"
						}
					],
					"stateMutability": "view",
					"type": "function"
				},
				{
					"inputs": [],
					"name": "VOTING_DURATION",
					"outputs": [
						{
							"internalType": "uint256",
							"name": "",
							"type": "uint256"
						}
					],
					"stateMutability": "view",
					"type": "function"
				},
				{
					"inputs": [
						{
							"internalType": "address",
							"name": "_to",
							"type": "address"
						},
						{
							"internalType": "uint256",
							"name": "_value",
							"type": "uint256"
						},
						{
							"internalType": "string",
							"name": "_func",
							"type": "string"
						},
						{
							"internalType": "bytes",
							"name": "_data",
							"type": "bytes"
						},
						{
							"internalType": "bytes32",
							"name": "_descriptionHash",
							"type": "bytes32"
						}
					],
					"name": "execute",
					"outputs": [
						{
							"internalType": "bytes",
							"name": "",
							"type": "bytes"
						}
					],
					"stateMutability": "nonpayable",
					"type": "function"
				},
				{
					"inputs": [
						{
							"internalType": "bytes32",
							"name": "",
							"type": "bytes32"
						}
					],
					"name": "proposalVotes",
					"outputs": [
						{
							"internalType": "uint256",
							"name": "aggainstVotes",
							"type": "uint256"
						},
						{
							"internalType": "uint256",
							"name": "forVotes",
							"type": "uint256"
						},
						{
							"internalType": "uint256",
							"name": "abstainVotes",
							"type": "uint256"
						}
					],
					"stateMutability": "view",
					"type": "function"
				},
				{
					"inputs": [
						{
							"internalType": "bytes32",
							"name": "",
							"type": "bytes32"
						}
					],
					"name": "proposals",
					"outputs": [
						{
							"internalType": "uint256",
							"name": "votingStarts",
							"type": "uint256"
						},
						{
							"internalType": "uint256",
							"name": "votingEnds",
							"type": "uint256"
						},
						{
							"internalType": "bool",
							"name": "executed",
							"type": "bool"
						}
					],
					"stateMutability": "view",
					"type": "function"
				},
				{
					"inputs": [
						{
							"internalType": "address",
							"name": "_to",
							"type": "address"
						},
						{
							"internalType": "uint256",
							"name": "_value",
							"type": "uint256"
						},
						{
							"internalType": "string",
							"name": "_func",
							"type": "string"
						},
						{
							"internalType": "bytes",
							"name": "_data",
							"type": "bytes"
						},
						{
							"internalType": "string",
							"name": "_description",
							"type": "string"
						}
					],
					"name": "propose",
					"outputs": [
						{
							"internalType": "bytes32",
							"name": "",
							"type": "bytes32"
						}
					],
					"stateMutability": "nonpayable",
					"type": "function"
				},
				{
					"inputs": [
						{
							"internalType": "bytes32",
							"name": "proposalId",
							"type": "bytes32"
						}
					],
					"name": "state",
					"outputs": [
						{
							"internalType": "enum DAO.ProposalState",
							"name": "",
							"type": "uint8"
						}
					],
					"stateMutability": "view",
					"type": "function"
				},
				{
					"inputs": [],
					"name": "token",
					"outputs": [
						{
							"internalType": "contract IERC20",
							"name": "",
							"type": "address"
						}
					],
					"stateMutability": "view",
					"type": "function"
				},
				{
					"inputs": [
						{
							"internalType": "bytes32",
							"name": "proposalId",
							"type": "bytes32"
						},
						{
							"internalType": "uint8",
							"name": "voteType",
							"type": "uint8"
						}
					],
					"name": "vote",
					"outputs": [],
					"stateMutability": "nonpayable",
					"type": "function"
				}
			],
			"devdoc": {
				"kind": "dev",
				"methods": {},
				"version": 1
			},
			"evm": {
				"assembly": "    /* \"contracts/Gov.sol\":88:4028  contract DAO {... */\n  mstore(0x40, 0x80)\n    /* \"contracts/Gov.sol\":700:760  constructor(IERC20 _token) {... */\n  callvalue\n  dup1\n  iszero\n  tag_1\n  jumpi\n  0x00\n  dup1\n  revert\ntag_1:\n  pop\n  mload(0x40)\n  sub(codesize, bytecodeSize)\n  dup1\n  bytecodeSize\n  dup4\n  codecopy\n  dup2\n  dup2\n  add\n  0x40\n  mstore\n  dup2\n  add\n  swap1\n  tag_2\n  swap2\n  swap1\n  tag_3\n  jump\t// in\ntag_2:\n    /* \"contracts/Gov.sol\":746:752  _token */\n  dup1\n    /* \"contracts/Gov.sol\":738:743  token */\n  0x00\n  dup1\n    /* \"contracts/Gov.sol\":738:752  token = _token */\n  0x0100\n  exp\n  dup2\n  sload\n  dup2\n  0xffffffffffffffffffffffffffffffffffffffff\n  mul\n  not\n  and\n  swap1\n  dup4\n  0xffffffffffffffffffffffffffffffffffffffff\n  and\n  mul\n  or\n  swap1\n  sstore\n  pop\n    /* \"contracts/Gov.sol\":700:760  constructor(IERC20 _token) {... */\n  pop\n    /* \"contracts/Gov.sol\":88:4028  contract DAO {... */\n  jump(tag_6)\n    /* \"#utility.yul\":88:205   */\ntag_8:\n    /* \"#utility.yul\":197:198   */\n  0x00\n    /* \"#utility.yul\":194:195   */\n  dup1\n    /* \"#utility.yul\":187:199   */\n  revert\n    /* \"#utility.yul\":334:460   */\ntag_10:\n    /* \"#utility.yul\":371:378   */\n  0x00\n    /* \"#utility.yul\":411:453   */\n  0xffffffffffffffffffffffffffffffffffffffff\n    /* \"#utility.yul\":404:409   */\n  dup3\n    /* \"#utility.yul\":400:454   */\n  and\n    /* \"#utility.yul\":389:454   */\n  swap1\n  pop\n    /* \"#utility.yul\":334:460   */\n  swap2\n  swap1\n  pop\n  jump\t// out\n    /* \"#utility.yul\":466:562   */\ntag_11:\n    /* \"#utility.yul\":503:510   */\n  0x00\n    /* \"#utility.yul\":532:556   */\n  tag_21\n    /* \"#utility.yul\":550:555   */\n  dup3\n    /* \"#utility.yul\":532:556   */\n  tag_10\n  jump\t// in\ntag_21:\n    /* \"#utility.yul\":521:556   */\n  swap1\n  pop\n    /* \"#utility.yul\":466:562   */\n  swap2\n  swap1\n  pop\n  jump\t// out\n    /* \"#utility.yul\":568:678   */\ntag_12:\n    /* \"#utility.yul\":619:626   */\n  0x00\n    /* \"#utility.yul\":648:672   */\n  tag_23\n    /* \"#utility.yul\":666:671   */\n  dup3\n    /* \"#utility.yul\":648:672   */\n  tag_11\n  jump\t// in\ntag_23:\n    /* \"#utility.yul\":637:672   */\n  swap1\n  pop\n    /* \"#utility.yul\":568:678   */\n  swap2\n  swap1\n  pop\n  jump\t// out\n    /* \"#utility.yul\":684:834   */\ntag_13:\n    /* \"#utility.yul\":771:809   */\n  tag_25\n    /* \"#utility.yul\":803:808   */\n  dup2\n    /* \"#utility.yul\":771:809   */\n  tag_12\n  jump\t// in\ntag_25:\n    /* \"#utility.yul\":764:769   */\n  dup2\n    /* \"#utility.yul\":761:810   */\n  eq\n    /* \"#utility.yul\":751:828   */\n  tag_26\n  jumpi\n    /* \"#utility.yul\":824:825   */\n  0x00\n    /* \"#utility.yul\":821:822   */\n  dup1\n    /* \"#utility.yul\":814:826   */\n  revert\n    /* \"#utility.yul\":751:828   */\ntag_26:\n    /* \"#utility.yul\":684:834   */\n  pop\n  jump\t// out\n    /* \"#utility.yul\":840:1011   */\ntag_14:\n    /* \"#utility.yul\":911:916   */\n  0x00\n    /* \"#utility.yul\":942:948   */\n  dup2\n    /* \"#utility.yul\":936:949   */\n  mload\n    /* \"#utility.yul\":927:949   */\n  swap1\n  pop\n    /* \"#utility.yul\":958:1005   */\n  tag_28\n    /* \"#utility.yul\":999:1004   */\n  dup2\n    /* \"#utility.yul\":958:1005   */\n  tag_13\n  jump\t// in\ntag_28:\n    /* \"#utility.yul\":840:1011   */\n  swap3\n  swap2\n  pop\n  pop\n  jump\t// out\n    /* \"#utility.yul\":1017:1396   */\ntag_3:\n    /* \"#utility.yul\":1101:1107   */\n  0x00\n    /* \"#utility.yul\":1150:1152   */\n  0x20\n    /* \"#utility.yul\":1138:1147   */\n  dup3\n    /* \"#utility.yul\":1129:1136   */\n  dup5\n    /* \"#utility.yul\":1125:1148   */\n  sub\n    /* \"#utility.yul\":1121:1153   */\n  slt\n    /* \"#utility.yul\":1118:1237   */\n  iszero\n  tag_30\n  jumpi\n    /* \"#utility.yul\":1156:1235   */\n  tag_31\n  tag_8\n  jump\t// in\ntag_31:\n    /* \"#utility.yul\":1118:1237   */\ntag_30:\n    /* \"#utility.yul\":1276:1277   */\n  0x00\n    /* \"#utility.yul\":1301:1379   */\n  tag_32\n    /* \"#utility.yul\":1371:1378   */\n  dup5\n    /* \"#utility.yul\":1362:1368   */\n  dup3\n    /* \"#utility.yul\":1351:1360   */\n  dup6\n    /* \"#utility.yul\":1347:1369   */\n  add\n    /* \"#utility.yul\":1301:1379   */\n  tag_14\n  jump\t// in\ntag_32:\n    /* \"#utility.yul\":1291:1379   */\n  swap2\n  pop\n    /* \"#utility.yul\":1247:1389   */\n  pop\n    /* \"#utility.yul\":1017:1396   */\n  swap3\n  swap2\n  pop\n  pop\n  jump\t// out\n    /* \"contracts/Gov.sol\":88:4028  contract DAO {... */\ntag_6:\n  dataSize(sub_0)\n  dup1\n  dataOffset(sub_0)\n  0x00\n  codecopy\n  0x00\n  return\nstop\n\nsub_0: assembly {\n        /* \"contracts/Gov.sol\":88:4028  contract DAO {... */\n      mstore(0x40, 0x80)\n      callvalue\n      dup1\n      iszero\n      tag_1\n      jumpi\n      0x00\n      dup1\n      revert\n    tag_1:\n      pop\n      jumpi(tag_2, lt(calldatasize, 0x04))\n      shr(0xe0, calldataload(0x00))\n      dup1\n      0xbb0f4b15\n      gt\n      tag_12\n      jumpi\n      dup1\n      0xbb0f4b15\n      eq\n      tag_7\n      jumpi\n      dup1\n      0xc9a28cb9\n      eq\n      tag_8\n      jumpi\n      dup1\n      0xd14b85b9\n      eq\n      tag_9\n      jumpi\n      dup1\n      0xd6159fe5\n      eq\n      tag_10\n      jumpi\n      dup1\n      0xfc0c546a\n      eq\n      tag_11\n      jumpi\n      jump(tag_2)\n    tag_12:\n      dup1\n      0x32ed5b12\n      eq\n      tag_3\n      jumpi\n      dup1\n      0x61d585da\n      eq\n      tag_4\n      jumpi\n      dup1\n      0x8524c65d\n      eq\n      tag_5\n      jumpi\n      dup1\n      0xa438d208\n      eq\n      tag_6\n      jumpi\n    tag_2:\n      0x00\n      dup1\n      revert\n        /* \"contracts/Gov.sol\":409:456  mapping (bytes32 => Proposal) public  proposals */\n    tag_3:\n      tag_13\n      0x04\n      dup1\n      calldatasize\n      sub\n      dup2\n      add\n      swap1\n      tag_14\n      swap2\n      swap1\n      tag_15\n      jump\t// in\n    tag_14:\n      tag_16\n      jump\t// in\n    tag_13:\n      mload(0x40)\n      tag_17\n      swap4\n      swap3\n      swap2\n      swap1\n      tag_18\n      jump\t// in\n    tag_17:\n      mload(0x40)\n      dup1\n      swap2\n      sub\n      swap1\n      return\n        /* \"contracts/Gov.sol\":2221:2977  function state(bytes32 proposalId) public view returns (ProposalState) {... */\n    tag_4:\n      tag_19\n      0x04\n      dup1\n      calldatasize\n      sub\n      dup2\n      add\n      swap1\n      tag_20\n      swap2\n      swap1\n      tag_15\n      jump\t// in\n    tag_20:\n      tag_21\n      jump\t// in\n    tag_19:\n      mload(0x40)\n      tag_22\n      swap2\n      swap1\n      tag_23\n      jump\t// in\n    tag_22:\n      mload(0x40)\n      dup1\n      swap2\n      sub\n      swap1\n      return\n        /* \"contracts/Gov.sol\":768:1491  function propose(... */\n    tag_5:\n      tag_24\n      0x04\n      dup1\n      calldatasize\n      sub\n      dup2\n      add\n      swap1\n      tag_25\n      swap2\n      swap1\n      tag_26\n      jump\t// in\n    tag_25:\n      tag_27\n      jump\t// in\n    tag_24:\n      mload(0x40)\n      tag_28\n      swap2\n      swap1\n      tag_29\n      jump\t// in\n    tag_28:\n      mload(0x40)\n      dup1\n      swap2\n      sub\n      swap1\n      return\n        /* \"contracts/Gov.sol\":570:612  uint public  constant VOTING_DURATION = 60 */\n    tag_6:\n      tag_30\n      tag_31\n      jump\t// in\n    tag_30:\n      mload(0x40)\n      tag_32\n      swap2\n      swap1\n      tag_33\n      jump\t// in\n    tag_32:\n      mload(0x40)\n      dup1\n      swap2\n      sub\n      swap1\n      return\n        /* \"contracts/Gov.sol\":2985:3789  function execute (... */\n    tag_7:\n      tag_34\n      0x04\n      dup1\n      calldatasize\n      sub\n      dup2\n      add\n      swap1\n      tag_35\n      swap2\n      swap1\n      tag_36\n      jump\t// in\n    tag_35:\n      tag_37\n      jump\t// in\n    tag_34:\n      mload(0x40)\n      tag_38\n      swap2\n      swap1\n      tag_39\n      jump\t// in\n    tag_38:\n      mload(0x40)\n      dup1\n      swap2\n      sub\n      swap1\n      return\n        /* \"contracts/Gov.sol\":1499:2213  function vote (bytes32 proposalId, uint8 voteType) external {... */\n    tag_8:\n      tag_40\n      0x04\n      dup1\n      calldatasize\n      sub\n      dup2\n      add\n      swap1\n      tag_41\n      swap2\n      swap1\n      tag_42\n      jump\t// in\n    tag_41:\n      tag_43\n      jump\t// in\n    tag_40:\n      stop\n        /* \"contracts/Gov.sol\":463:518  mapping (bytes32 => ProposalVote) public  proposalVotes */\n    tag_9:\n      tag_44\n      0x04\n      dup1\n      calldatasize\n      sub\n      dup2\n      add\n      swap1\n      tag_45\n      swap2\n      swap1\n      tag_15\n      jump\t// in\n    tag_45:\n      tag_46\n      jump\t// in\n    tag_44:\n      mload(0x40)\n      tag_47\n      swap4\n      swap3\n      swap2\n      swap1\n      tag_48\n      jump\t// in\n    tag_47:\n      mload(0x40)\n      dup1\n      swap2\n      sub\n      swap1\n      return\n        /* \"contracts/Gov.sol\":525:563  uint public constant VOTING_DELAY = 10 */\n    tag_10:\n      tag_49\n      tag_50\n      jump\t// in\n    tag_49:\n      mload(0x40)\n      tag_51\n      swap2\n      swap1\n      tag_33\n      jump\t// in\n    tag_51:\n      mload(0x40)\n      dup1\n      swap2\n      sub\n      swap1\n      return\n        /* \"contracts/Gov.sol\":108:128  IERC20 public  token */\n    tag_11:\n      tag_52\n      tag_53\n      jump\t// in\n    tag_52:\n      mload(0x40)\n      tag_54\n      swap2\n      swap1\n      tag_55\n      jump\t// in\n    tag_54:\n      mload(0x40)\n      dup1\n      swap2\n      sub\n      swap1\n      return\n        /* \"contracts/Gov.sol\":409:456  mapping (bytes32 => Proposal) public  proposals */\n    tag_16:\n      mstore(0x20, 0x01)\n      dup1\n      0x00\n      mstore\n      keccak256(0x00, 0x40)\n      0x00\n      swap2\n      pop\n      swap1\n      pop\n      dup1\n      0x00\n      add\n      sload\n      swap1\n      dup1\n      0x01\n      add\n      sload\n      swap1\n      dup1\n      0x02\n      add\n      0x00\n      swap1\n      sload\n      swap1\n      0x0100\n      exp\n      swap1\n      div\n      0xff\n      and\n      swap1\n      pop\n      dup4\n      jump\t// out\n        /* \"contracts/Gov.sol\":2221:2977  function state(bytes32 proposalId) public view returns (ProposalState) {... */\n    tag_21:\n        /* \"contracts/Gov.sol\":2277:2290  ProposalState */\n      0x00\n        /* \"contracts/Gov.sol\":2303:2321  Proposal storage p */\n      dup1\n        /* \"contracts/Gov.sol\":2324:2333  proposals */\n      0x01\n        /* \"contracts/Gov.sol\":2324:2345  proposals[proposalId] */\n      0x00\n        /* \"contracts/Gov.sol\":2334:2344  proposalId */\n      dup5\n        /* \"contracts/Gov.sol\":2324:2345  proposals[proposalId] */\n      dup2\n      mstore\n      0x20\n      add\n      swap1\n      dup2\n      mstore\n      0x20\n      add\n      0x00\n      keccak256\n        /* \"contracts/Gov.sol\":2303:2345  Proposal storage p = proposals[proposalId] */\n      swap1\n      pop\n        /* \"contracts/Gov.sol\":2356:2378  ProposalVote storage v */\n      0x00\n        /* \"contracts/Gov.sol\":2381:2394  proposalVotes */\n      0x02\n        /* \"contracts/Gov.sol\":2381:2406  proposalVotes[proposalId] */\n      0x00\n        /* \"contracts/Gov.sol\":2395:2405  proposalId */\n      dup6\n        /* \"contracts/Gov.sol\":2381:2406  proposalVotes[proposalId] */\n      dup2\n      mstore\n      0x20\n      add\n      swap1\n      dup2\n      mstore\n      0x20\n      add\n      0x00\n      keccak256\n        /* \"contracts/Gov.sol\":2356:2406  ProposalVote storage v = proposalVotes[proposalId] */\n      swap1\n      pop\n        /* \"contracts/Gov.sol\":2442:2443  0 */\n      0x00\n        /* \"contracts/Gov.sol\":2425:2426  p */\n      dup3\n        /* \"contracts/Gov.sol\":2425:2439  p.votingStarts */\n      0x00\n      add\n      sload\n        /* \"contracts/Gov.sol\":2425:2443  p.votingStarts > 0 */\n      gt\n        /* \"contracts/Gov.sol\":2417:2472  require(p.votingStarts > 0, \"proposal doesen't exist\" ) */\n      tag_57\n      jumpi\n      mload(0x40)\n      0x08c379a000000000000000000000000000000000000000000000000000000000\n      dup2\n      mstore\n      0x04\n      add\n      tag_58\n      swap1\n      tag_59\n      jump\t// in\n    tag_58:\n      mload(0x40)\n      dup1\n      swap2\n      sub\n      swap1\n      revert\n    tag_57:\n        /* \"contracts/Gov.sol\":2487:2488  p */\n      dup2\n        /* \"contracts/Gov.sol\":2487:2497  p.executed */\n      0x02\n      add\n      0x00\n      swap1\n      sload\n      swap1\n      0x0100\n      exp\n      swap1\n      div\n      0xff\n      and\n        /* \"contracts/Gov.sol\":2483:2556  if (p.executed) {... */\n      iszero\n      tag_60\n      jumpi\n        /* \"contracts/Gov.sol\":2522:2544  ProposalState.Executed */\n      0x04\n        /* \"contracts/Gov.sol\":2514:2544  return  ProposalState.Executed */\n      swap3\n      pop\n      pop\n      pop\n      jump(tag_56)\n        /* \"contracts/Gov.sol\":2483:2556  if (p.executed) {... */\n    tag_60:\n        /* \"contracts/Gov.sol\":2590:2591  p */\n      dup2\n        /* \"contracts/Gov.sol\":2590:2604  p.votingStarts */\n      0x00\n      add\n      sload\n        /* \"contracts/Gov.sol\":2572:2587  block.timestamp */\n      timestamp\n        /* \"contracts/Gov.sol\":2572:2604  block.timestamp < p.votingStarts */\n      lt\n        /* \"contracts/Gov.sol\":2568:2662  if (block.timestamp < p.votingStarts) {... */\n      iszero\n      tag_61\n      jumpi\n        /* \"contracts/Gov.sol\":2629:2650  ProposalState.Pending */\n      0x00\n        /* \"contracts/Gov.sol\":2621:2650  return  ProposalState.Pending */\n      swap3\n      pop\n      pop\n      pop\n      jump(tag_56)\n        /* \"contracts/Gov.sol\":2568:2662  if (block.timestamp < p.votingStarts) {... */\n    tag_61:\n        /* \"contracts/Gov.sol\":2697:2698  p */\n      dup2\n        /* \"contracts/Gov.sol\":2697:2711  p.votingStarts */\n      0x00\n      add\n      sload\n        /* \"contracts/Gov.sol\":2678:2693  block.timestamp */\n      timestamp\n        /* \"contracts/Gov.sol\":2678:2711  block.timestamp >= p.votingStarts */\n      lt\n      iszero\n        /* \"contracts/Gov.sol\":2678:2745  block.timestamp >= p.votingStarts && block.timestamp < p.votingEnds */\n      dup1\n      iszero\n      tag_62\n      jumpi\n      pop\n        /* \"contracts/Gov.sol\":2733:2734  p */\n      dup2\n        /* \"contracts/Gov.sol\":2733:2745  p.votingEnds */\n      0x01\n      add\n      sload\n        /* \"contracts/Gov.sol\":2715:2730  block.timestamp */\n      timestamp\n        /* \"contracts/Gov.sol\":2715:2745  block.timestamp < p.votingEnds */\n      lt\n        /* \"contracts/Gov.sol\":2678:2745  block.timestamp >= p.votingStarts && block.timestamp < p.votingEnds */\n    tag_62:\n        /* \"contracts/Gov.sol\":2674:2802  if (block.timestamp >= p.votingStarts && block.timestamp < p.votingEnds) {... */\n      iszero\n      tag_63\n      jumpi\n        /* \"contracts/Gov.sol\":2770:2790  ProposalState.Active */\n      0x01\n        /* \"contracts/Gov.sol\":2762:2790  return  ProposalState.Active */\n      swap3\n      pop\n      pop\n      pop\n      jump(tag_56)\n        /* \"contracts/Gov.sol\":2674:2802  if (block.timestamp >= p.votingStarts && block.timestamp < p.votingEnds) {... */\n    tag_63:\n        /* \"contracts/Gov.sol\":2831:2832  v */\n      dup1\n        /* \"contracts/Gov.sol\":2831:2846  v.aggainstVotes */\n      0x00\n      add\n      sload\n        /* \"contracts/Gov.sol\":2818:2819  v */\n      dup2\n        /* \"contracts/Gov.sol\":2818:2828  v.forVotes */\n      0x01\n      add\n      sload\n        /* \"contracts/Gov.sol\":2818:2846  v.forVotes > v.aggainstVotes */\n      gt\n        /* \"contracts/Gov.sol\":2814:2970  if (v.forVotes > v.aggainstVotes) {... */\n      iszero\n      tag_64\n      jumpi\n        /* \"contracts/Gov.sol\":2871:2895  ProposalState.Succeseded */\n      0x02\n        /* \"contracts/Gov.sol\":2863:2895  return  ProposalState.Succeseded */\n      swap3\n      pop\n      pop\n      pop\n      jump(tag_56)\n        /* \"contracts/Gov.sol\":2814:2970  if (v.forVotes > v.aggainstVotes) {... */\n    tag_64:\n        /* \"contracts/Gov.sol\":2936:2958  ProposalState.Defeated */\n      0x03\n        /* \"contracts/Gov.sol\":2928:2958  return  ProposalState.Defeated */\n      swap3\n      pop\n      pop\n      pop\n        /* \"contracts/Gov.sol\":2221:2977  function state(bytes32 proposalId) public view returns (ProposalState) {... */\n    tag_56:\n      swap2\n      swap1\n      pop\n      jump\t// out\n        /* \"contracts/Gov.sol\":768:1491  function propose(... */\n    tag_27:\n        /* \"contracts/Gov.sol\":956:963  bytes32 */\n      0x00\n        /* \"contracts/Gov.sol\":1013:1014  1 */\n      0x01\n        /* \"contracts/Gov.sol\":983:988  token */\n      0x00\n      dup1\n      sload\n      swap1\n      0x0100\n      exp\n      swap1\n      div\n      0xffffffffffffffffffffffffffffffffffffffff\n      and\n        /* \"contracts/Gov.sol\":983:998  token.balanceOf */\n      0xffffffffffffffffffffffffffffffffffffffff\n      and\n      0x70a08231\n        /* \"contracts/Gov.sol\":999:1009  msg.sender */\n      caller\n        /* \"contracts/Gov.sol\":983:1010  token.balanceOf(msg.sender) */\n      mload(0x40)\n      dup3\n      0xffffffff\n      and\n      0xe0\n      shl\n      dup2\n      mstore\n      0x04\n      add\n      tag_67\n      swap2\n      swap1\n      tag_68\n      jump\t// in\n    tag_67:\n      0x20\n      mload(0x40)\n      dup1\n      dup4\n      sub\n      dup2\n      dup7\n      gas\n      staticcall\n      iszero\n      dup1\n      iszero\n      tag_70\n      jumpi\n      returndatasize\n      0x00\n      dup1\n      returndatacopy\n      revert(0x00, returndatasize)\n    tag_70:\n      pop\n      pop\n      pop\n      pop\n      mload(0x40)\n      returndatasize\n      not(0x1f)\n      0x1f\n      dup3\n      add\n      and\n      dup3\n      add\n      dup1\n      0x40\n      mstore\n      pop\n      dup2\n      add\n      swap1\n      tag_71\n      swap2\n      swap1\n      tag_72\n      jump\t// in\n    tag_71:\n        /* \"contracts/Gov.sol\":983:1014  token.balanceOf(msg.sender) > 1 */\n      gt\n        /* \"contracts/Gov.sol\":975:1035  require(token.balanceOf(msg.sender) > 1, \"not enough token\") */\n      tag_73\n      jumpi\n      mload(0x40)\n      0x08c379a000000000000000000000000000000000000000000000000000000000\n      dup2\n      mstore\n      0x04\n      add\n      tag_74\n      swap1\n      tag_75\n      jump\t// in\n    tag_74:\n      mload(0x40)\n      dup1\n      swap2\n      sub\n      swap1\n      revert\n    tag_73:\n        /* \"contracts/Gov.sol\":1048:1066  bytes32 proposalId */\n      0x00\n        /* \"contracts/Gov.sol\":1069:1146  generateProposalId(_to, _value, _func, _data, keccak256(bytes(_description))) */\n      tag_76\n        /* \"contracts/Gov.sol\":1088:1091  _to */\n      dup11\n        /* \"contracts/Gov.sol\":1093:1099  _value */\n      dup11\n        /* \"contracts/Gov.sol\":1101:1106  _func */\n      dup11\n      dup11\n        /* \"contracts/Gov.sol\":1108:1113  _data */\n      dup11\n      dup11\n        /* \"contracts/Gov.sol\":1131:1143  _description */\n      dup11\n      dup11\n        /* \"contracts/Gov.sol\":1115:1145  keccak256(bytes(_description)) */\n      mload(0x40)\n      tag_77\n      swap3\n      swap2\n      swap1\n      tag_78\n      jump\t// in\n    tag_77:\n      mload(0x40)\n      dup1\n      swap2\n      sub\n      swap1\n      keccak256\n        /* \"contracts/Gov.sol\":1069:1087  generateProposalId */\n      tag_79\n        /* \"contracts/Gov.sol\":1069:1146  generateProposalId(_to, _value, _func, _data, keccak256(bytes(_description))) */\n      jump\t// in\n    tag_76:\n        /* \"contracts/Gov.sol\":1048:1146  bytes32 proposalId = generateProposalId(_to, _value, _func, _data, keccak256(bytes(_description))) */\n      swap1\n      pop\n        /* \"contracts/Gov.sol\":1204:1205  0 */\n      0x00\n        /* \"contracts/Gov.sol\":1166:1175  proposals */\n      0x01\n        /* \"contracts/Gov.sol\":1166:1187  proposals[proposalId] */\n      0x00\n        /* \"contracts/Gov.sol\":1176:1186  proposalId */\n      dup4\n        /* \"contracts/Gov.sol\":1166:1187  proposals[proposalId] */\n      dup2\n      mstore\n      0x20\n      add\n      swap1\n      dup2\n      mstore\n      0x20\n      add\n      0x00\n      keccak256\n        /* \"contracts/Gov.sol\":1166:1200  proposals[proposalId].votingStarts */\n      0x00\n      add\n      sload\n        /* \"contracts/Gov.sol\":1166:1205  proposals[proposalId].votingStarts == 0 */\n      eq\n        /* \"contracts/Gov.sol\":1158:1233  require(proposals[proposalId].votingStarts == 0, \"proposal already exists\") */\n      tag_80\n      jumpi\n      mload(0x40)\n      0x08c379a000000000000000000000000000000000000000000000000000000000\n      dup2\n      mstore\n      0x04\n      add\n      tag_81\n      swap1\n      tag_82\n      jump\t// in\n    tag_81:\n      mload(0x40)\n      dup1\n      swap2\n      sub\n      swap1\n      revert\n    tag_80:\n        /* \"contracts/Gov.sol\":1268:1454  Proposal({... */\n      mload(0x40)\n      dup1\n      0x60\n      add\n      0x40\n      mstore\n      dup1\n        /* \"contracts/Gov.sol\":561:563  10 */\n      0x0a\n        /* \"contracts/Gov.sol\":1306:1321  block.timestamp */\n      timestamp\n        /* \"contracts/Gov.sol\":1306:1336  block.timestamp + VOTING_DELAY */\n      tag_83\n      swap2\n      swap1\n      tag_84\n      jump\t// in\n    tag_83:\n        /* \"contracts/Gov.sol\":1268:1454  Proposal({... */\n      dup2\n      mstore\n      0x20\n      add\n        /* \"contracts/Gov.sol\":610:612  60 */\n      0x3c\n        /* \"contracts/Gov.sol\":561:563  10 */\n      0x0a\n        /* \"contracts/Gov.sol\":1364:1379  block.timestamp */\n      timestamp\n        /* \"contracts/Gov.sol\":1364:1394  block.timestamp + VOTING_DELAY */\n      tag_85\n      swap2\n      swap1\n      tag_84\n      jump\t// in\n    tag_85:\n        /* \"contracts/Gov.sol\":1364:1412  block.timestamp + VOTING_DELAY + VOTING_DURATION */\n      tag_86\n      swap2\n      swap1\n      tag_84\n      jump\t// in\n    tag_86:\n        /* \"contracts/Gov.sol\":1268:1454  Proposal({... */\n      dup2\n      mstore\n      0x20\n      add\n        /* \"contracts/Gov.sol\":1437:1442  false */\n      0x00\n        /* \"contracts/Gov.sol\":1268:1454  Proposal({... */\n      iszero\n      iszero\n      dup2\n      mstore\n      pop\n        /* \"contracts/Gov.sol\":1244:1253  proposals */\n      0x01\n        /* \"contracts/Gov.sol\":1244:1265  proposals[proposalId] */\n      0x00\n        /* \"contracts/Gov.sol\":1254:1264  proposalId */\n      dup4\n        /* \"contracts/Gov.sol\":1244:1265  proposals[proposalId] */\n      dup2\n      mstore\n      0x20\n      add\n      swap1\n      dup2\n      mstore\n      0x20\n      add\n      0x00\n      keccak256\n        /* \"contracts/Gov.sol\":1244:1454  proposals[proposalId] = Proposal({... */\n      0x00\n      dup3\n      add\n      mload\n      dup2\n      0x00\n      add\n      sstore\n      0x20\n      dup3\n      add\n      mload\n      dup2\n      0x01\n      add\n      sstore\n      0x40\n      dup3\n      add\n      mload\n      dup2\n      0x02\n      add\n      exp(0x0100, 0x00)\n      dup2\n      sload\n      dup2\n      0xff\n      mul\n      not\n      and\n      swap1\n      dup4\n      iszero\n      iszero\n      mul\n      or\n      swap1\n      sstore\n      pop\n      swap1\n      pop\n      pop\n        /* \"contracts/Gov.sol\":1473:1483  proposalId */\n      dup1\n        /* \"contracts/Gov.sol\":1465:1483  return  proposalId */\n      swap2\n      pop\n      pop\n        /* \"contracts/Gov.sol\":768:1491  function propose(... */\n      swap9\n      swap8\n      pop\n      pop\n      pop\n      pop\n      pop\n      pop\n      pop\n      pop\n      jump\t// out\n        /* \"contracts/Gov.sol\":570:612  uint public  constant VOTING_DURATION = 60 */\n    tag_31:\n        /* \"contracts/Gov.sol\":610:612  60 */\n      0x3c\n        /* \"contracts/Gov.sol\":570:612  uint public  constant VOTING_DURATION = 60 */\n      dup2\n      jump\t// out\n        /* \"contracts/Gov.sol\":2985:3789  function execute (... */\n    tag_37:\n        /* \"contracts/Gov.sol\":3170:3182  bytes memory */\n      0x60\n        /* \"contracts/Gov.sol\":3196:3214  bytes32 proposalId */\n      0x00\n        /* \"contracts/Gov.sol\":3217:3280  generateProposalId(_to, _value, _func, _data, _descriptionHash) */\n      tag_88\n        /* \"contracts/Gov.sol\":3236:3239  _to */\n      dup10\n        /* \"contracts/Gov.sol\":3241:3247  _value */\n      dup10\n        /* \"contracts/Gov.sol\":3249:3254  _func */\n      dup10\n      dup10\n        /* \"contracts/Gov.sol\":3256:3261  _data */\n      dup10\n      dup10\n        /* \"contracts/Gov.sol\":3263:3279  _descriptionHash */\n      dup10\n        /* \"contracts/Gov.sol\":3217:3235  generateProposalId */\n      tag_79\n        /* \"contracts/Gov.sol\":3217:3280  generateProposalId(_to, _value, _func, _data, _descriptionHash) */\n      jump\t// in\n    tag_88:\n        /* \"contracts/Gov.sol\":3196:3280  bytes32 proposalId = generateProposalId(_to, _value, _func, _data, _descriptionHash) */\n      swap1\n      pop\n        /* \"contracts/Gov.sol\":3320:3344  ProposalState.Succeseded */\n      0x02\n        /* \"contracts/Gov.sol\":3299:3344  state(proposalId) == ProposalState.Succeseded */\n      0x04\n      dup2\n      gt\n      iszero\n      tag_89\n      jumpi\n      tag_90\n      tag_91\n      jump\t// in\n    tag_90:\n    tag_89:\n        /* \"contracts/Gov.sol\":3299:3316  state(proposalId) */\n      tag_92\n        /* \"contracts/Gov.sol\":3305:3315  proposalId */\n      dup3\n        /* \"contracts/Gov.sol\":3299:3304  state */\n      tag_21\n        /* \"contracts/Gov.sol\":3299:3316  state(proposalId) */\n      jump\t// in\n    tag_92:\n        /* \"contracts/Gov.sol\":3299:3344  state(proposalId) == ProposalState.Succeseded */\n      0x04\n      dup2\n      gt\n      iszero\n      tag_93\n      jumpi\n      tag_94\n      tag_91\n      jump\t// in\n    tag_94:\n    tag_93:\n      eq\n        /* \"contracts/Gov.sol\":3291:3362  require(state(proposalId) == ProposalState.Succeseded, \"invalid state\") */\n      tag_95\n      jumpi\n      mload(0x40)\n      0x08c379a000000000000000000000000000000000000000000000000000000000\n      dup2\n      mstore\n      0x04\n      add\n      tag_96\n      swap1\n      tag_97\n      jump\t// in\n    tag_96:\n      mload(0x40)\n      dup1\n      swap2\n      sub\n      swap1\n      revert\n    tag_95:\n        /* \"contracts/Gov.sol\":3373:3391  Proposal storage p */\n      0x00\n        /* \"contracts/Gov.sol\":3394:3403  proposals */\n      0x01\n        /* \"contracts/Gov.sol\":3394:3415  proposals[proposalId] */\n      0x00\n        /* \"contracts/Gov.sol\":3404:3414  proposalId */\n      dup4\n        /* \"contracts/Gov.sol\":3394:3415  proposals[proposalId] */\n      dup2\n      mstore\n      0x20\n      add\n      swap1\n      dup2\n      mstore\n      0x20\n      add\n      0x00\n      keccak256\n        /* \"contracts/Gov.sol\":3373:3415  Proposal storage p = proposals[proposalId] */\n      swap1\n      pop\n        /* \"contracts/Gov.sol\":3439:3443  true */\n      0x01\n        /* \"contracts/Gov.sol\":3426:3427  p */\n      dup2\n        /* \"contracts/Gov.sol\":3426:3436  p.executed */\n      0x02\n      add\n      0x00\n        /* \"contracts/Gov.sol\":3426:3443  p.executed = true */\n      0x0100\n      exp\n      dup2\n      sload\n      dup2\n      0xff\n      mul\n      not\n      and\n      swap1\n      dup4\n      iszero\n      iszero\n      mul\n      or\n      swap1\n      sstore\n      pop\n        /* \"contracts/Gov.sol\":3456:3473  bytes memory data */\n      0x60\n        /* \"contracts/Gov.sol\":3510:3511  0 */\n      0x00\n        /* \"contracts/Gov.sol\":3494:3499  _func */\n      dup10\n      dup10\n        /* \"contracts/Gov.sol\":3488:3507  bytes(_func).length */\n      swap1\n      pop\n        /* \"contracts/Gov.sol\":3488:3511  bytes(_func).length > 0 */\n      gt\n        /* \"contracts/Gov.sol\":3484:3648  if (bytes(_func).length > 0) {... */\n      iszero\n      tag_98\n      jumpi\n        /* \"contracts/Gov.sol\":3575:3580  _func */\n      dup9\n      dup9\n        /* \"contracts/Gov.sol\":3559:3582  keccak256(bytes(_func)) */\n      mload(0x40)\n      tag_99\n      swap3\n      swap2\n      swap1\n      tag_78\n      jump\t// in\n    tag_99:\n      mload(0x40)\n      dup1\n      swap2\n      sub\n      swap1\n      keccak256\n        /* \"contracts/Gov.sol\":3585:3590  _data */\n      dup8\n      dup8\n        /* \"contracts/Gov.sol\":3535:3591  abi.encodePacked(bytes4(keccak256(bytes(_func))), _data) */\n      add(0x20, mload(0x40))\n      tag_100\n      swap4\n      swap3\n      swap2\n      swap1\n      tag_101\n      jump\t// in\n    tag_100:\n      mload(0x40)\n      0x20\n      dup2\n      dup4\n      sub\n      sub\n      dup2\n      mstore\n      swap1\n      0x40\n      mstore\n        /* \"contracts/Gov.sol\":3528:3591  data = abi.encodePacked(bytes4(keccak256(bytes(_func))), _data) */\n      swap1\n      pop\n        /* \"contracts/Gov.sol\":3484:3648  if (bytes(_func).length > 0) {... */\n      jump(tag_102)\n    tag_98:\n        /* \"contracts/Gov.sol\":3631:3636  _data */\n      dup7\n      dup7\n        /* \"contracts/Gov.sol\":3624:3636  data = _data */\n      dup1\n      dup1\n      0x1f\n      add\n      0x20\n      dup1\n      swap2\n      div\n      mul\n      0x20\n      add\n      mload(0x40)\n      swap1\n      dup2\n      add\n      0x40\n      mstore\n      dup1\n      swap4\n      swap3\n      swap2\n      swap1\n      dup2\n      dup2\n      mstore\n      0x20\n      add\n      dup4\n      dup4\n      dup1\n      dup3\n      dup5\n      calldatacopy\n      0x00\n      dup2\n      dup5\n      add\n      mstore\n      not(0x1f)\n      0x1f\n      dup3\n      add\n      and\n      swap1\n      pop\n      dup1\n      dup4\n      add\n      swap3\n      pop\n      pop\n      pop\n      pop\n      pop\n      pop\n      pop\n      swap1\n      pop\n        /* \"contracts/Gov.sol\":3484:3648  if (bytes(_func).length > 0) {... */\n    tag_102:\n        /* \"contracts/Gov.sol\":3658:3664  bool s */\n      0x00\n        /* \"contracts/Gov.sol\":3666:3682  bytes memory res */\n      dup1\n        /* \"contracts/Gov.sol\":3686:3689  _to */\n      dup13\n        /* \"contracts/Gov.sol\":3686:3694  _to.call */\n      0xffffffffffffffffffffffffffffffffffffffff\n      and\n        /* \"contracts/Gov.sol\":3702:3708  _value */\n      dup13\n        /* \"contracts/Gov.sol\":3710:3714  data */\n      dup5\n        /* \"contracts/Gov.sol\":3686:3715  _to.call{value: _value}(data) */\n      mload(0x40)\n      tag_103\n      swap2\n      swap1\n      tag_104\n      jump\t// in\n    tag_103:\n      0x00\n      mload(0x40)\n      dup1\n      dup4\n      sub\n      dup2\n      dup6\n      dup8\n      gas\n      call\n      swap3\n      pop\n      pop\n      pop\n      returndatasize\n      dup1\n      0x00\n      dup2\n      eq\n      tag_107\n      jumpi\n      mload(0x40)\n      swap2\n      pop\n      and(add(returndatasize, 0x3f), not(0x1f))\n      dup3\n      add\n      0x40\n      mstore\n      returndatasize\n      dup3\n      mstore\n      returndatasize\n      0x00\n      0x20\n      dup5\n      add\n      returndatacopy\n      jump(tag_106)\n    tag_107:\n      0x60\n      swap2\n      pop\n    tag_106:\n      pop\n        /* \"contracts/Gov.sol\":3657:3715  (bool s, bytes memory res) = _to.call{value: _value}(data) */\n      swap2\n      pop\n      swap2\n      pop\n        /* \"contracts/Gov.sol\":3735:3736  s */\n      dup2\n        /* \"contracts/Gov.sol\":3727:3749  require(s, \"tx faild\") */\n      tag_108\n      jumpi\n      mload(0x40)\n      0x08c379a000000000000000000000000000000000000000000000000000000000\n      dup2\n      mstore\n      0x04\n      add\n      tag_109\n      swap1\n      tag_110\n      jump\t// in\n    tag_109:\n      mload(0x40)\n      dup1\n      swap2\n      sub\n      swap1\n      revert\n    tag_108:\n        /* \"contracts/Gov.sol\":3768:3771  res */\n      dup1\n        /* \"contracts/Gov.sol\":3761:3771  return res */\n      swap6\n      pop\n      pop\n      pop\n      pop\n      pop\n      pop\n        /* \"contracts/Gov.sol\":2985:3789  function execute (... */\n      swap8\n      swap7\n      pop\n      pop\n      pop\n      pop\n      pop\n      pop\n      pop\n      jump\t// out\n        /* \"contracts/Gov.sol\":1499:2213  function vote (bytes32 proposalId, uint8 voteType) external {... */\n    tag_43:\n        /* \"contracts/Gov.sol\":1598:1618  ProposalState.Active */\n      0x01\n        /* \"contracts/Gov.sol\":1578:1618  state(proposalId)== ProposalState.Active */\n      0x04\n      dup2\n      gt\n      iszero\n      tag_112\n      jumpi\n      tag_113\n      tag_91\n      jump\t// in\n    tag_113:\n    tag_112:\n        /* \"contracts/Gov.sol\":1578:1595  state(proposalId) */\n      tag_114\n        /* \"contracts/Gov.sol\":1584:1594  proposalId */\n      dup4\n        /* \"contracts/Gov.sol\":1578:1583  state */\n      tag_21\n        /* \"contracts/Gov.sol\":1578:1595  state(proposalId) */\n      jump\t// in\n    tag_114:\n        /* \"contracts/Gov.sol\":1578:1618  state(proposalId)== ProposalState.Active */\n      0x04\n      dup2\n      gt\n      iszero\n      tag_115\n      jumpi\n      tag_116\n      tag_91\n      jump\t// in\n    tag_116:\n    tag_115:\n      eq\n        /* \"contracts/Gov.sol\":1570:1633  require(state(proposalId)== ProposalState.Active, \"not active\") */\n      tag_117\n      jumpi\n      mload(0x40)\n      0x08c379a000000000000000000000000000000000000000000000000000000000\n      dup2\n      mstore\n      0x04\n      add\n      tag_118\n      swap1\n      tag_119\n      jump\t// in\n    tag_118:\n      mload(0x40)\n      dup1\n      swap2\n      sub\n      swap1\n      revert\n    tag_117:\n        /* \"contracts/Gov.sol\":1646:1662  uint votingPower */\n      0x00\n        /* \"contracts/Gov.sol\":1665:1670  token */\n      dup1\n      0x00\n      swap1\n      sload\n      swap1\n      0x0100\n      exp\n      swap1\n      div\n      0xffffffffffffffffffffffffffffffffffffffff\n      and\n        /* \"contracts/Gov.sol\":1665:1680  token.balanceOf */\n      0xffffffffffffffffffffffffffffffffffffffff\n      and\n      0x70a08231\n        /* \"contracts/Gov.sol\":1681:1691  msg.sender */\n      caller\n        /* \"contracts/Gov.sol\":1665:1692  token.balanceOf(msg.sender) */\n      mload(0x40)\n      dup3\n      0xffffffff\n      and\n      0xe0\n      shl\n      dup2\n      mstore\n      0x04\n      add\n      tag_120\n      swap2\n      swap1\n      tag_68\n      jump\t// in\n    tag_120:\n      0x20\n      mload(0x40)\n      dup1\n      dup4\n      sub\n      dup2\n      dup7\n      gas\n      staticcall\n      iszero\n      dup1\n      iszero\n      tag_122\n      jumpi\n      returndatasize\n      0x00\n      dup1\n      returndatacopy\n      revert(0x00, returndatasize)\n    tag_122:\n      pop\n      pop\n      pop\n      pop\n      mload(0x40)\n      returndatasize\n      not(0x1f)\n      0x1f\n      dup3\n      add\n      and\n      dup3\n      add\n      dup1\n      0x40\n      mstore\n      pop\n      dup2\n      add\n      swap1\n      tag_123\n      swap2\n      swap1\n      tag_72\n      jump\t// in\n    tag_123:\n        /* \"contracts/Gov.sol\":1646:1692  uint votingPower = token.balanceOf(msg.sender) */\n      swap1\n      pop\n        /* \"contracts/Gov.sol\":1725:1726  0 */\n      0x00\n        /* \"contracts/Gov.sol\":1711:1722  votingPower */\n      dup2\n        /* \"contracts/Gov.sol\":1711:1726  votingPower > 0 */\n      gt\n        /* \"contracts/Gov.sol\":1703:1748  require(votingPower > 0, \"not enough tokens\") */\n      tag_124\n      jumpi\n      mload(0x40)\n      0x08c379a000000000000000000000000000000000000000000000000000000000\n      dup2\n      mstore\n      0x04\n      add\n      tag_125\n      swap1\n      tag_126\n      jump\t// in\n    tag_125:\n      mload(0x40)\n      dup1\n      swap2\n      sub\n      swap1\n      revert\n    tag_124:\n        /* \"contracts/Gov.sol\":1759:1792  ProposalVote storage proposalVote */\n      0x00\n        /* \"contracts/Gov.sol\":1795:1808  proposalVotes */\n      0x02\n        /* \"contracts/Gov.sol\":1795:1820  proposalVotes[proposalId] */\n      0x00\n        /* \"contracts/Gov.sol\":1809:1819  proposalId */\n      dup6\n        /* \"contracts/Gov.sol\":1795:1820  proposalVotes[proposalId] */\n      dup2\n      mstore\n      0x20\n      add\n      swap1\n      dup2\n      mstore\n      0x20\n      add\n      0x00\n      keccak256\n        /* \"contracts/Gov.sol\":1759:1820  ProposalVote storage proposalVote = proposalVotes[proposalId] */\n      swap1\n      pop\n        /* \"contracts/Gov.sol\":1842:1854  proposalVote */\n      dup1\n        /* \"contracts/Gov.sol\":1842:1863  proposalVote.hasVoted */\n      0x03\n      add\n        /* \"contracts/Gov.sol\":1842:1875  proposalVote.hasVoted[msg.sender] */\n      0x00\n        /* \"contracts/Gov.sol\":1864:1874  msg.sender */\n      caller\n        /* \"contracts/Gov.sol\":1842:1875  proposalVote.hasVoted[msg.sender] */\n      0xffffffffffffffffffffffffffffffffffffffff\n      and\n      0xffffffffffffffffffffffffffffffffffffffff\n      and\n      dup2\n      mstore\n      0x20\n      add\n      swap1\n      dup2\n      mstore\n      0x20\n      add\n      0x00\n      keccak256\n      0x00\n      swap1\n      sload\n      swap1\n      0x0100\n      exp\n      swap1\n      div\n      0xff\n      and\n        /* \"contracts/Gov.sol\":1841:1875  !proposalVote.hasVoted[msg.sender] */\n      iszero\n        /* \"contracts/Gov.sol\":1833:1893  require(!proposalVote.hasVoted[msg.sender], \"already voted\") */\n      tag_127\n      jumpi\n      mload(0x40)\n      0x08c379a000000000000000000000000000000000000000000000000000000000\n      dup2\n      mstore\n      0x04\n      add\n      tag_128\n      swap1\n      tag_129\n      jump\t// in\n    tag_128:\n      mload(0x40)\n      dup1\n      swap2\n      sub\n      swap1\n      revert\n    tag_127:\n        /* \"contracts/Gov.sol\":1920:1921  0 */\n      0x00\n        /* \"contracts/Gov.sol\":1908:1916  voteType */\n      dup4\n        /* \"contracts/Gov.sol\":1908:1921  voteType == 0 */\n      0xff\n      and\n      sub\n        /* \"contracts/Gov.sol\":1904:2151  if (voteType == 0) {... */\n      tag_130\n      jumpi\n        /* \"contracts/Gov.sol\":1968:1979  votingPower */\n      dup2\n        /* \"contracts/Gov.sol\":1938:1950  proposalVote */\n      dup2\n        /* \"contracts/Gov.sol\":1938:1964  proposalVote.aggainstVotes */\n      0x00\n      add\n      0x00\n        /* \"contracts/Gov.sol\":1938:1979  proposalVote.aggainstVotes += votingPower */\n      dup3\n      dup3\n      sload\n      tag_131\n      swap2\n      swap1\n      tag_84\n      jump\t// in\n    tag_131:\n      swap3\n      pop\n      pop\n      dup2\n      swap1\n      sstore\n      pop\n        /* \"contracts/Gov.sol\":1904:2151  if (voteType == 0) {... */\n      jump(tag_132)\n    tag_130:\n        /* \"contracts/Gov.sol\":2012:2013  1 */\n      0x01\n        /* \"contracts/Gov.sol\":2000:2008  voteType */\n      dup4\n        /* \"contracts/Gov.sol\":2000:2013  voteType == 1 */\n      0xff\n      and\n      sub\n        /* \"contracts/Gov.sol\":1997:2151  if(voteType == 1) {... */\n      tag_133\n      jumpi\n        /* \"contracts/Gov.sol\":2055:2066  votingPower */\n      dup2\n        /* \"contracts/Gov.sol\":2030:2042  proposalVote */\n      dup2\n        /* \"contracts/Gov.sol\":2030:2051  proposalVote.forVotes */\n      0x01\n      add\n      0x00\n        /* \"contracts/Gov.sol\":2030:2066  proposalVote.forVotes += votingPower */\n      dup3\n      dup3\n      sload\n      tag_134\n      swap2\n      swap1\n      tag_84\n      jump\t// in\n    tag_134:\n      swap3\n      pop\n      pop\n      dup2\n      swap1\n      sstore\n      pop\n        /* \"contracts/Gov.sol\":1997:2151  if(voteType == 1) {... */\n      jump(tag_135)\n    tag_133:\n        /* \"contracts/Gov.sol\":2128:2139  votingPower */\n      dup2\n        /* \"contracts/Gov.sol\":2099:2111  proposalVote */\n      dup2\n        /* \"contracts/Gov.sol\":2099:2124  proposalVote.abstainVotes */\n      0x02\n      add\n      0x00\n        /* \"contracts/Gov.sol\":2099:2139  proposalVote.abstainVotes += votingPower */\n      dup3\n      dup3\n      sload\n      tag_136\n      swap2\n      swap1\n      tag_84\n      jump\t// in\n    tag_136:\n      swap3\n      pop\n      pop\n      dup2\n      swap1\n      sstore\n      pop\n        /* \"contracts/Gov.sol\":1997:2151  if(voteType == 1) {... */\n    tag_135:\n        /* \"contracts/Gov.sol\":1904:2151  if (voteType == 0) {... */\n    tag_132:\n        /* \"contracts/Gov.sol\":2199:2203  true */\n      0x01\n        /* \"contracts/Gov.sol\":2163:2175  proposalVote */\n      dup2\n        /* \"contracts/Gov.sol\":2163:2184  proposalVote.hasVoted */\n      0x03\n      add\n        /* \"contracts/Gov.sol\":2163:2196  proposalVote.hasVoted[msg.sender] */\n      0x00\n        /* \"contracts/Gov.sol\":2185:2195  msg.sender */\n      caller\n        /* \"contracts/Gov.sol\":2163:2196  proposalVote.hasVoted[msg.sender] */\n      0xffffffffffffffffffffffffffffffffffffffff\n      and\n      0xffffffffffffffffffffffffffffffffffffffff\n      and\n      dup2\n      mstore\n      0x20\n      add\n      swap1\n      dup2\n      mstore\n      0x20\n      add\n      0x00\n      keccak256\n      0x00\n        /* \"contracts/Gov.sol\":2163:2203  proposalVote.hasVoted[msg.sender] = true */\n      0x0100\n      exp\n      dup2\n      sload\n      dup2\n      0xff\n      mul\n      not\n      and\n      swap1\n      dup4\n      iszero\n      iszero\n      mul\n      or\n      swap1\n      sstore\n      pop\n        /* \"contracts/Gov.sol\":1559:2213  {... */\n      pop\n      pop\n        /* \"contracts/Gov.sol\":1499:2213  function vote (bytes32 proposalId, uint8 voteType) external {... */\n      pop\n      pop\n      jump\t// out\n        /* \"contracts/Gov.sol\":463:518  mapping (bytes32 => ProposalVote) public  proposalVotes */\n    tag_46:\n      mstore(0x20, 0x02)\n      dup1\n      0x00\n      mstore\n      keccak256(0x00, 0x40)\n      0x00\n      swap2\n      pop\n      swap1\n      pop\n      dup1\n      0x00\n      add\n      sload\n      swap1\n      dup1\n      0x01\n      add\n      sload\n      swap1\n      dup1\n      0x02\n      add\n      sload\n      swap1\n      pop\n      dup4\n      jump\t// out\n        /* \"contracts/Gov.sol\":525:563  uint public constant VOTING_DELAY = 10 */\n    tag_50:\n        /* \"contracts/Gov.sol\":561:563  10 */\n      0x0a\n        /* \"contracts/Gov.sol\":525:563  uint public constant VOTING_DELAY = 10 */\n      dup2\n      jump\t// out\n        /* \"contracts/Gov.sol\":108:128  IERC20 public  token */\n    tag_53:\n      0x00\n      dup1\n      sload\n      swap1\n      0x0100\n      exp\n      swap1\n      div\n      0xffffffffffffffffffffffffffffffffffffffff\n      and\n      dup2\n      jump\t// out\n        /* \"contracts/Gov.sol\":3797:4025  function generateProposalId (address _to, uint _value, string calldata _func, bytes calldata _data, bytes32  _desc) private pure returns (bytes32) {... */\n    tag_79:\n        /* \"contracts/Gov.sol\":3935:3942  bytes32 */\n      0x00\n        /* \"contracts/Gov.sol\":3983:3986  _to */\n      dup8\n        /* \"contracts/Gov.sol\":3988:3994  _value */\n      dup8\n        /* \"contracts/Gov.sol\":3996:4001  _func */\n      dup8\n      dup8\n        /* \"contracts/Gov.sol\":4003:4008  _data */\n      dup8\n      dup8\n        /* \"contracts/Gov.sol\":4010:4015  _desc */\n      dup8\n        /* \"contracts/Gov.sol\":3972:4016  abi.encode(_to, _value, _func, _data, _desc) */\n      add(0x20, mload(0x40))\n      tag_138\n      swap8\n      swap7\n      swap6\n      swap5\n      swap4\n      swap3\n      swap2\n      swap1\n      tag_139\n      jump\t// in\n    tag_138:\n      mload(0x40)\n      0x20\n      dup2\n      dup4\n      sub\n      sub\n      dup2\n      mstore\n      swap1\n      0x40\n      mstore\n        /* \"contracts/Gov.sol\":3962:4017  keccak256(abi.encode(_to, _value, _func, _data, _desc)) */\n      dup1\n      mload\n      swap1\n      0x20\n      add\n      keccak256\n        /* \"contracts/Gov.sol\":3955:4017  return keccak256(abi.encode(_to, _value, _func, _data, _desc)) */\n      swap1\n      pop\n        /* \"contracts/Gov.sol\":3797:4025  function generateProposalId (address _to, uint _value, string calldata _func, bytes calldata _data, bytes32  _desc) private pure returns (bytes32) {... */\n      swap8\n      swap7\n      pop\n      pop\n      pop\n      pop\n      pop\n      pop\n      pop\n      jump\t// out\n        /* \"#utility.yul\":88:205   */\n    tag_141:\n        /* \"#utility.yul\":197:198   */\n      0x00\n        /* \"#utility.yul\":194:195   */\n      dup1\n        /* \"#utility.yul\":187:199   */\n      revert\n        /* \"#utility.yul\":211:328   */\n    tag_142:\n        /* \"#utility.yul\":320:321   */\n      0x00\n        /* \"#utility.yul\":317:318   */\n      dup1\n        /* \"#utility.yul\":310:322   */\n      revert\n        /* \"#utility.yul\":334:411   */\n    tag_143:\n        /* \"#utility.yul\":371:378   */\n      0x00\n        /* \"#utility.yul\":400:405   */\n      dup2\n        /* \"#utility.yul\":389:405   */\n      swap1\n      pop\n        /* \"#utility.yul\":334:411   */\n      swap2\n      swap1\n      pop\n      jump\t// out\n        /* \"#utility.yul\":417:539   */\n    tag_144:\n        /* \"#utility.yul\":490:514   */\n      tag_214\n        /* \"#utility.yul\":508:513   */\n      dup2\n        /* \"#utility.yul\":490:514   */\n      tag_143\n      jump\t// in\n    tag_214:\n        /* \"#utility.yul\":483:488   */\n      dup2\n        /* \"#utility.yul\":480:515   */\n      eq\n        /* \"#utility.yul\":470:533   */\n      tag_215\n      jumpi\n        /* \"#utility.yul\":529:530   */\n      0x00\n        /* \"#utility.yul\":526:527   */\n      dup1\n        /* \"#utility.yul\":519:531   */\n      revert\n        /* \"#utility.yul\":470:533   */\n    tag_215:\n        /* \"#utility.yul\":417:539   */\n      pop\n      jump\t// out\n        /* \"#utility.yul\":545:684   */\n    tag_145:\n        /* \"#utility.yul\":591:596   */\n      0x00\n        /* \"#utility.yul\":629:635   */\n      dup2\n        /* \"#utility.yul\":616:636   */\n      calldataload\n        /* \"#utility.yul\":607:636   */\n      swap1\n      pop\n        /* \"#utility.yul\":645:678   */\n      tag_217\n        /* \"#utility.yul\":672:677   */\n      dup2\n        /* \"#utility.yul\":645:678   */\n      tag_144\n      jump\t// in\n    tag_217:\n        /* \"#utility.yul\":545:684   */\n      swap3\n      swap2\n      pop\n      pop\n      jump\t// out\n        /* \"#utility.yul\":690:1019   */\n    tag_15:\n        /* \"#utility.yul\":749:755   */\n      0x00\n        /* \"#utility.yul\":798:800   */\n      0x20\n        /* \"#utility.yul\":786:795   */\n      dup3\n        /* \"#utility.yul\":777:784   */\n      dup5\n        /* \"#utility.yul\":773:796   */\n      sub\n        /* \"#utility.yul\":769:801   */\n      slt\n        /* \"#utility.yul\":766:885   */\n      iszero\n      tag_219\n      jumpi\n        /* \"#utility.yul\":804:883   */\n      tag_220\n      tag_141\n      jump\t// in\n    tag_220:\n        /* \"#utility.yul\":766:885   */\n    tag_219:\n        /* \"#utility.yul\":924:925   */\n      0x00\n        /* \"#utility.yul\":949:1002   */\n      tag_221\n        /* \"#utility.yul\":994:1001   */\n      dup5\n        /* \"#utility.yul\":985:991   */\n      dup3\n        /* \"#utility.yul\":974:983   */\n      dup6\n        /* \"#utility.yul\":970:992   */\n      add\n        /* \"#utility.yul\":949:1002   */\n      tag_145\n      jump\t// in\n    tag_221:\n        /* \"#utility.yul\":939:1002   */\n      swap2\n      pop\n        /* \"#utility.yul\":895:1012   */\n      pop\n        /* \"#utility.yul\":690:1019   */\n      swap3\n      swap2\n      pop\n      pop\n      jump\t// out\n        /* \"#utility.yul\":1025:1102   */\n    tag_146:\n        /* \"#utility.yul\":1062:1069   */\n      0x00\n        /* \"#utility.yul\":1091:1096   */\n      dup2\n        /* \"#utility.yul\":1080:1096   */\n      swap1\n      pop\n        /* \"#utility.yul\":1025:1102   */\n      swap2\n      swap1\n      pop\n      jump\t// out\n        /* \"#utility.yul\":1108:1226   */\n    tag_147:\n        /* \"#utility.yul\":1195:1219   */\n      tag_224\n        /* \"#utility.yul\":1213:1218   */\n      dup2\n        /* \"#utility.yul\":1195:1219   */\n      tag_146\n      jump\t// in\n    tag_224:\n        /* \"#utility.yul\":1190:1193   */\n      dup3\n        /* \"#utility.yul\":1183:1220   */\n      mstore\n        /* \"#utility.yul\":1108:1226   */\n      pop\n      pop\n      jump\t// out\n        /* \"#utility.yul\":1232:1322   */\n    tag_148:\n        /* \"#utility.yul\":1266:1273   */\n      0x00\n        /* \"#utility.yul\":1309:1314   */\n      dup2\n        /* \"#utility.yul\":1302:1315   */\n      iszero\n        /* \"#utility.yul\":1295:1316   */\n      iszero\n        /* \"#utility.yul\":1284:1316   */\n      swap1\n      pop\n        /* \"#utility.yul\":1232:1322   */\n      swap2\n      swap1\n      pop\n      jump\t// out\n        /* \"#utility.yul\":1328:1437   */\n    tag_149:\n        /* \"#utility.yul\":1409:1430   */\n      tag_227\n        /* \"#utility.yul\":1424:1429   */\n      dup2\n        /* \"#utility.yul\":1409:1430   */\n      tag_148\n      jump\t// in\n    tag_227:\n        /* \"#utility.yul\":1404:1407   */\n      dup3\n        /* \"#utility.yul\":1397:1431   */\n      mstore\n        /* \"#utility.yul\":1328:1437   */\n      pop\n      pop\n      jump\t// out\n        /* \"#utility.yul\":1443:1873   */\n    tag_18:\n        /* \"#utility.yul\":1586:1590   */\n      0x00\n        /* \"#utility.yul\":1624:1626   */\n      0x60\n        /* \"#utility.yul\":1613:1622   */\n      dup3\n        /* \"#utility.yul\":1609:1627   */\n      add\n        /* \"#utility.yul\":1601:1627   */\n      swap1\n      pop\n        /* \"#utility.yul\":1637:1708   */\n      tag_229\n        /* \"#utility.yul\":1705:1706   */\n      0x00\n        /* \"#utility.yul\":1694:1703   */\n      dup4\n        /* \"#utility.yul\":1690:1707   */\n      add\n        /* \"#utility.yul\":1681:1687   */\n      dup7\n        /* \"#utility.yul\":1637:1708   */\n      tag_147\n      jump\t// in\n    tag_229:\n        /* \"#utility.yul\":1718:1790   */\n      tag_230\n        /* \"#utility.yul\":1786:1788   */\n      0x20\n        /* \"#utility.yul\":1775:1784   */\n      dup4\n        /* \"#utility.yul\":1771:1789   */\n      add\n        /* \"#utility.yul\":1762:1768   */\n      dup6\n        /* \"#utility.yul\":1718:1790   */\n      tag_147\n      jump\t// in\n    tag_230:\n        /* \"#utility.yul\":1800:1866   */\n      tag_231\n        /* \"#utility.yul\":1862:1864   */\n      0x40\n        /* \"#utility.yul\":1851:1860   */\n      dup4\n        /* \"#utility.yul\":1847:1865   */\n      add\n        /* \"#utility.yul\":1838:1844   */\n      dup5\n        /* \"#utility.yul\":1800:1866   */\n      tag_149\n      jump\t// in\n    tag_231:\n        /* \"#utility.yul\":1443:1873   */\n      swap5\n      swap4\n      pop\n      pop\n      pop\n      pop\n      jump\t// out\n        /* \"#utility.yul\":1879:2059   */\n    tag_91:\n        /* \"#utility.yul\":1927:2004   */\n      0x4e487b7100000000000000000000000000000000000000000000000000000000\n        /* \"#utility.yul\":1924:1925   */\n      0x00\n        /* \"#utility.yul\":1917:2005   */\n      mstore\n        /* \"#utility.yul\":2024:2028   */\n      0x21\n        /* \"#utility.yul\":2021:2022   */\n      0x04\n        /* \"#utility.yul\":2014:2029   */\n      mstore\n        /* \"#utility.yul\":2048:2052   */\n      0x24\n        /* \"#utility.yul\":2045:2046   */\n      0x00\n        /* \"#utility.yul\":2038:2053   */\n      revert\n        /* \"#utility.yul\":2065:2186   */\n    tag_150:\n        /* \"#utility.yul\":2154:2155   */\n      0x05\n        /* \"#utility.yul\":2147:2152   */\n      dup2\n        /* \"#utility.yul\":2144:2156   */\n      lt\n        /* \"#utility.yul\":2134:2180   */\n      tag_234\n      jumpi\n        /* \"#utility.yul\":2160:2178   */\n      tag_235\n      tag_91\n      jump\t// in\n    tag_235:\n        /* \"#utility.yul\":2134:2180   */\n    tag_234:\n        /* \"#utility.yul\":2065:2186   */\n      pop\n      jump\t// out\n        /* \"#utility.yul\":2192:2335   */\n    tag_151:\n        /* \"#utility.yul\":2245:2252   */\n      0x00\n        /* \"#utility.yul\":2274:2279   */\n      dup2\n        /* \"#utility.yul\":2263:2279   */\n      swap1\n      pop\n        /* \"#utility.yul\":2280:2329   */\n      tag_237\n        /* \"#utility.yul\":2323:2328   */\n      dup3\n        /* \"#utility.yul\":2280:2329   */\n      tag_150\n      jump\t// in\n    tag_237:\n        /* \"#utility.yul\":2192:2335   */\n      swap2\n      swap1\n      pop\n      jump\t// out\n        /* \"#utility.yul\":2341:2484   */\n    tag_152:\n        /* \"#utility.yul\":2405:2414   */\n      0x00\n        /* \"#utility.yul\":2438:2478   */\n      tag_239\n        /* \"#utility.yul\":2472:2477   */\n      dup3\n        /* \"#utility.yul\":2438:2478   */\n      tag_151\n      jump\t// in\n    tag_239:\n        /* \"#utility.yul\":2425:2478   */\n      swap1\n      pop\n        /* \"#utility.yul\":2341:2484   */\n      swap2\n      swap1\n      pop\n      jump\t// out\n        /* \"#utility.yul\":2490:2649   */\n    tag_153:\n        /* \"#utility.yul\":2591:2642   */\n      tag_241\n        /* \"#utility.yul\":2636:2641   */\n      dup2\n        /* \"#utility.yul\":2591:2642   */\n      tag_152\n      jump\t// in\n    tag_241:\n        /* \"#utility.yul\":2586:2589   */\n      dup3\n        /* \"#utility.yul\":2579:2643   */\n      mstore\n        /* \"#utility.yul\":2490:2649   */\n      pop\n      pop\n      jump\t// out\n        /* \"#utility.yul\":2655:2905   */\n    tag_23:\n        /* \"#utility.yul\":2762:2766   */\n      0x00\n        /* \"#utility.yul\":2800:2802   */\n      0x20\n        /* \"#utility.yul\":2789:2798   */\n      dup3\n        /* \"#utility.yul\":2785:2803   */\n      add\n        /* \"#utility.yul\":2777:2803   */\n      swap1\n      pop\n        /* \"#utility.yul\":2813:2898   */\n      tag_243\n        /* \"#utility.yul\":2895:2896   */\n      0x00\n        /* \"#utility.yul\":2884:2893   */\n      dup4\n        /* \"#utility.yul\":2880:2897   */\n      add\n        /* \"#utility.yul\":2871:2877   */\n      dup5\n        /* \"#utility.yul\":2813:2898   */\n      tag_153\n      jump\t// in\n    tag_243:\n        /* \"#utility.yul\":2655:2905   */\n      swap3\n      swap2\n      pop\n      pop\n      jump\t// out\n        /* \"#utility.yul\":2911:3037   */\n    tag_154:\n        /* \"#utility.yul\":2948:2955   */\n      0x00\n        /* \"#utility.yul\":2988:3030   */\n      0xffffffffffffffffffffffffffffffffffffffff\n        /* \"#utility.yul\":2981:2986   */\n      dup3\n        /* \"#utility.yul\":2977:3031   */\n      and\n        /* \"#utility.yul\":2966:3031   */\n      swap1\n      pop\n        /* \"#utility.yul\":2911:3037   */\n      swap2\n      swap1\n      pop\n      jump\t// out\n        /* \"#utility.yul\":3043:3139   */\n    tag_155:\n        /* \"#utility.yul\":3080:3087   */\n      0x00\n        /* \"#utility.yul\":3109:3133   */\n      tag_246\n        /* \"#utility.yul\":3127:3132   */\n      dup3\n        /* \"#utility.yul\":3109:3133   */\n      tag_154\n      jump\t// in\n    tag_246:\n        /* \"#utility.yul\":3098:3133   */\n      swap1\n      pop\n        /* \"#utility.yul\":3043:3139   */\n      swap2\n      swap1\n      pop\n      jump\t// out\n        /* \"#utility.yul\":3145:3267   */\n    tag_156:\n        /* \"#utility.yul\":3218:3242   */\n      tag_248\n        /* \"#utility.yul\":3236:3241   */\n      dup2\n        /* \"#utility.yul\":3218:3242   */\n      tag_155\n      jump\t// in\n    tag_248:\n        /* \"#utility.yul\":3211:3216   */\n      dup2\n        /* \"#utility.yul\":3208:3243   */\n      eq\n        /* \"#utility.yul\":3198:3261   */\n      tag_249\n      jumpi\n        /* \"#utility.yul\":3257:3258   */\n      0x00\n        /* \"#utility.yul\":3254:3255   */\n      dup1\n        /* \"#utility.yul\":3247:3259   */\n      revert\n        /* \"#utility.yul\":3198:3261   */\n    tag_249:\n        /* \"#utility.yul\":3145:3267   */\n      pop\n      jump\t// out\n        /* \"#utility.yul\":3273:3412   */\n    tag_157:\n        /* \"#utility.yul\":3319:3324   */\n      0x00\n        /* \"#utility.yul\":3357:3363   */\n      dup2\n        /* \"#utility.yul\":3344:3364   */\n      calldataload\n        /* \"#utility.yul\":3335:3364   */\n      swap1\n      pop\n        /* \"#utility.yul\":3373:3406   */\n      tag_251\n        /* \"#utility.yul\":3400:3405   */\n      dup2\n        /* \"#utility.yul\":3373:3406   */\n      tag_156\n      jump\t// in\n    tag_251:\n        /* \"#utility.yul\":3273:3412   */\n      swap3\n      swap2\n      pop\n      pop\n      jump\t// out\n        /* \"#utility.yul\":3418:3540   */\n    tag_158:\n        /* \"#utility.yul\":3491:3515   */\n      tag_253\n        /* \"#utility.yul\":3509:3514   */\n      dup2\n        /* \"#utility.yul\":3491:3515   */\n      tag_146\n      jump\t// in\n    tag_253:\n        /* \"#utility.yul\":3484:3489   */\n      dup2\n        /* \"#utility.yul\":3481:3516   */\n      eq\n        /* \"#utility.yul\":3471:3534   */\n      tag_254\n      jumpi\n        /* \"#utility.yul\":3530:3531   */\n      0x00\n        /* \"#utility.yul\":3527:3528   */\n      dup1\n        /* \"#utility.yul\":3520:3532   */\n      revert\n        /* \"#utility.yul\":3471:3534   */\n    tag_254:\n        /* \"#utility.yul\":3418:3540   */\n      pop\n      jump\t// out\n        /* \"#utility.yul\":3546:3685   */\n    tag_159:\n        /* \"#utility.yul\":3592:3597   */\n      0x00\n        /* \"#utility.yul\":3630:3636   */\n      dup2\n        /* \"#utility.yul\":3617:3637   */\n      calldataload\n        /* \"#utility.yul\":3608:3637   */\n      swap1\n      pop\n        /* \"#utility.yul\":3646:3679   */\n      tag_256\n        /* \"#utility.yul\":3673:3678   */\n      dup2\n        /* \"#utility.yul\":3646:3679   */\n      tag_158\n      jump\t// in\n    tag_256:\n        /* \"#utility.yul\":3546:3685   */\n      swap3\n      swap2\n      pop\n      pop\n      jump\t// out\n        /* \"#utility.yul\":3691:3808   */\n    tag_160:\n        /* \"#utility.yul\":3800:3801   */\n      0x00\n        /* \"#utility.yul\":3797:3798   */\n      dup1\n        /* \"#utility.yul\":3790:3802   */\n      revert\n        /* \"#utility.yul\":3814:3931   */\n    tag_161:\n        /* \"#utility.yul\":3923:3924   */\n      0x00\n        /* \"#utility.yul\":3920:3921   */\n      dup1\n        /* \"#utility.yul\":3913:3925   */\n      revert\n        /* \"#utility.yul\":3937:4054   */\n    tag_162:\n        /* \"#utility.yul\":4046:4047   */\n      0x00\n        /* \"#utility.yul\":4043:4044   */\n      dup1\n        /* \"#utility.yul\":4036:4048   */\n      revert\n        /* \"#utility.yul\":4074:4627   */\n    tag_163:\n        /* \"#utility.yul\":4132:4140   */\n      0x00\n        /* \"#utility.yul\":4142:4148   */\n      dup1\n        /* \"#utility.yul\":4192:4195   */\n      dup4\n        /* \"#utility.yul\":4185:4189   */\n      0x1f\n        /* \"#utility.yul\":4177:4183   */\n      dup5\n        /* \"#utility.yul\":4173:4190   */\n      add\n        /* \"#utility.yul\":4169:4196   */\n      slt\n        /* \"#utility.yul\":4159:4281   */\n      tag_261\n      jumpi\n        /* \"#utility.yul\":4200:4279   */\n      tag_262\n      tag_160\n      jump\t// in\n    tag_262:\n        /* \"#utility.yul\":4159:4281   */\n    tag_261:\n        /* \"#utility.yul\":4313:4319   */\n      dup3\n        /* \"#utility.yul\":4300:4320   */\n      calldataload\n        /* \"#utility.yul\":4290:4320   */\n      swap1\n      pop\n        /* \"#utility.yul\":4343:4361   */\n      0xffffffffffffffff\n        /* \"#utility.yul\":4335:4341   */\n      dup2\n        /* \"#utility.yul\":4332:4362   */\n      gt\n        /* \"#utility.yul\":4329:4446   */\n      iszero\n      tag_263\n      jumpi\n        /* \"#utility.yul\":4365:4444   */\n      tag_264\n      tag_161\n      jump\t// in\n    tag_264:\n        /* \"#utility.yul\":4329:4446   */\n    tag_263:\n        /* \"#utility.yul\":4479:4483   */\n      0x20\n        /* \"#utility.yul\":4471:4477   */\n      dup4\n        /* \"#utility.yul\":4467:4484   */\n      add\n        /* \"#utility.yul\":4455:4484   */\n      swap2\n      pop\n        /* \"#utility.yul\":4533:4536   */\n      dup4\n        /* \"#utility.yul\":4525:4529   */\n      0x01\n        /* \"#utility.yul\":4517:4523   */\n      dup3\n        /* \"#utility.yul\":4513:4530   */\n      mul\n        /* \"#utility.yul\":4503:4511   */\n      dup4\n        /* \"#utility.yul\":4499:4531   */\n      add\n        /* \"#utility.yul\":4496:4537   */\n      gt\n        /* \"#utility.yul\":4493:4621   */\n      iszero\n      tag_265\n      jumpi\n        /* \"#utility.yul\":4540:4619   */\n      tag_266\n      tag_162\n      jump\t// in\n    tag_266:\n        /* \"#utility.yul\":4493:4621   */\n    tag_265:\n        /* \"#utility.yul\":4074:4627   */\n      swap3\n      pop\n      swap3\n      swap1\n      pop\n      jump\t// out\n        /* \"#utility.yul\":4646:5198   */\n    tag_164:\n        /* \"#utility.yul\":4703:4711   */\n      0x00\n        /* \"#utility.yul\":4713:4719   */\n      dup1\n        /* \"#utility.yul\":4763:4766   */\n      dup4\n        /* \"#utility.yul\":4756:4760   */\n      0x1f\n        /* \"#utility.yul\":4748:4754   */\n      dup5\n        /* \"#utility.yul\":4744:4761   */\n      add\n        /* \"#utility.yul\":4740:4767   */\n      slt\n        /* \"#utility.yul\":4730:4852   */\n      tag_268\n      jumpi\n        /* \"#utility.yul\":4771:4850   */\n      tag_269\n      tag_160\n      jump\t// in\n    tag_269:\n        /* \"#utility.yul\":4730:4852   */\n    tag_268:\n        /* \"#utility.yul\":4884:4890   */\n      dup3\n        /* \"#utility.yul\":4871:4891   */\n      calldataload\n        /* \"#utility.yul\":4861:4891   */\n      swap1\n      pop\n        /* \"#utility.yul\":4914:4932   */\n      0xffffffffffffffff\n        /* \"#utility.yul\":4906:4912   */\n      dup2\n        /* \"#utility.yul\":4903:4933   */\n      gt\n        /* \"#utility.yul\":4900:5017   */\n      iszero\n      tag_270\n      jumpi\n        /* \"#utility.yul\":4936:5015   */\n      tag_271\n      tag_161\n      jump\t// in\n    tag_271:\n        /* \"#utility.yul\":4900:5017   */\n    tag_270:\n        /* \"#utility.yul\":5050:5054   */\n      0x20\n        /* \"#utility.yul\":5042:5048   */\n      dup4\n        /* \"#utility.yul\":5038:5055   */\n      add\n        /* \"#utility.yul\":5026:5055   */\n      swap2\n      pop\n        /* \"#utility.yul\":5104:5107   */\n      dup4\n        /* \"#utility.yul\":5096:5100   */\n      0x01\n        /* \"#utility.yul\":5088:5094   */\n      dup3\n        /* \"#utility.yul\":5084:5101   */\n      mul\n        /* \"#utility.yul\":5074:5082   */\n      dup4\n        /* \"#utility.yul\":5070:5102   */\n      add\n        /* \"#utility.yul\":5067:5108   */\n      gt\n        /* \"#utility.yul\":5064:5192   */\n      iszero\n      tag_272\n      jumpi\n        /* \"#utility.yul\":5111:5190   */\n      tag_273\n      tag_162\n      jump\t// in\n    tag_273:\n        /* \"#utility.yul\":5064:5192   */\n    tag_272:\n        /* \"#utility.yul\":4646:5198   */\n      swap3\n      pop\n      swap3\n      swap1\n      pop\n      jump\t// out\n        /* \"#utility.yul\":5204:6713   */\n    tag_26:\n        /* \"#utility.yul\":5334:5340   */\n      0x00\n        /* \"#utility.yul\":5342:5348   */\n      dup1\n        /* \"#utility.yul\":5350:5356   */\n      0x00\n        /* \"#utility.yul\":5358:5364   */\n      dup1\n        /* \"#utility.yul\":5366:5372   */\n      0x00\n        /* \"#utility.yul\":5374:5380   */\n      dup1\n        /* \"#utility.yul\":5382:5388   */\n      0x00\n        /* \"#utility.yul\":5390:5396   */\n      dup1\n        /* \"#utility.yul\":5439:5442   */\n      0xa0\n        /* \"#utility.yul\":5427:5436   */\n      dup10\n        /* \"#utility.yul\":5418:5425   */\n      dup12\n        /* \"#utility.yul\":5414:5437   */\n      sub\n        /* \"#utility.yul\":5410:5443   */\n      slt\n        /* \"#utility.yul\":5407:5527   */\n      iszero\n      tag_275\n      jumpi\n        /* \"#utility.yul\":5446:5525   */\n      tag_276\n      tag_141\n      jump\t// in\n    tag_276:\n        /* \"#utility.yul\":5407:5527   */\n    tag_275:\n        /* \"#utility.yul\":5566:5567   */\n      0x00\n        /* \"#utility.yul\":5591:5644   */\n      tag_277\n        /* \"#utility.yul\":5636:5643   */\n      dup12\n        /* \"#utility.yul\":5627:5633   */\n      dup3\n        /* \"#utility.yul\":5616:5625   */\n      dup13\n        /* \"#utility.yul\":5612:5634   */\n      add\n        /* \"#utility.yul\":5591:5644   */\n      tag_157\n      jump\t// in\n    tag_277:\n        /* \"#utility.yul\":5581:5644   */\n      swap9\n      pop\n        /* \"#utility.yul\":5537:5654   */\n      pop\n        /* \"#utility.yul\":5693:5695   */\n      0x20\n        /* \"#utility.yul\":5719:5772   */\n      tag_278\n        /* \"#utility.yul\":5764:5771   */\n      dup12\n        /* \"#utility.yul\":5755:5761   */\n      dup3\n        /* \"#utility.yul\":5744:5753   */\n      dup13\n        /* \"#utility.yul\":5740:5762   */\n      add\n        /* \"#utility.yul\":5719:5772   */\n      tag_159\n      jump\t// in\n    tag_278:\n        /* \"#utility.yul\":5709:5772   */\n      swap8\n      pop\n        /* \"#utility.yul\":5664:5782   */\n      pop\n        /* \"#utility.yul\":5849:5851   */\n      0x40\n        /* \"#utility.yul\":5838:5847   */\n      dup10\n        /* \"#utility.yul\":5834:5852   */\n      add\n        /* \"#utility.yul\":5821:5853   */\n      calldataload\n        /* \"#utility.yul\":5880:5898   */\n      0xffffffffffffffff\n        /* \"#utility.yul\":5872:5878   */\n      dup2\n        /* \"#utility.yul\":5869:5899   */\n      gt\n        /* \"#utility.yul\":5866:5983   */\n      iszero\n      tag_279\n      jumpi\n        /* \"#utility.yul\":5902:5981   */\n      tag_280\n      tag_142\n      jump\t// in\n    tag_280:\n        /* \"#utility.yul\":5866:5983   */\n    tag_279:\n        /* \"#utility.yul\":6015:6080   */\n      tag_281\n        /* \"#utility.yul\":6072:6079   */\n      dup12\n        /* \"#utility.yul\":6063:6069   */\n      dup3\n        /* \"#utility.yul\":6052:6061   */\n      dup13\n        /* \"#utility.yul\":6048:6070   */\n      add\n        /* \"#utility.yul\":6015:6080   */\n      tag_163\n      jump\t// in\n    tag_281:\n        /* \"#utility.yul\":5997:6080   */\n      swap7\n      pop\n      swap7\n      pop\n        /* \"#utility.yul\":5792:6090   */\n      pop\n        /* \"#utility.yul\":6157:6159   */\n      0x60\n        /* \"#utility.yul\":6146:6155   */\n      dup10\n        /* \"#utility.yul\":6142:6160   */\n      add\n        /* \"#utility.yul\":6129:6161   */\n      calldataload\n        /* \"#utility.yul\":6188:6206   */\n      0xffffffffffffffff\n        /* \"#utility.yul\":6180:6186   */\n      dup2\n        /* \"#utility.yul\":6177:6207   */\n      gt\n        /* \"#utility.yul\":6174:6291   */\n      iszero\n      tag_282\n      jumpi\n        /* \"#utility.yul\":6210:6289   */\n      tag_283\n      tag_142\n      jump\t// in\n    tag_283:\n        /* \"#utility.yul\":6174:6291   */\n    tag_282:\n        /* \"#utility.yul\":6323:6387   */\n      tag_284\n        /* \"#utility.yul\":6379:6386   */\n      dup12\n        /* \"#utility.yul\":6370:6376   */\n      dup3\n        /* \"#utility.yul\":6359:6368   */\n      dup13\n        /* \"#utility.yul\":6355:6377   */\n      add\n        /* \"#utility.yul\":6323:6387   */\n      tag_164\n      jump\t// in\n    tag_284:\n        /* \"#utility.yul\":6305:6387   */\n      swap5\n      pop\n      swap5\n      pop\n        /* \"#utility.yul\":6100:6397   */\n      pop\n        /* \"#utility.yul\":6464:6467   */\n      0x80\n        /* \"#utility.yul\":6453:6462   */\n      dup10\n        /* \"#utility.yul\":6449:6468   */\n      add\n        /* \"#utility.yul\":6436:6469   */\n      calldataload\n        /* \"#utility.yul\":6496:6514   */\n      0xffffffffffffffff\n        /* \"#utility.yul\":6488:6494   */\n      dup2\n        /* \"#utility.yul\":6485:6515   */\n      gt\n        /* \"#utility.yul\":6482:6599   */\n      iszero\n      tag_285\n      jumpi\n        /* \"#utility.yul\":6518:6597   */\n      tag_286\n      tag_142\n      jump\t// in\n    tag_286:\n        /* \"#utility.yul\":6482:6599   */\n    tag_285:\n        /* \"#utility.yul\":6631:6696   */\n      tag_287\n        /* \"#utility.yul\":6688:6695   */\n      dup12\n        /* \"#utility.yul\":6679:6685   */\n      dup3\n        /* \"#utility.yul\":6668:6677   */\n      dup13\n        /* \"#utility.yul\":6664:6686   */\n      add\n        /* \"#utility.yul\":6631:6696   */\n      tag_163\n      jump\t// in\n    tag_287:\n        /* \"#utility.yul\":6613:6696   */\n      swap3\n      pop\n      swap3\n      pop\n        /* \"#utility.yul\":6407:6706   */\n      pop\n        /* \"#utility.yul\":5204:6713   */\n      swap3\n      swap6\n      swap9\n      pop\n      swap3\n      swap6\n      swap9\n      swap1\n      swap4\n      swap7\n      pop\n      jump\t// out\n        /* \"#utility.yul\":6719:6837   */\n    tag_165:\n        /* \"#utility.yul\":6806:6830   */\n      tag_289\n        /* \"#utility.yul\":6824:6829   */\n      dup2\n        /* \"#utility.yul\":6806:6830   */\n      tag_143\n      jump\t// in\n    tag_289:\n        /* \"#utility.yul\":6801:6804   */\n      dup3\n        /* \"#utility.yul\":6794:6831   */\n      mstore\n        /* \"#utility.yul\":6719:6837   */\n      pop\n      pop\n      jump\t// out\n        /* \"#utility.yul\":6843:7065   */\n    tag_29:\n        /* \"#utility.yul\":6936:6940   */\n      0x00\n        /* \"#utility.yul\":6974:6976   */\n      0x20\n        /* \"#utility.yul\":6963:6972   */\n      dup3\n        /* \"#utility.yul\":6959:6977   */\n      add\n        /* \"#utility.yul\":6951:6977   */\n      swap1\n      pop\n        /* \"#utility.yul\":6987:7058   */\n      tag_291\n        /* \"#utility.yul\":7055:7056   */\n      0x00\n        /* \"#utility.yul\":7044:7053   */\n      dup4\n        /* \"#utility.yul\":7040:7057   */\n      add\n        /* \"#utility.yul\":7031:7037   */\n      dup5\n        /* \"#utility.yul\":6987:7058   */\n      tag_165\n      jump\t// in\n    tag_291:\n        /* \"#utility.yul\":6843:7065   */\n      swap3\n      swap2\n      pop\n      pop\n      jump\t// out\n        /* \"#utility.yul\":7071:7293   */\n    tag_33:\n        /* \"#utility.yul\":7164:7168   */\n      0x00\n        /* \"#utility.yul\":7202:7204   */\n      0x20\n        /* \"#utility.yul\":7191:7200   */\n      dup3\n        /* \"#utility.yul\":7187:7205   */\n      add\n        /* \"#utility.yul\":7179:7205   */\n      swap1\n      pop\n        /* \"#utility.yul\":7215:7286   */\n      tag_293\n        /* \"#utility.yul\":7283:7284   */\n      0x00\n        /* \"#utility.yul\":7272:7281   */\n      dup4\n        /* \"#utility.yul\":7268:7285   */\n      add\n        /* \"#utility.yul\":7259:7265   */\n      dup5\n        /* \"#utility.yul\":7215:7286   */\n      tag_147\n      jump\t// in\n    tag_293:\n        /* \"#utility.yul\":7071:7293   */\n      swap3\n      swap2\n      pop\n      pop\n      jump\t// out\n        /* \"#utility.yul\":7299:8608   */\n    tag_36:\n        /* \"#utility.yul\":7417:7423   */\n      0x00\n        /* \"#utility.yul\":7425:7431   */\n      dup1\n        /* \"#utility.yul\":7433:7439   */\n      0x00\n        /* \"#utility.yul\":7441:7447   */\n      dup1\n        /* \"#utility.yul\":7449:7455   */\n      0x00\n        /* \"#utility.yul\":7457:7463   */\n      dup1\n        /* \"#utility.yul\":7465:7471   */\n      0x00\n        /* \"#utility.yul\":7514:7517   */\n      0xa0\n        /* \"#utility.yul\":7502:7511   */\n      dup9\n        /* \"#utility.yul\":7493:7500   */\n      dup11\n        /* \"#utility.yul\":7489:7512   */\n      sub\n        /* \"#utility.yul\":7485:7518   */\n      slt\n        /* \"#utility.yul\":7482:7602   */\n      iszero\n      tag_295\n      jumpi\n        /* \"#utility.yul\":7521:7600   */\n      tag_296\n      tag_141\n      jump\t// in\n    tag_296:\n        /* \"#utility.yul\":7482:7602   */\n    tag_295:\n        /* \"#utility.yul\":7641:7642   */\n      0x00\n        /* \"#utility.yul\":7666:7719   */\n      tag_297\n        /* \"#utility.yul\":7711:7718   */\n      dup11\n        /* \"#utility.yul\":7702:7708   */\n      dup3\n        /* \"#utility.yul\":7691:7700   */\n      dup12\n        /* \"#utility.yul\":7687:7709   */\n      add\n        /* \"#utility.yul\":7666:7719   */\n      tag_157\n      jump\t// in\n    tag_297:\n        /* \"#utility.yul\":7656:7719   */\n      swap8\n      pop\n        /* \"#utility.yul\":7612:7729   */\n      pop\n        /* \"#utility.yul\":7768:7770   */\n      0x20\n        /* \"#utility.yul\":7794:7847   */\n      tag_298\n        /* \"#utility.yul\":7839:7846   */\n      dup11\n        /* \"#utility.yul\":7830:7836   */\n      dup3\n        /* \"#utility.yul\":7819:7828   */\n      dup12\n        /* \"#utility.yul\":7815:7837   */\n      add\n        /* \"#utility.yul\":7794:7847   */\n      tag_159\n      jump\t// in\n    tag_298:\n        /* \"#utility.yul\":7784:7847   */\n      swap7\n      pop\n        /* \"#utility.yul\":7739:7857   */\n      pop\n        /* \"#utility.yul\":7924:7926   */\n      0x40\n        /* \"#utility.yul\":7913:7922   */\n      dup9\n        /* \"#utility.yul\":7909:7927   */\n      add\n        /* \"#utility.yul\":7896:7928   */\n      calldataload\n        /* \"#utility.yul\":7955:7973   */\n      0xffffffffffffffff\n        /* \"#utility.yul\":7947:7953   */\n      dup2\n        /* \"#utility.yul\":7944:7974   */\n      gt\n        /* \"#utility.yul\":7941:8058   */\n      iszero\n      tag_299\n      jumpi\n        /* \"#utility.yul\":7977:8056   */\n      tag_300\n      tag_142\n      jump\t// in\n    tag_300:\n        /* \"#utility.yul\":7941:8058   */\n    tag_299:\n        /* \"#utility.yul\":8090:8155   */\n      tag_301\n        /* \"#utility.yul\":8147:8154   */\n      dup11\n        /* \"#utility.yul\":8138:8144   */\n      dup3\n        /* \"#utility.yul\":8127:8136   */\n      dup12\n        /* \"#utility.yul\":8123:8145   */\n      add\n        /* \"#utility.yul\":8090:8155   */\n      tag_163\n      jump\t// in\n    tag_301:\n        /* \"#utility.yul\":8072:8155   */\n      swap6\n      pop\n      swap6\n      pop\n        /* \"#utility.yul\":7867:8165   */\n      pop\n        /* \"#utility.yul\":8232:8234   */\n      0x60\n        /* \"#utility.yul\":8221:8230   */\n      dup9\n        /* \"#utility.yul\":8217:8235   */\n      add\n        /* \"#utility.yul\":8204:8236   */\n      calldataload\n        /* \"#utility.yul\":8263:8281   */\n      0xffffffffffffffff\n        /* \"#utility.yul\":8255:8261   */\n      dup2\n        /* \"#utility.yul\":8252:8282   */\n      gt\n        /* \"#utility.yul\":8249:8366   */\n      iszero\n      tag_302\n      jumpi\n        /* \"#utility.yul\":8285:8364   */\n      tag_303\n      tag_142\n      jump\t// in\n    tag_303:\n        /* \"#utility.yul\":8249:8366   */\n    tag_302:\n        /* \"#utility.yul\":8398:8462   */\n      tag_304\n        /* \"#utility.yul\":8454:8461   */\n      dup11\n        /* \"#utility.yul\":8445:8451   */\n      dup3\n        /* \"#utility.yul\":8434:8443   */\n      dup12\n        /* \"#utility.yul\":8430:8452   */\n      add\n        /* \"#utility.yul\":8398:8462   */\n      tag_164\n      jump\t// in\n    tag_304:\n        /* \"#utility.yul\":8380:8462   */\n      swap4\n      pop\n      swap4\n      pop\n        /* \"#utility.yul\":8175:8472   */\n      pop\n        /* \"#utility.yul\":8511:8514   */\n      0x80\n        /* \"#utility.yul\":8538:8591   */\n      tag_305\n        /* \"#utility.yul\":8583:8590   */\n      dup11\n        /* \"#utility.yul\":8574:8580   */\n      dup3\n        /* \"#utility.yul\":8563:8572   */\n      dup12\n        /* \"#utility.yul\":8559:8581   */\n      add\n        /* \"#utility.yul\":8538:8591   */\n      tag_145\n      jump\t// in\n    tag_305:\n        /* \"#utility.yul\":8528:8591   */\n      swap2\n      pop\n        /* \"#utility.yul\":8482:8601   */\n      pop\n        /* \"#utility.yul\":7299:8608   */\n      swap3\n      swap6\n      swap9\n      swap2\n      swap5\n      swap8\n      pop\n      swap3\n      swap6\n      pop\n      jump\t// out\n        /* \"#utility.yul\":8614:8712   */\n    tag_166:\n        /* \"#utility.yul\":8665:8671   */\n      0x00\n        /* \"#utility.yul\":8699:8704   */\n      dup2\n        /* \"#utility.yul\":8693:8705   */\n      mload\n        /* \"#utility.yul\":8683:8705   */\n      swap1\n      pop\n        /* \"#utility.yul\":8614:8712   */\n      swap2\n      swap1\n      pop\n      jump\t// out\n        /* \"#utility.yul\":8718:8886   */\n    tag_167:\n        /* \"#utility.yul\":8801:8812   */\n      0x00\n        /* \"#utility.yul\":8835:8841   */\n      dup3\n        /* \"#utility.yul\":8830:8833   */\n      dup3\n        /* \"#utility.yul\":8823:8842   */\n      mstore\n        /* \"#utility.yul\":8875:8879   */\n      0x20\n        /* \"#utility.yul\":8870:8873   */\n      dup3\n        /* \"#utility.yul\":8866:8880   */\n      add\n        /* \"#utility.yul\":8851:8880   */\n      swap1\n      pop\n        /* \"#utility.yul\":8718:8886   */\n      swap3\n      swap2\n      pop\n      pop\n      jump\t// out\n        /* \"#utility.yul\":8892:9138   */\n    tag_168:\n        /* \"#utility.yul\":8973:8974   */\n      0x00\n        /* \"#utility.yul\":8983:9096   */\n    tag_309:\n        /* \"#utility.yul\":8997:9003   */\n      dup4\n        /* \"#utility.yul\":8994:8995   */\n      dup2\n        /* \"#utility.yul\":8991:9004   */\n      lt\n        /* \"#utility.yul\":8983:9096   */\n      iszero\n      tag_311\n      jumpi\n        /* \"#utility.yul\":9082:9083   */\n      dup1\n        /* \"#utility.yul\":9077:9080   */\n      dup3\n        /* \"#utility.yul\":9073:9084   */\n      add\n        /* \"#utility.yul\":9067:9085   */\n      mload\n        /* \"#utility.yul\":9063:9064   */\n      dup2\n        /* \"#utility.yul\":9058:9061   */\n      dup5\n        /* \"#utility.yul\":9054:9065   */\n      add\n        /* \"#utility.yul\":9047:9086   */\n      mstore\n        /* \"#utility.yul\":9019:9021   */\n      0x20\n        /* \"#utility.yul\":9016:9017   */\n      dup2\n        /* \"#utility.yul\":9012:9022   */\n      add\n        /* \"#utility.yul\":9007:9022   */\n      swap1\n      pop\n        /* \"#utility.yul\":8983:9096   */\n      jump(tag_309)\n    tag_311:\n        /* \"#utility.yul\":9130:9131   */\n      0x00\n        /* \"#utility.yul\":9121:9127   */\n      dup5\n        /* \"#utility.yul\":9116:9119   */\n      dup5\n        /* \"#utility.yul\":9112:9128   */\n      add\n        /* \"#utility.yul\":9105:9132   */\n      mstore\n        /* \"#utility.yul\":8954:9138   */\n      pop\n        /* \"#utility.yul\":8892:9138   */\n      pop\n      pop\n      pop\n      jump\t// out\n        /* \"#utility.yul\":9144:9246   */\n    tag_169:\n        /* \"#utility.yul\":9185:9191   */\n      0x00\n        /* \"#utility.yul\":9236:9238   */\n      0x1f\n        /* \"#utility.yul\":9232:9239   */\n      not\n        /* \"#utility.yul\":9227:9229   */\n      0x1f\n        /* \"#utility.yul\":9220:9225   */\n      dup4\n        /* \"#utility.yul\":9216:9230   */\n      add\n        /* \"#utility.yul\":9212:9240   */\n      and\n        /* \"#utility.yul\":9202:9240   */\n      swap1\n      pop\n        /* \"#utility.yul\":9144:9246   */\n      swap2\n      swap1\n      pop\n      jump\t// out\n        /* \"#utility.yul\":9252:9625   */\n    tag_170:\n        /* \"#utility.yul\":9338:9341   */\n      0x00\n        /* \"#utility.yul\":9366:9404   */\n      tag_314\n        /* \"#utility.yul\":9398:9403   */\n      dup3\n        /* \"#utility.yul\":9366:9404   */\n      tag_166\n      jump\t// in\n    tag_314:\n        /* \"#utility.yul\":9420:9490   */\n      tag_315\n        /* \"#utility.yul\":9483:9489   */\n      dup2\n        /* \"#utility.yul\":9478:9481   */\n      dup6\n        /* \"#utility.yul\":9420:9490   */\n      tag_167\n      jump\t// in\n    tag_315:\n        /* \"#utility.yul\":9413:9490   */\n      swap4\n      pop\n        /* \"#utility.yul\":9499:9564   */\n      tag_316\n        /* \"#utility.yul\":9557:9563   */\n      dup2\n        /* \"#utility.yul\":9552:9555   */\n      dup6\n        /* \"#utility.yul\":9545:9549   */\n      0x20\n        /* \"#utility.yul\":9538:9543   */\n      dup7\n        /* \"#utility.yul\":9534:9550   */\n      add\n        /* \"#utility.yul\":9499:9564   */\n      tag_168\n      jump\t// in\n    tag_316:\n        /* \"#utility.yul\":9589:9618   */\n      tag_317\n        /* \"#utility.yul\":9611:9617   */\n      dup2\n        /* \"#utility.yul\":9589:9618   */\n      tag_169\n      jump\t// in\n    tag_317:\n        /* \"#utility.yul\":9584:9587   */\n      dup5\n        /* \"#utility.yul\":9580:9619   */\n      add\n        /* \"#utility.yul\":9573:9619   */\n      swap2\n      pop\n        /* \"#utility.yul\":9342:9625   */\n      pop\n        /* \"#utility.yul\":9252:9625   */\n      swap3\n      swap2\n      pop\n      pop\n      jump\t// out\n        /* \"#utility.yul\":9631:9940   */\n    tag_39:\n        /* \"#utility.yul\":9742:9746   */\n      0x00\n        /* \"#utility.yul\":9780:9782   */\n      0x20\n        /* \"#utility.yul\":9769:9778   */\n      dup3\n        /* \"#utility.yul\":9765:9783   */\n      add\n        /* \"#utility.yul\":9757:9783   */\n      swap1\n      pop\n        /* \"#utility.yul\":9829:9838   */\n      dup2\n        /* \"#utility.yul\":9823:9827   */\n      dup2\n        /* \"#utility.yul\":9819:9839   */\n      sub\n        /* \"#utility.yul\":9815:9816   */\n      0x00\n        /* \"#utility.yul\":9804:9813   */\n      dup4\n        /* \"#utility.yul\":9800:9817   */\n      add\n        /* \"#utility.yul\":9793:9840   */\n      mstore\n        /* \"#utility.yul\":9857:9933   */\n      tag_319\n        /* \"#utility.yul\":9928:9932   */\n      dup2\n        /* \"#utility.yul\":9919:9925   */\n      dup5\n        /* \"#utility.yul\":9857:9933   */\n      tag_170\n      jump\t// in\n    tag_319:\n        /* \"#utility.yul\":9849:9933   */\n      swap1\n      pop\n        /* \"#utility.yul\":9631:9940   */\n      swap3\n      swap2\n      pop\n      pop\n      jump\t// out\n        /* \"#utility.yul\":9946:10032   */\n    tag_171:\n        /* \"#utility.yul\":9981:9988   */\n      0x00\n        /* \"#utility.yul\":10021:10025   */\n      0xff\n        /* \"#utility.yul\":10014:10019   */\n      dup3\n        /* \"#utility.yul\":10010:10026   */\n      and\n        /* \"#utility.yul\":9999:10026   */\n      swap1\n      pop\n        /* \"#utility.yul\":9946:10032   */\n      swap2\n      swap1\n      pop\n      jump\t// out\n        /* \"#utility.yul\":10038:10156   */\n    tag_172:\n        /* \"#utility.yul\":10109:10131   */\n      tag_322\n        /* \"#utility.yul\":10125:10130   */\n      dup2\n        /* \"#utility.yul\":10109:10131   */\n      tag_171\n      jump\t// in\n    tag_322:\n        /* \"#utility.yul\":10102:10107   */\n      dup2\n        /* \"#utility.yul\":10099:10132   */\n      eq\n        /* \"#utility.yul\":10089:10150   */\n      tag_323\n      jumpi\n        /* \"#utility.yul\":10146:10147   */\n      0x00\n        /* \"#utility.yul\":10143:10144   */\n      dup1\n        /* \"#utility.yul\":10136:10148   */\n      revert\n        /* \"#utility.yul\":10089:10150   */\n    tag_323:\n        /* \"#utility.yul\":10038:10156   */\n      pop\n      jump\t// out\n        /* \"#utility.yul\":10162:10297   */\n    tag_173:\n        /* \"#utility.yul\":10206:10211   */\n      0x00\n        /* \"#utility.yul\":10244:10250   */\n      dup2\n        /* \"#utility.yul\":10231:10251   */\n      calldataload\n        /* \"#utility.yul\":10222:10251   */\n      swap1\n      pop\n        /* \"#utility.yul\":10260:10291   */\n      tag_325\n        /* \"#utility.yul\":10285:10290   */\n      dup2\n        /* \"#utility.yul\":10260:10291   */\n      tag_172\n      jump\t// in\n    tag_325:\n        /* \"#utility.yul\":10162:10297   */\n      swap3\n      swap2\n      pop\n      pop\n      jump\t// out\n        /* \"#utility.yul\":10303:10773   */\n    tag_42:\n        /* \"#utility.yul\":10369:10375   */\n      0x00\n        /* \"#utility.yul\":10377:10383   */\n      dup1\n        /* \"#utility.yul\":10426:10428   */\n      0x40\n        /* \"#utility.yul\":10414:10423   */\n      dup4\n        /* \"#utility.yul\":10405:10412   */\n      dup6\n        /* \"#utility.yul\":10401:10424   */\n      sub\n        /* \"#utility.yul\":10397:10429   */\n      slt\n        /* \"#utility.yul\":10394:10513   */\n      iszero\n      tag_327\n      jumpi\n        /* \"#utility.yul\":10432:10511   */\n      tag_328\n      tag_141\n      jump\t// in\n    tag_328:\n        /* \"#utility.yul\":10394:10513   */\n    tag_327:\n        /* \"#utility.yul\":10552:10553   */\n      0x00\n        /* \"#utility.yul\":10577:10630   */\n      tag_329\n        /* \"#utility.yul\":10622:10629   */\n      dup6\n        /* \"#utility.yul\":10613:10619   */\n      dup3\n        /* \"#utility.yul\":10602:10611   */\n      dup7\n        /* \"#utility.yul\":10598:10620   */\n      add\n        /* \"#utility.yul\":10577:10630   */\n      tag_145\n      jump\t// in\n    tag_329:\n        /* \"#utility.yul\":10567:10630   */\n      swap3\n      pop\n        /* \"#utility.yul\":10523:10640   */\n      pop\n        /* \"#utility.yul\":10679:10681   */\n      0x20\n        /* \"#utility.yul\":10705:10756   */\n      tag_330\n        /* \"#utility.yul\":10748:10755   */\n      dup6\n        /* \"#utility.yul\":10739:10745   */\n      dup3\n        /* \"#utility.yul\":10728:10737   */\n      dup7\n        /* \"#utility.yul\":10724:10746   */\n      add\n        /* \"#utility.yul\":10705:10756   */\n      tag_173\n      jump\t// in\n    tag_330:\n        /* \"#utility.yul\":10695:10756   */\n      swap2\n      pop\n        /* \"#utility.yul\":10650:10766   */\n      pop\n        /* \"#utility.yul\":10303:10773   */\n      swap3\n      pop\n      swap3\n      swap1\n      pop\n      jump\t// out\n        /* \"#utility.yul\":10779:11221   */\n    tag_48:\n        /* \"#utility.yul\":10928:10932   */\n      0x00\n        /* \"#utility.yul\":10966:10968   */\n      0x60\n        /* \"#utility.yul\":10955:10964   */\n      dup3\n        /* \"#utility.yul\":10951:10969   */\n      add\n        /* \"#utility.yul\":10943:10969   */\n      swap1\n      pop\n        /* \"#utility.yul\":10979:11050   */\n      tag_332\n        /* \"#utility.yul\":11047:11048   */\n      0x00\n        /* \"#utility.yul\":11036:11045   */\n      dup4\n        /* \"#utility.yul\":11032:11049   */\n      add\n        /* \"#utility.yul\":11023:11029   */\n      dup7\n        /* \"#utility.yul\":10979:11050   */\n      tag_147\n      jump\t// in\n    tag_332:\n        /* \"#utility.yul\":11060:11132   */\n      tag_333\n        /* \"#utility.yul\":11128:11130   */\n      0x20\n        /* \"#utility.yul\":11117:11126   */\n      dup4\n        /* \"#utility.yul\":11113:11131   */\n      add\n        /* \"#utility.yul\":11104:11110   */\n      dup6\n        /* \"#utility.yul\":11060:11132   */\n      tag_147\n      jump\t// in\n    tag_333:\n        /* \"#utility.yul\":11142:11214   */\n      tag_334\n        /* \"#utility.yul\":11210:11212   */\n      0x40\n        /* \"#utility.yul\":11199:11208   */\n      dup4\n        /* \"#utility.yul\":11195:11213   */\n      add\n        /* \"#utility.yul\":11186:11192   */\n      dup5\n        /* \"#utility.yul\":11142:11214   */\n      tag_147\n      jump\t// in\n    tag_334:\n        /* \"#utility.yul\":10779:11221   */\n      swap5\n      swap4\n      pop\n      pop\n      pop\n      pop\n      jump\t// out\n        /* \"#utility.yul\":11227:11287   */\n    tag_174:\n        /* \"#utility.yul\":11255:11258   */\n      0x00\n        /* \"#utility.yul\":11276:11281   */\n      dup2\n        /* \"#utility.yul\":11269:11281   */\n      swap1\n      pop\n        /* \"#utility.yul\":11227:11287   */\n      swap2\n      swap1\n      pop\n      jump\t// out\n        /* \"#utility.yul\":11293:11435   */\n    tag_175:\n        /* \"#utility.yul\":11343:11352   */\n      0x00\n        /* \"#utility.yul\":11376:11429   */\n      tag_337\n        /* \"#utility.yul\":11394:11428   */\n      tag_338\n        /* \"#utility.yul\":11403:11427   */\n      tag_339\n        /* \"#utility.yul\":11421:11426   */\n      dup5\n        /* \"#utility.yul\":11403:11427   */\n      tag_154\n      jump\t// in\n    tag_339:\n        /* \"#utility.yul\":11394:11428   */\n      tag_174\n      jump\t// in\n    tag_338:\n        /* \"#utility.yul\":11376:11429   */\n      tag_154\n      jump\t// in\n    tag_337:\n        /* \"#utility.yul\":11363:11429   */\n      swap1\n      pop\n        /* \"#utility.yul\":11293:11435   */\n      swap2\n      swap1\n      pop\n      jump\t// out\n        /* \"#utility.yul\":11441:11567   */\n    tag_176:\n        /* \"#utility.yul\":11491:11500   */\n      0x00\n        /* \"#utility.yul\":11524:11561   */\n      tag_341\n        /* \"#utility.yul\":11555:11560   */\n      dup3\n        /* \"#utility.yul\":11524:11561   */\n      tag_175\n      jump\t// in\n    tag_341:\n        /* \"#utility.yul\":11511:11561   */\n      swap1\n      pop\n        /* \"#utility.yul\":11441:11567   */\n      swap2\n      swap1\n      pop\n      jump\t// out\n        /* \"#utility.yul\":11573:11713   */\n    tag_177:\n        /* \"#utility.yul\":11637:11646   */\n      0x00\n        /* \"#utility.yul\":11670:11707   */\n      tag_343\n        /* \"#utility.yul\":11701:11706   */\n      dup3\n        /* \"#utility.yul\":11670:11707   */\n      tag_176\n      jump\t// in\n    tag_343:\n        /* \"#utility.yul\":11657:11707   */\n      swap1\n      pop\n        /* \"#utility.yul\":11573:11713   */\n      swap2\n      swap1\n      pop\n      jump\t// out\n        /* \"#utility.yul\":11719:11878   */\n    tag_178:\n        /* \"#utility.yul\":11820:11871   */\n      tag_345\n        /* \"#utility.yul\":11865:11870   */\n      dup2\n        /* \"#utility.yul\":11820:11871   */\n      tag_177\n      jump\t// in\n    tag_345:\n        /* \"#utility.yul\":11815:11818   */\n      dup3\n        /* \"#utility.yul\":11808:11872   */\n      mstore\n        /* \"#utility.yul\":11719:11878   */\n      pop\n      pop\n      jump\t// out\n        /* \"#utility.yul\":11884:12134   */\n    tag_55:\n        /* \"#utility.yul\":11991:11995   */\n      0x00\n        /* \"#utility.yul\":12029:12031   */\n      0x20\n        /* \"#utility.yul\":12018:12027   */\n      dup3\n        /* \"#utility.yul\":12014:12032   */\n      add\n        /* \"#utility.yul\":12006:12032   */\n      swap1\n      pop\n        /* \"#utility.yul\":12042:12127   */\n      tag_347\n        /* \"#utility.yul\":12124:12125   */\n      0x00\n        /* \"#utility.yul\":12113:12122   */\n      dup4\n        /* \"#utility.yul\":12109:12126   */\n      add\n        /* \"#utility.yul\":12100:12106   */\n      dup5\n        /* \"#utility.yul\":12042:12127   */\n      tag_178\n      jump\t// in\n    tag_347:\n        /* \"#utility.yul\":11884:12134   */\n      swap3\n      swap2\n      pop\n      pop\n      jump\t// out\n        /* \"#utility.yul\":12140:12309   */\n    tag_179:\n        /* \"#utility.yul\":12224:12235   */\n      0x00\n        /* \"#utility.yul\":12258:12264   */\n      dup3\n        /* \"#utility.yul\":12253:12256   */\n      dup3\n        /* \"#utility.yul\":12246:12265   */\n      mstore\n        /* \"#utility.yul\":12298:12302   */\n      0x20\n        /* \"#utility.yul\":12293:12296   */\n      dup3\n        /* \"#utility.yul\":12289:12303   */\n      add\n        /* \"#utility.yul\":12274:12303   */\n      swap1\n      pop\n        /* \"#utility.yul\":12140:12309   */\n      swap3\n      swap2\n      pop\n      pop\n      jump\t// out\n        /* \"#utility.yul\":12315:12488   */\n    tag_180:\n        /* \"#utility.yul\":12455:12480   */\n      0x70726f706f73616c20646f6573656e2774206578697374000000000000000000\n        /* \"#utility.yul\":12451:12452   */\n      0x00\n        /* \"#utility.yul\":12443:12449   */\n      dup3\n        /* \"#utility.yul\":12439:12453   */\n      add\n        /* \"#utility.yul\":12432:12481   */\n      mstore\n        /* \"#utility.yul\":12315:12488   */\n      pop\n      jump\t// out\n        /* \"#utility.yul\":12494:12860   */\n    tag_181:\n        /* \"#utility.yul\":12636:12639   */\n      0x00\n        /* \"#utility.yul\":12657:12724   */\n      tag_351\n        /* \"#utility.yul\":12721:12723   */\n      0x17\n        /* \"#utility.yul\":12716:12719   */\n      dup4\n        /* \"#utility.yul\":12657:12724   */\n      tag_179\n      jump\t// in\n    tag_351:\n        /* \"#utility.yul\":12650:12724   */\n      swap2\n      pop\n        /* \"#utility.yul\":12733:12826   */\n      tag_352\n        /* \"#utility.yul\":12822:12825   */\n      dup3\n        /* \"#utility.yul\":12733:12826   */\n      tag_180\n      jump\t// in\n    tag_352:\n        /* \"#utility.yul\":12851:12853   */\n      0x20\n        /* \"#utility.yul\":12846:12849   */\n      dup3\n        /* \"#utility.yul\":12842:12854   */\n      add\n        /* \"#utility.yul\":12835:12854   */\n      swap1\n      pop\n        /* \"#utility.yul\":12494:12860   */\n      swap2\n      swap1\n      pop\n      jump\t// out\n        /* \"#utility.yul\":12866:13285   */\n    tag_59:\n        /* \"#utility.yul\":13032:13036   */\n      0x00\n        /* \"#utility.yul\":13070:13072   */\n      0x20\n        /* \"#utility.yul\":13059:13068   */\n      dup3\n        /* \"#utility.yul\":13055:13073   */\n      add\n        /* \"#utility.yul\":13047:13073   */\n      swap1\n      pop\n        /* \"#utility.yul\":13119:13128   */\n      dup2\n        /* \"#utility.yul\":13113:13117   */\n      dup2\n        /* \"#utility.yul\":13109:13129   */\n      sub\n        /* \"#utility.yul\":13105:13106   */\n      0x00\n        /* \"#utility.yul\":13094:13103   */\n      dup4\n        /* \"#utility.yul\":13090:13107   */\n      add\n        /* \"#utility.yul\":13083:13130   */\n      mstore\n        /* \"#utility.yul\":13147:13278   */\n      tag_354\n        /* \"#utility.yul\":13273:13277   */\n      dup2\n        /* \"#utility.yul\":13147:13278   */\n      tag_181\n      jump\t// in\n    tag_354:\n        /* \"#utility.yul\":13139:13278   */\n      swap1\n      pop\n        /* \"#utility.yul\":12866:13285   */\n      swap2\n      swap1\n      pop\n      jump\t// out\n        /* \"#utility.yul\":13291:13409   */\n    tag_182:\n        /* \"#utility.yul\":13378:13402   */\n      tag_356\n        /* \"#utility.yul\":13396:13401   */\n      dup2\n        /* \"#utility.yul\":13378:13402   */\n      tag_155\n      jump\t// in\n    tag_356:\n        /* \"#utility.yul\":13373:13376   */\n      dup3\n        /* \"#utility.yul\":13366:13403   */\n      mstore\n        /* \"#utility.yul\":13291:13409   */\n      pop\n      pop\n      jump\t// out\n        /* \"#utility.yul\":13415:13637   */\n    tag_68:\n        /* \"#utility.yul\":13508:13512   */\n      0x00\n        /* \"#utility.yul\":13546:13548   */\n      0x20\n        /* \"#utility.yul\":13535:13544   */\n      dup3\n        /* \"#utility.yul\":13531:13549   */\n      add\n        /* \"#utility.yul\":13523:13549   */\n      swap1\n      pop\n        /* \"#utility.yul\":13559:13630   */\n      tag_358\n        /* \"#utility.yul\":13627:13628   */\n      0x00\n        /* \"#utility.yul\":13616:13625   */\n      dup4\n        /* \"#utility.yul\":13612:13629   */\n      add\n        /* \"#utility.yul\":13603:13609   */\n      dup5\n        /* \"#utility.yul\":13559:13630   */\n      tag_182\n      jump\t// in\n    tag_358:\n        /* \"#utility.yul\":13415:13637   */\n      swap3\n      swap2\n      pop\n      pop\n      jump\t// out\n        /* \"#utility.yul\":13643:13786   */\n    tag_183:\n        /* \"#utility.yul\":13700:13705   */\n      0x00\n        /* \"#utility.yul\":13731:13737   */\n      dup2\n        /* \"#utility.yul\":13725:13738   */\n      mload\n        /* \"#utility.yul\":13716:13738   */\n      swap1\n      pop\n        /* \"#utility.yul\":13747:13780   */\n      tag_360\n        /* \"#utility.yul\":13774:13779   */\n      dup2\n        /* \"#utility.yul\":13747:13780   */\n      tag_158\n      jump\t// in\n    tag_360:\n        /* \"#utility.yul\":13643:13786   */\n      swap3\n      swap2\n      pop\n      pop\n      jump\t// out\n        /* \"#utility.yul\":13792:14143   */\n    tag_72:\n        /* \"#utility.yul\":13862:13868   */\n      0x00\n        /* \"#utility.yul\":13911:13913   */\n      0x20\n        /* \"#utility.yul\":13899:13908   */\n      dup3\n        /* \"#utility.yul\":13890:13897   */\n      dup5\n        /* \"#utility.yul\":13886:13909   */\n      sub\n        /* \"#utility.yul\":13882:13914   */\n      slt\n        /* \"#utility.yul\":13879:13998   */\n      iszero\n      tag_362\n      jumpi\n        /* \"#utility.yul\":13917:13996   */\n      tag_363\n      tag_141\n      jump\t// in\n    tag_363:\n        /* \"#utility.yul\":13879:13998   */\n    tag_362:\n        /* \"#utility.yul\":14037:14038   */\n      0x00\n        /* \"#utility.yul\":14062:14126   */\n      tag_364\n        /* \"#utility.yul\":14118:14125   */\n      dup5\n        /* \"#utility.yul\":14109:14115   */\n      dup3\n        /* \"#utility.yul\":14098:14107   */\n      dup6\n        /* \"#utility.yul\":14094:14116   */\n      add\n        /* \"#utility.yul\":14062:14126   */\n      tag_183\n      jump\t// in\n    tag_364:\n        /* \"#utility.yul\":14052:14126   */\n      swap2\n      pop\n        /* \"#utility.yul\":14008:14136   */\n      pop\n        /* \"#utility.yul\":13792:14143   */\n      swap3\n      swap2\n      pop\n      pop\n      jump\t// out\n        /* \"#utility.yul\":14149:14315   */\n    tag_184:\n        /* \"#utility.yul\":14289:14307   */\n      0x6e6f7420656e6f75676820746f6b656e00000000000000000000000000000000\n        /* \"#utility.yul\":14285:14286   */\n      0x00\n        /* \"#utility.yul\":14277:14283   */\n      dup3\n        /* \"#utility.yul\":14273:14287   */\n      add\n        /* \"#utility.yul\":14266:14308   */\n      mstore\n        /* \"#utility.yul\":14149:14315   */\n      pop\n      jump\t// out\n        /* \"#utility.yul\":14321:14687   */\n    tag_185:\n        /* \"#utility.yul\":14463:14466   */\n      0x00\n        /* \"#utility.yul\":14484:14551   */\n      tag_367\n        /* \"#utility.yul\":14548:14550   */\n      0x10\n        /* \"#utility.yul\":14543:14546   */\n      dup4\n        /* \"#utility.yul\":14484:14551   */\n      tag_179\n      jump\t// in\n    tag_367:\n        /* \"#utility.yul\":14477:14551   */\n      swap2\n      pop\n        /* \"#utility.yul\":14560:14653   */\n      tag_368\n        /* \"#utility.yul\":14649:14652   */\n      dup3\n        /* \"#utility.yul\":14560:14653   */\n      tag_184\n      jump\t// in\n    tag_368:\n        /* \"#utility.yul\":14678:14680   */\n      0x20\n        /* \"#utility.yul\":14673:14676   */\n      dup3\n        /* \"#utility.yul\":14669:14681   */\n      add\n        /* \"#utility.yul\":14662:14681   */\n      swap1\n      pop\n        /* \"#utility.yul\":14321:14687   */\n      swap2\n      swap1\n      pop\n      jump\t// out\n        /* \"#utility.yul\":14693:15112   */\n    tag_75:\n        /* \"#utility.yul\":14859:14863   */\n      0x00\n        /* \"#utility.yul\":14897:14899   */\n      0x20\n        /* \"#utility.yul\":14886:14895   */\n      dup3\n        /* \"#utility.yul\":14882:14900   */\n      add\n        /* \"#utility.yul\":14874:14900   */\n      swap1\n      pop\n        /* \"#utility.yul\":14946:14955   */\n      dup2\n        /* \"#utility.yul\":14940:14944   */\n      dup2\n        /* \"#utility.yul\":14936:14956   */\n      sub\n        /* \"#utility.yul\":14932:14933   */\n      0x00\n        /* \"#utility.yul\":14921:14930   */\n      dup4\n        /* \"#utility.yul\":14917:14934   */\n      add\n        /* \"#utility.yul\":14910:14957   */\n      mstore\n        /* \"#utility.yul\":14974:15105   */\n      tag_370\n        /* \"#utility.yul\":15100:15104   */\n      dup2\n        /* \"#utility.yul\":14974:15105   */\n      tag_185\n      jump\t// in\n    tag_370:\n        /* \"#utility.yul\":14966:15105   */\n      swap1\n      pop\n        /* \"#utility.yul\":14693:15112   */\n      swap2\n      swap1\n      pop\n      jump\t// out\n        /* \"#utility.yul\":15118:15265   */\n    tag_186:\n        /* \"#utility.yul\":15219:15230   */\n      0x00\n        /* \"#utility.yul\":15256:15259   */\n      dup2\n        /* \"#utility.yul\":15241:15259   */\n      swap1\n      pop\n        /* \"#utility.yul\":15118:15265   */\n      swap3\n      swap2\n      pop\n      pop\n      jump\t// out\n        /* \"#utility.yul\":15271:15417   */\n    tag_187:\n        /* \"#utility.yul\":15368:15374   */\n      dup3\n        /* \"#utility.yul\":15363:15366   */\n      dup2\n        /* \"#utility.yul\":15358:15361   */\n      dup4\n        /* \"#utility.yul\":15345:15375   */\n      calldatacopy\n        /* \"#utility.yul\":15409:15410   */\n      0x00\n        /* \"#utility.yul\":15400:15406   */\n      dup4\n        /* \"#utility.yul\":15395:15398   */\n      dup4\n        /* \"#utility.yul\":15391:15407   */\n      add\n        /* \"#utility.yul\":15384:15411   */\n      mstore\n        /* \"#utility.yul\":15271:15417   */\n      pop\n      pop\n      pop\n      jump\t// out\n        /* \"#utility.yul\":15445:15772   */\n    tag_188:\n        /* \"#utility.yul\":15559:15562   */\n      0x00\n        /* \"#utility.yul\":15580:15668   */\n      tag_374\n        /* \"#utility.yul\":15661:15667   */\n      dup4\n        /* \"#utility.yul\":15656:15659   */\n      dup6\n        /* \"#utility.yul\":15580:15668   */\n      tag_186\n      jump\t// in\n    tag_374:\n        /* \"#utility.yul\":15573:15668   */\n      swap4\n      pop\n        /* \"#utility.yul\":15678:15734   */\n      tag_375\n        /* \"#utility.yul\":15727:15733   */\n      dup4\n        /* \"#utility.yul\":15722:15725   */\n      dup6\n        /* \"#utility.yul\":15715:15720   */\n      dup5\n        /* \"#utility.yul\":15678:15734   */\n      tag_187\n      jump\t// in\n    tag_375:\n        /* \"#utility.yul\":15759:15765   */\n      dup3\n        /* \"#utility.yul\":15754:15757   */\n      dup5\n        /* \"#utility.yul\":15750:15766   */\n      add\n        /* \"#utility.yul\":15743:15766   */\n      swap1\n      pop\n        /* \"#utility.yul\":15445:15772   */\n      swap4\n      swap3\n      pop\n      pop\n      pop\n      jump\t// out\n        /* \"#utility.yul\":15778:16069   */\n    tag_78:\n        /* \"#utility.yul\":15918:15921   */\n      0x00\n        /* \"#utility.yul\":15940:16043   */\n      tag_377\n        /* \"#utility.yul\":16039:16042   */\n      dup3\n        /* \"#utility.yul\":16030:16036   */\n      dup5\n        /* \"#utility.yul\":16022:16028   */\n      dup7\n        /* \"#utility.yul\":15940:16043   */\n      tag_188\n      jump\t// in\n    tag_377:\n        /* \"#utility.yul\":15933:16043   */\n      swap2\n      pop\n        /* \"#utility.yul\":16060:16063   */\n      dup2\n        /* \"#utility.yul\":16053:16063   */\n      swap1\n      pop\n        /* \"#utility.yul\":15778:16069   */\n      swap4\n      swap3\n      pop\n      pop\n      pop\n      jump\t// out\n        /* \"#utility.yul\":16075:16248   */\n    tag_189:\n        /* \"#utility.yul\":16215:16240   */\n      0x70726f706f73616c20616c726561647920657869737473000000000000000000\n        /* \"#utility.yul\":16211:16212   */\n      0x00\n        /* \"#utility.yul\":16203:16209   */\n      dup3\n        /* \"#utility.yul\":16199:16213   */\n      add\n        /* \"#utility.yul\":16192:16241   */\n      mstore\n        /* \"#utility.yul\":16075:16248   */\n      pop\n      jump\t// out\n        /* \"#utility.yul\":16254:16620   */\n    tag_190:\n        /* \"#utility.yul\":16396:16399   */\n      0x00\n        /* \"#utility.yul\":16417:16484   */\n      tag_380\n        /* \"#utility.yul\":16481:16483   */\n      0x17\n        /* \"#utility.yul\":16476:16479   */\n      dup4\n        /* \"#utility.yul\":16417:16484   */\n      tag_179\n      jump\t// in\n    tag_380:\n        /* \"#utility.yul\":16410:16484   */\n      swap2\n      pop\n        /* \"#utility.yul\":16493:16586   */\n      tag_381\n        /* \"#utility.yul\":16582:16585   */\n      dup3\n        /* \"#utility.yul\":16493:16586   */\n      tag_189\n      jump\t// in\n    tag_381:\n        /* \"#utility.yul\":16611:16613   */\n      0x20\n        /* \"#utility.yul\":16606:16609   */\n      dup3\n        /* \"#utility.yul\":16602:16614   */\n      add\n        /* \"#utility.yul\":16595:16614   */\n      swap1\n      pop\n        /* \"#utility.yul\":16254:16620   */\n      swap2\n      swap1\n      pop\n      jump\t// out\n        /* \"#utility.yul\":16626:17045   */\n    tag_82:\n        /* \"#utility.yul\":16792:16796   */\n      0x00\n        /* \"#utility.yul\":16830:16832   */\n      0x20\n        /* \"#utility.yul\":16819:16828   */\n      dup3\n        /* \"#utility.yul\":16815:16833   */\n      add\n        /* \"#utility.yul\":16807:16833   */\n      swap1\n      pop\n        /* \"#utility.yul\":16879:16888   */\n      dup2\n        /* \"#utility.yul\":16873:16877   */\n      dup2\n        /* \"#utility.yul\":16869:16889   */\n      sub\n        /* \"#utility.yul\":16865:16866   */\n      0x00\n        /* \"#utility.yul\":16854:16863   */\n      dup4\n        /* \"#utility.yul\":16850:16867   */\n      add\n        /* \"#utility.yul\":16843:16890   */\n      mstore\n        /* \"#utility.yul\":16907:17038   */\n      tag_383\n        /* \"#utility.yul\":17033:17037   */\n      dup2\n        /* \"#utility.yul\":16907:17038   */\n      tag_190\n      jump\t// in\n    tag_383:\n        /* \"#utility.yul\":16899:17038   */\n      swap1\n      pop\n        /* \"#utility.yul\":16626:17045   */\n      swap2\n      swap1\n      pop\n      jump\t// out\n        /* \"#utility.yul\":17051:17231   */\n    tag_191:\n        /* \"#utility.yul\":17099:17176   */\n      0x4e487b7100000000000000000000000000000000000000000000000000000000\n        /* \"#utility.yul\":17096:17097   */\n      0x00\n        /* \"#utility.yul\":17089:17177   */\n      mstore\n        /* \"#utility.yul\":17196:17200   */\n      0x11\n        /* \"#utility.yul\":17193:17194   */\n      0x04\n        /* \"#utility.yul\":17186:17201   */\n      mstore\n        /* \"#utility.yul\":17220:17224   */\n      0x24\n        /* \"#utility.yul\":17217:17218   */\n      0x00\n        /* \"#utility.yul\":17210:17225   */\n      revert\n        /* \"#utility.yul\":17237:17428   */\n    tag_84:\n        /* \"#utility.yul\":17277:17280   */\n      0x00\n        /* \"#utility.yul\":17296:17316   */\n      tag_386\n        /* \"#utility.yul\":17314:17315   */\n      dup3\n        /* \"#utility.yul\":17296:17316   */\n      tag_146\n      jump\t// in\n    tag_386:\n        /* \"#utility.yul\":17291:17316   */\n      swap2\n      pop\n        /* \"#utility.yul\":17330:17350   */\n      tag_387\n        /* \"#utility.yul\":17348:17349   */\n      dup4\n        /* \"#utility.yul\":17330:17350   */\n      tag_146\n      jump\t// in\n    tag_387:\n        /* \"#utility.yul\":17325:17350   */\n      swap3\n      pop\n        /* \"#utility.yul\":17373:17374   */\n      dup3\n        /* \"#utility.yul\":17370:17371   */\n      dup3\n        /* \"#utility.yul\":17366:17375   */\n      add\n        /* \"#utility.yul\":17359:17375   */\n      swap1\n      pop\n        /* \"#utility.yul\":17394:17397   */\n      dup1\n        /* \"#utility.yul\":17391:17392   */\n      dup3\n        /* \"#utility.yul\":17388:17398   */\n      gt\n        /* \"#utility.yul\":17385:17421   */\n      iszero\n      tag_388\n      jumpi\n        /* \"#utility.yul\":17401:17419   */\n      tag_389\n      tag_191\n      jump\t// in\n    tag_389:\n        /* \"#utility.yul\":17385:17421   */\n    tag_388:\n        /* \"#utility.yul\":17237:17428   */\n      swap3\n      swap2\n      pop\n      pop\n      jump\t// out\n        /* \"#utility.yul\":17434:17597   */\n    tag_192:\n        /* \"#utility.yul\":17574:17589   */\n      0x696e76616c696420737461746500000000000000000000000000000000000000\n        /* \"#utility.yul\":17570:17571   */\n      0x00\n        /* \"#utility.yul\":17562:17568   */\n      dup3\n        /* \"#utility.yul\":17558:17572   */\n      add\n        /* \"#utility.yul\":17551:17590   */\n      mstore\n        /* \"#utility.yul\":17434:17597   */\n      pop\n      jump\t// out\n        /* \"#utility.yul\":17603:17969   */\n    tag_193:\n        /* \"#utility.yul\":17745:17748   */\n      0x00\n        /* \"#utility.yul\":17766:17833   */\n      tag_392\n        /* \"#utility.yul\":17830:17832   */\n      0x0d\n        /* \"#utility.yul\":17825:17828   */\n      dup4\n        /* \"#utility.yul\":17766:17833   */\n      tag_179\n      jump\t// in\n    tag_392:\n        /* \"#utility.yul\":17759:17833   */\n      swap2\n      pop\n        /* \"#utility.yul\":17842:17935   */\n      tag_393\n        /* \"#utility.yul\":17931:17934   */\n      dup3\n        /* \"#utility.yul\":17842:17935   */\n      tag_192\n      jump\t// in\n    tag_393:\n        /* \"#utility.yul\":17960:17962   */\n      0x20\n        /* \"#utility.yul\":17955:17958   */\n      dup3\n        /* \"#utility.yul\":17951:17963   */\n      add\n        /* \"#utility.yul\":17944:17963   */\n      swap1\n      pop\n        /* \"#utility.yul\":17603:17969   */\n      swap2\n      swap1\n      pop\n      jump\t// out\n        /* \"#utility.yul\":17975:18394   */\n    tag_97:\n        /* \"#utility.yul\":18141:18145   */\n      0x00\n        /* \"#utility.yul\":18179:18181   */\n      0x20\n        /* \"#utility.yul\":18168:18177   */\n      dup3\n        /* \"#utility.yul\":18164:18182   */\n      add\n        /* \"#utility.yul\":18156:18182   */\n      swap1\n      pop\n        /* \"#utility.yul\":18228:18237   */\n      dup2\n        /* \"#utility.yul\":18222:18226   */\n      dup2\n        /* \"#utility.yul\":18218:18238   */\n      sub\n        /* \"#utility.yul\":18214:18215   */\n      0x00\n        /* \"#utility.yul\":18203:18212   */\n      dup4\n        /* \"#utility.yul\":18199:18216   */\n      add\n        /* \"#utility.yul\":18192:18239   */\n      mstore\n        /* \"#utility.yul\":18256:18387   */\n      tag_395\n        /* \"#utility.yul\":18382:18386   */\n      dup2\n        /* \"#utility.yul\":18256:18387   */\n      tag_193\n      jump\t// in\n    tag_395:\n        /* \"#utility.yul\":18248:18387   */\n      swap1\n      pop\n        /* \"#utility.yul\":17975:18394   */\n      swap2\n      swap1\n      pop\n      jump\t// out\n        /* \"#utility.yul\":18400:18549   */\n    tag_194:\n        /* \"#utility.yul\":18436:18443   */\n      0x00\n        /* \"#utility.yul\":18476:18542   */\n      0xffffffff00000000000000000000000000000000000000000000000000000000\n        /* \"#utility.yul\":18469:18474   */\n      dup3\n        /* \"#utility.yul\":18465:18543   */\n      and\n        /* \"#utility.yul\":18454:18543   */\n      swap1\n      pop\n        /* \"#utility.yul\":18400:18549   */\n      swap2\n      swap1\n      pop\n      jump\t// out\n        /* \"#utility.yul\":18555:18633   */\n    tag_195:\n        /* \"#utility.yul\":18593:18600   */\n      0x00\n        /* \"#utility.yul\":18622:18627   */\n      dup2\n        /* \"#utility.yul\":18611:18627   */\n      swap1\n      pop\n        /* \"#utility.yul\":18555:18633   */\n      swap2\n      swap1\n      pop\n      jump\t// out\n        /* \"#utility.yul\":18639:18792   */\n    tag_196:\n        /* \"#utility.yul\":18742:18785   */\n      tag_399\n        /* \"#utility.yul\":18761:18784   */\n      tag_400\n        /* \"#utility.yul\":18778:18783   */\n      dup3\n        /* \"#utility.yul\":18761:18784   */\n      tag_194\n      jump\t// in\n    tag_400:\n        /* \"#utility.yul\":18742:18785   */\n      tag_195\n      jump\t// in\n    tag_399:\n        /* \"#utility.yul\":18737:18740   */\n      dup3\n        /* \"#utility.yul\":18730:18786   */\n      mstore\n        /* \"#utility.yul\":18639:18792   */\n      pop\n      pop\n      jump\t// out\n        /* \"#utility.yul\":18798:19225   */\n    tag_101:\n        /* \"#utility.yul\":18964:18967   */\n      0x00\n        /* \"#utility.yul\":18979:19052   */\n      tag_402\n        /* \"#utility.yul\":19048:19051   */\n      dup3\n        /* \"#utility.yul\":19039:19045   */\n      dup7\n        /* \"#utility.yul\":18979:19052   */\n      tag_196\n      jump\t// in\n    tag_402:\n        /* \"#utility.yul\":19077:19078   */\n      0x04\n        /* \"#utility.yul\":19072:19075   */\n      dup3\n        /* \"#utility.yul\":19068:19079   */\n      add\n        /* \"#utility.yul\":19061:19079   */\n      swap2\n      pop\n        /* \"#utility.yul\":19096:19199   */\n      tag_403\n        /* \"#utility.yul\":19195:19198   */\n      dup3\n        /* \"#utility.yul\":19186:19192   */\n      dup5\n        /* \"#utility.yul\":19178:19184   */\n      dup7\n        /* \"#utility.yul\":19096:19199   */\n      tag_188\n      jump\t// in\n    tag_403:\n        /* \"#utility.yul\":19089:19199   */\n      swap2\n      pop\n        /* \"#utility.yul\":19216:19219   */\n      dup2\n        /* \"#utility.yul\":19209:19219   */\n      swap1\n      pop\n        /* \"#utility.yul\":18798:19225   */\n      swap5\n      swap4\n      pop\n      pop\n      pop\n      pop\n      jump\t// out\n        /* \"#utility.yul\":19231:19617   */\n    tag_197:\n        /* \"#utility.yul\":19335:19338   */\n      0x00\n        /* \"#utility.yul\":19363:19401   */\n      tag_405\n        /* \"#utility.yul\":19395:19400   */\n      dup3\n        /* \"#utility.yul\":19363:19401   */\n      tag_166\n      jump\t// in\n    tag_405:\n        /* \"#utility.yul\":19417:19505   */\n      tag_406\n        /* \"#utility.yul\":19498:19504   */\n      dup2\n        /* \"#utility.yul\":19493:19496   */\n      dup6\n        /* \"#utility.yul\":19417:19505   */\n      tag_186\n      jump\t// in\n    tag_406:\n        /* \"#utility.yul\":19410:19505   */\n      swap4\n      pop\n        /* \"#utility.yul\":19514:19579   */\n      tag_407\n        /* \"#utility.yul\":19572:19578   */\n      dup2\n        /* \"#utility.yul\":19567:19570   */\n      dup6\n        /* \"#utility.yul\":19560:19564   */\n      0x20\n        /* \"#utility.yul\":19553:19558   */\n      dup7\n        /* \"#utility.yul\":19549:19565   */\n      add\n        /* \"#utility.yul\":19514:19579   */\n      tag_168\n      jump\t// in\n    tag_407:\n        /* \"#utility.yul\":19604:19610   */\n      dup1\n        /* \"#utility.yul\":19599:19602   */\n      dup5\n        /* \"#utility.yul\":19595:19611   */\n      add\n        /* \"#utility.yul\":19588:19611   */\n      swap2\n      pop\n        /* \"#utility.yul\":19339:19617   */\n      pop\n        /* \"#utility.yul\":19231:19617   */\n      swap3\n      swap2\n      pop\n      pop\n      jump\t// out\n        /* \"#utility.yul\":19623:19894   */\n    tag_104:\n        /* \"#utility.yul\":19753:19756   */\n      0x00\n        /* \"#utility.yul\":19775:19868   */\n      tag_409\n        /* \"#utility.yul\":19864:19867   */\n      dup3\n        /* \"#utility.yul\":19855:19861   */\n      dup5\n        /* \"#utility.yul\":19775:19868   */\n      tag_197\n      jump\t// in\n    tag_409:\n        /* \"#utility.yul\":19768:19868   */\n      swap2\n      pop\n        /* \"#utility.yul\":19885:19888   */\n      dup2\n        /* \"#utility.yul\":19878:19888   */\n      swap1\n      pop\n        /* \"#utility.yul\":19623:19894   */\n      swap3\n      swap2\n      pop\n      pop\n      jump\t// out\n        /* \"#utility.yul\":19900:20058   */\n    tag_198:\n        /* \"#utility.yul\":20040:20050   */\n      0x7478206661696c64000000000000000000000000000000000000000000000000\n        /* \"#utility.yul\":20036:20037   */\n      0x00\n        /* \"#utility.yul\":20028:20034   */\n      dup3\n        /* \"#utility.yul\":20024:20038   */\n      add\n        /* \"#utility.yul\":20017:20051   */\n      mstore\n        /* \"#utility.yul\":19900:20058   */\n      pop\n      jump\t// out\n        /* \"#utility.yul\":20064:20429   */\n    tag_199:\n        /* \"#utility.yul\":20206:20209   */\n      0x00\n        /* \"#utility.yul\":20227:20293   */\n      tag_412\n        /* \"#utility.yul\":20291:20292   */\n      0x08\n        /* \"#utility.yul\":20286:20289   */\n      dup4\n        /* \"#utility.yul\":20227:20293   */\n      tag_179\n      jump\t// in\n    tag_412:\n        /* \"#utility.yul\":20220:20293   */\n      swap2\n      pop\n        /* \"#utility.yul\":20302:20395   */\n      tag_413\n        /* \"#utility.yul\":20391:20394   */\n      dup3\n        /* \"#utility.yul\":20302:20395   */\n      tag_198\n      jump\t// in\n    tag_413:\n        /* \"#utility.yul\":20420:20422   */\n      0x20\n        /* \"#utility.yul\":20415:20418   */\n      dup3\n        /* \"#utility.yul\":20411:20423   */\n      add\n        /* \"#utility.yul\":20404:20423   */\n      swap1\n      pop\n        /* \"#utility.yul\":20064:20429   */\n      swap2\n      swap1\n      pop\n      jump\t// out\n        /* \"#utility.yul\":20435:20854   */\n    tag_110:\n        /* \"#utility.yul\":20601:20605   */\n      0x00\n        /* \"#utility.yul\":20639:20641   */\n      0x20\n        /* \"#utility.yul\":20628:20637   */\n      dup3\n        /* \"#utility.yul\":20624:20642   */\n      add\n        /* \"#utility.yul\":20616:20642   */\n      swap1\n      pop\n        /* \"#utility.yul\":20688:20697   */\n      dup2\n        /* \"#utility.yul\":20682:20686   */\n      dup2\n        /* \"#utility.yul\":20678:20698   */\n      sub\n        /* \"#utility.yul\":20674:20675   */\n      0x00\n        /* \"#utility.yul\":20663:20672   */\n      dup4\n        /* \"#utility.yul\":20659:20676   */\n      add\n        /* \"#utility.yul\":20652:20699   */\n      mstore\n        /* \"#utility.yul\":20716:20847   */\n      tag_415\n        /* \"#utility.yul\":20842:20846   */\n      dup2\n        /* \"#utility.yul\":20716:20847   */\n      tag_199\n      jump\t// in\n    tag_415:\n        /* \"#utility.yul\":20708:20847   */\n      swap1\n      pop\n        /* \"#utility.yul\":20435:20854   */\n      swap2\n      swap1\n      pop\n      jump\t// out\n        /* \"#utility.yul\":20860:21020   */\n    tag_200:\n        /* \"#utility.yul\":21000:21012   */\n      0x6e6f742061637469766500000000000000000000000000000000000000000000\n        /* \"#utility.yul\":20996:20997   */\n      0x00\n        /* \"#utility.yul\":20988:20994   */\n      dup3\n        /* \"#utility.yul\":20984:20998   */\n      add\n        /* \"#utility.yul\":20977:21013   */\n      mstore\n        /* \"#utility.yul\":20860:21020   */\n      pop\n      jump\t// out\n        /* \"#utility.yul\":21026:21392   */\n    tag_201:\n        /* \"#utility.yul\":21168:21171   */\n      0x00\n        /* \"#utility.yul\":21189:21256   */\n      tag_418\n        /* \"#utility.yul\":21253:21255   */\n      0x0a\n        /* \"#utility.yul\":21248:21251   */\n      dup4\n        /* \"#utility.yul\":21189:21256   */\n      tag_179\n      jump\t// in\n    tag_418:\n        /* \"#utility.yul\":21182:21256   */\n      swap2\n      pop\n        /* \"#utility.yul\":21265:21358   */\n      tag_419\n        /* \"#utility.yul\":21354:21357   */\n      dup3\n        /* \"#utility.yul\":21265:21358   */\n      tag_200\n      jump\t// in\n    tag_419:\n        /* \"#utility.yul\":21383:21385   */\n      0x20\n        /* \"#utility.yul\":21378:21381   */\n      dup3\n        /* \"#utility.yul\":21374:21386   */\n      add\n        /* \"#utility.yul\":21367:21386   */\n      swap1\n      pop\n        /* \"#utility.yul\":21026:21392   */\n      swap2\n      swap1\n      pop\n      jump\t// out\n        /* \"#utility.yul\":21398:21817   */\n    tag_119:\n        /* \"#utility.yul\":21564:21568   */\n      0x00\n        /* \"#utility.yul\":21602:21604   */\n      0x20\n        /* \"#utility.yul\":21591:21600   */\n      dup3\n        /* \"#utility.yul\":21587:21605   */\n      add\n        /* \"#utility.yul\":21579:21605   */\n      swap1\n      pop\n        /* \"#utility.yul\":21651:21660   */\n      dup2\n        /* \"#utility.yul\":21645:21649   */\n      dup2\n        /* \"#utility.yul\":21641:21661   */\n      sub\n        /* \"#utility.yul\":21637:21638   */\n      0x00\n        /* \"#utility.yul\":21626:21635   */\n      dup4\n        /* \"#utility.yul\":21622:21639   */\n      add\n        /* \"#utility.yul\":21615:21662   */\n      mstore\n        /* \"#utility.yul\":21679:21810   */\n      tag_421\n        /* \"#utility.yul\":21805:21809   */\n      dup2\n        /* \"#utility.yul\":21679:21810   */\n      tag_201\n      jump\t// in\n    tag_421:\n        /* \"#utility.yul\":21671:21810   */\n      swap1\n      pop\n        /* \"#utility.yul\":21398:21817   */\n      swap2\n      swap1\n      pop\n      jump\t// out\n        /* \"#utility.yul\":21823:21990   */\n    tag_202:\n        /* \"#utility.yul\":21963:21982   */\n      0x6e6f7420656e6f75676820746f6b656e73000000000000000000000000000000\n        /* \"#utility.yul\":21959:21960   */\n      0x00\n        /* \"#utility.yul\":21951:21957   */\n      dup3\n        /* \"#utility.yul\":21947:21961   */\n      add\n        /* \"#utility.yul\":21940:21983   */\n      mstore\n        /* \"#utility.yul\":21823:21990   */\n      pop\n      jump\t// out\n        /* \"#utility.yul\":21996:22362   */\n    tag_203:\n        /* \"#utility.yul\":22138:22141   */\n      0x00\n        /* \"#utility.yul\":22159:22226   */\n      tag_424\n        /* \"#utility.yul\":22223:22225   */\n      0x11\n        /* \"#utility.yul\":22218:22221   */\n      dup4\n        /* \"#utility.yul\":22159:22226   */\n      tag_179\n      jump\t// in\n    tag_424:\n        /* \"#utility.yul\":22152:22226   */\n      swap2\n      pop\n        /* \"#utility.yul\":22235:22328   */\n      tag_425\n        /* \"#utility.yul\":22324:22327   */\n      dup3\n        /* \"#utility.yul\":22235:22328   */\n      tag_202\n      jump\t// in\n    tag_425:\n        /* \"#utility.yul\":22353:22355   */\n      0x20\n        /* \"#utility.yul\":22348:22351   */\n      dup3\n        /* \"#utility.yul\":22344:22356   */\n      add\n        /* \"#utility.yul\":22337:22356   */\n      swap1\n      pop\n        /* \"#utility.yul\":21996:22362   */\n      swap2\n      swap1\n      pop\n      jump\t// out\n        /* \"#utility.yul\":22368:22787   */\n    tag_126:\n        /* \"#utility.yul\":22534:22538   */\n      0x00\n        /* \"#utility.yul\":22572:22574   */\n      0x20\n        /* \"#utility.yul\":22561:22570   */\n      dup3\n        /* \"#utility.yul\":22557:22575   */\n      add\n        /* \"#utility.yul\":22549:22575   */\n      swap1\n      pop\n        /* \"#utility.yul\":22621:22630   */\n      dup2\n        /* \"#utility.yul\":22615:22619   */\n      dup2\n        /* \"#utility.yul\":22611:22631   */\n      sub\n        /* \"#utility.yul\":22607:22608   */\n      0x00\n        /* \"#utility.yul\":22596:22605   */\n      dup4\n        /* \"#utility.yul\":22592:22609   */\n      add\n        /* \"#utility.yul\":22585:22632   */\n      mstore\n        /* \"#utility.yul\":22649:22780   */\n      tag_427\n        /* \"#utility.yul\":22775:22779   */\n      dup2\n        /* \"#utility.yul\":22649:22780   */\n      tag_203\n      jump\t// in\n    tag_427:\n        /* \"#utility.yul\":22641:22780   */\n      swap1\n      pop\n        /* \"#utility.yul\":22368:22787   */\n      swap2\n      swap1\n      pop\n      jump\t// out\n        /* \"#utility.yul\":22793:22956   */\n    tag_204:\n        /* \"#utility.yul\":22933:22948   */\n      0x616c726561647920766f74656400000000000000000000000000000000000000\n        /* \"#utility.yul\":22929:22930   */\n      0x00\n        /* \"#utility.yul\":22921:22927   */\n      dup3\n        /* \"#utility.yul\":22917:22931   */\n      add\n        /* \"#utility.yul\":22910:22949   */\n      mstore\n        /* \"#utility.yul\":22793:22956   */\n      pop\n      jump\t// out\n        /* \"#utility.yul\":22962:23328   */\n    tag_205:\n        /* \"#utility.yul\":23104:23107   */\n      0x00\n        /* \"#utility.yul\":23125:23192   */\n      tag_430\n        /* \"#utility.yul\":23189:23191   */\n      0x0d\n        /* \"#utility.yul\":23184:23187   */\n      dup4\n        /* \"#utility.yul\":23125:23192   */\n      tag_179\n      jump\t// in\n    tag_430:\n        /* \"#utility.yul\":23118:23192   */\n      swap2\n      pop\n        /* \"#utility.yul\":23201:23294   */\n      tag_431\n        /* \"#utility.yul\":23290:23293   */\n      dup3\n        /* \"#utility.yul\":23201:23294   */\n      tag_204\n      jump\t// in\n    tag_431:\n        /* \"#utility.yul\":23319:23321   */\n      0x20\n        /* \"#utility.yul\":23314:23317   */\n      dup3\n        /* \"#utility.yul\":23310:23322   */\n      add\n        /* \"#utility.yul\":23303:23322   */\n      swap1\n      pop\n        /* \"#utility.yul\":22962:23328   */\n      swap2\n      swap1\n      pop\n      jump\t// out\n        /* \"#utility.yul\":23334:23753   */\n    tag_129:\n        /* \"#utility.yul\":23500:23504   */\n      0x00\n        /* \"#utility.yul\":23538:23540   */\n      0x20\n        /* \"#utility.yul\":23527:23536   */\n      dup3\n        /* \"#utility.yul\":23523:23541   */\n      add\n        /* \"#utility.yul\":23515:23541   */\n      swap1\n      pop\n        /* \"#utility.yul\":23587:23596   */\n      dup2\n        /* \"#utility.yul\":23581:23585   */\n      dup2\n        /* \"#utility.yul\":23577:23597   */\n      sub\n        /* \"#utility.yul\":23573:23574   */\n      0x00\n        /* \"#utility.yul\":23562:23571   */\n      dup4\n        /* \"#utility.yul\":23558:23575   */\n      add\n        /* \"#utility.yul\":23551:23598   */\n      mstore\n        /* \"#utility.yul\":23615:23746   */\n      tag_433\n        /* \"#utility.yul\":23741:23745   */\n      dup2\n        /* \"#utility.yul\":23615:23746   */\n      tag_205\n      jump\t// in\n    tag_433:\n        /* \"#utility.yul\":23607:23746   */\n      swap1\n      pop\n        /* \"#utility.yul\":23334:23753   */\n      swap2\n      swap1\n      pop\n      jump\t// out\n        /* \"#utility.yul\":23783:24100   */\n    tag_206:\n        /* \"#utility.yul\":23881:23884   */\n      0x00\n        /* \"#utility.yul\":23902:23973   */\n      tag_435\n        /* \"#utility.yul\":23966:23972   */\n      dup4\n        /* \"#utility.yul\":23961:23964   */\n      dup6\n        /* \"#utility.yul\":23902:23973   */\n      tag_179\n      jump\t// in\n    tag_435:\n        /* \"#utility.yul\":23895:23973   */\n      swap4\n      pop\n        /* \"#utility.yul\":23983:24039   */\n      tag_436\n        /* \"#utility.yul\":24032:24038   */\n      dup4\n        /* \"#utility.yul\":24027:24030   */\n      dup6\n        /* \"#utility.yul\":24020:24025   */\n      dup5\n        /* \"#utility.yul\":23983:24039   */\n      tag_187\n      jump\t// in\n    tag_436:\n        /* \"#utility.yul\":24064:24093   */\n      tag_437\n        /* \"#utility.yul\":24086:24092   */\n      dup4\n        /* \"#utility.yul\":24064:24093   */\n      tag_169\n      jump\t// in\n    tag_437:\n        /* \"#utility.yul\":24059:24062   */\n      dup5\n        /* \"#utility.yul\":24055:24094   */\n      add\n        /* \"#utility.yul\":24048:24094   */\n      swap1\n      pop\n        /* \"#utility.yul\":23783:24100   */\n      swap4\n      swap3\n      pop\n      pop\n      pop\n      jump\t// out\n        /* \"#utility.yul\":24128:24442   */\n    tag_207:\n        /* \"#utility.yul\":24224:24227   */\n      0x00\n        /* \"#utility.yul\":24245:24315   */\n      tag_439\n        /* \"#utility.yul\":24308:24314   */\n      dup4\n        /* \"#utility.yul\":24303:24306   */\n      dup6\n        /* \"#utility.yul\":24245:24315   */\n      tag_167\n      jump\t// in\n    tag_439:\n        /* \"#utility.yul\":24238:24315   */\n      swap4\n      pop\n        /* \"#utility.yul\":24325:24381   */\n      tag_440\n        /* \"#utility.yul\":24374:24380   */\n      dup4\n        /* \"#utility.yul\":24369:24372   */\n      dup6\n        /* \"#utility.yul\":24362:24367   */\n      dup5\n        /* \"#utility.yul\":24325:24381   */\n      tag_187\n      jump\t// in\n    tag_440:\n        /* \"#utility.yul\":24406:24435   */\n      tag_441\n        /* \"#utility.yul\":24428:24434   */\n      dup4\n        /* \"#utility.yul\":24406:24435   */\n      tag_169\n      jump\t// in\n    tag_441:\n        /* \"#utility.yul\":24401:24404   */\n      dup5\n        /* \"#utility.yul\":24397:24436   */\n      add\n        /* \"#utility.yul\":24390:24436   */\n      swap1\n      pop\n        /* \"#utility.yul\":24128:24442   */\n      swap4\n      swap3\n      pop\n      pop\n      pop\n      jump\t// out\n        /* \"#utility.yul\":24448:25330   */\n    tag_139:\n        /* \"#utility.yul\":24711:24715   */\n      0x00\n        /* \"#utility.yul\":24749:24752   */\n      0xa0\n        /* \"#utility.yul\":24738:24747   */\n      dup3\n        /* \"#utility.yul\":24734:24753   */\n      add\n        /* \"#utility.yul\":24726:24753   */\n      swap1\n      pop\n        /* \"#utility.yul\":24763:24834   */\n      tag_443\n        /* \"#utility.yul\":24831:24832   */\n      0x00\n        /* \"#utility.yul\":24820:24829   */\n      dup4\n        /* \"#utility.yul\":24816:24833   */\n      add\n        /* \"#utility.yul\":24807:24813   */\n      dup11\n        /* \"#utility.yul\":24763:24834   */\n      tag_182\n      jump\t// in\n    tag_443:\n        /* \"#utility.yul\":24844:24916   */\n      tag_444\n        /* \"#utility.yul\":24912:24914   */\n      0x20\n        /* \"#utility.yul\":24901:24910   */\n      dup4\n        /* \"#utility.yul\":24897:24915   */\n      add\n        /* \"#utility.yul\":24888:24894   */\n      dup10\n        /* \"#utility.yul\":24844:24916   */\n      tag_147\n      jump\t// in\n    tag_444:\n        /* \"#utility.yul\":24963:24972   */\n      dup2\n        /* \"#utility.yul\":24957:24961   */\n      dup2\n        /* \"#utility.yul\":24953:24973   */\n      sub\n        /* \"#utility.yul\":24948:24950   */\n      0x40\n        /* \"#utility.yul\":24937:24946   */\n      dup4\n        /* \"#utility.yul\":24933:24951   */\n      add\n        /* \"#utility.yul\":24926:24974   */\n      mstore\n        /* \"#utility.yul\":24991:25079   */\n      tag_445\n        /* \"#utility.yul\":25074:25078   */\n      dup2\n        /* \"#utility.yul\":25065:25071   */\n      dup8\n        /* \"#utility.yul\":25057:25063   */\n      dup10\n        /* \"#utility.yul\":24991:25079   */\n      tag_206\n      jump\t// in\n    tag_445:\n        /* \"#utility.yul\":24983:25079   */\n      swap1\n      pop\n        /* \"#utility.yul\":25126:25135   */\n      dup2\n        /* \"#utility.yul\":25120:25124   */\n      dup2\n        /* \"#utility.yul\":25116:25136   */\n      sub\n        /* \"#utility.yul\":25111:25113   */\n      0x60\n        /* \"#utility.yul\":25100:25109   */\n      dup4\n        /* \"#utility.yul\":25096:25114   */\n      add\n        /* \"#utility.yul\":25089:25137   */\n      mstore\n        /* \"#utility.yul\":25154:25240   */\n      tag_446\n        /* \"#utility.yul\":25235:25239   */\n      dup2\n        /* \"#utility.yul\":25226:25232   */\n      dup6\n        /* \"#utility.yul\":25218:25224   */\n      dup8\n        /* \"#utility.yul\":25154:25240   */\n      tag_207\n      jump\t// in\n    tag_446:\n        /* \"#utility.yul\":25146:25240   */\n      swap1\n      pop\n        /* \"#utility.yul\":25250:25323   */\n      tag_447\n        /* \"#utility.yul\":25318:25321   */\n      0x80\n        /* \"#utility.yul\":25307:25316   */\n      dup4\n        /* \"#utility.yul\":25303:25322   */\n      add\n        /* \"#utility.yul\":25294:25300   */\n      dup5\n        /* \"#utility.yul\":25250:25323   */\n      tag_165\n      jump\t// in\n    tag_447:\n        /* \"#utility.yul\":24448:25330   */\n      swap9\n      swap8\n      pop\n      pop\n      pop\n      pop\n      pop\n      pop\n      pop\n      pop\n      jump\t// out\n\n    auxdata: 0xa26469706673582212200683d2339e03eec013ebcc774a4b847c765e4662f7519c1b03da7c109d3b653d64736f6c63430008120033\n}\n",
				"bytecode": {
					"linkReferences": {},
					"object": "60806040523480156200001157600080fd5b506040516200189c3803806200189c8339818101604052810190620000379190620000fc565b806000806101000a81548173ffffffffffffffffffffffffffffffffffffffff021916908373ffffffffffffffffffffffffffffffffffffffff160217905550506200012e565b600080fd5b600073ffffffffffffffffffffffffffffffffffffffff82169050919050565b6000620000b08262000083565b9050919050565b6000620000c482620000a3565b9050919050565b620000d681620000b7565b8114620000e257600080fd5b50565b600081519050620000f681620000cb565b92915050565b6000602082840312156200011557620001146200007e565b5b60006200012584828501620000e5565b91505092915050565b61175e806200013e6000396000f3fe608060405234801561001057600080fd5b50600436106100935760003560e01c8063bb0f4b1511610066578063bb0f4b1514610148578063c9a28cb914610178578063d14b85b914610194578063d6159fe5146101c6578063fc0c546a146101e457610093565b806332ed5b121461009857806361d585da146100ca5780638524c65d146100fa578063a438d2081461012a575b600080fd5b6100b260048036038101906100ad9190610aea565b610202565b6040516100c193929190610b4b565b60405180910390f35b6100e460048036038101906100df9190610aea565b610239565b6040516100f19190610bf9565b60405180910390f35b610114600480360381019061010f9190610d59565b610336565b6040516101219190610e44565b60405180910390f35b610132610533565b60405161013f9190610e5f565b60405180910390f35b610162600480360381019061015d9190610e7a565b610538565b60405161016f9190610fc6565b60405180910390f35b610192600480360381019061018d9190611021565b61074b565b005b6101ae60048036038101906101a99190610aea565b610a15565b6040516101bd93929190611061565b60405180910390f35b6101ce610a3f565b6040516101db9190610e5f565b60405180910390f35b6101ec610a44565b6040516101f991906110f7565b60405180910390f35b60016020528060005260406000206000915090508060000154908060010154908060020160009054906101000a900460ff16905083565b600080600160008481526020019081526020016000209050600060026000858152602001908152602001600020905060008260000154116102af576040517f08c379a00000000000000000000000000000000000000000000000000000000081526004016102a69061116f565b60405180910390fd5b8160020160009054906101000a900460ff16156102d157600492505050610331565b81600001544210156102e857600092505050610331565b816000015442101580156102ff5750816001015442105b1561030f57600192505050610331565b80600001548160010154111561032a57600292505050610331565b6003925050505b919050565b6000600160008054906101000a900473ffffffffffffffffffffffffffffffffffffffff1673ffffffffffffffffffffffffffffffffffffffff166370a08231336040518263ffffffff1660e01b8152600401610393919061119e565b602060405180830381865afa1580156103b0573d6000803e3d6000fd5b505050506040513d601f19601f820116820180604052508101906103d491906111ce565b11610414576040517f08c379a000000000000000000000000000000000000000000000000000000000815260040161040b90611247565b60405180910390fd5b600061043c8a8a8a8a8a8a8a8a60405161042f9291906112a6565b6040518091039020610a68565b90506000600160008381526020019081526020016000206000015414610497576040517f08c379a000000000000000000000000000000000000000000000000000000000815260040161048e9061130b565b60405180910390fd5b6040518060600160405280600a426104af919061135a565b8152602001603c600a426104c3919061135a565b6104cd919061135a565b81526020016000151581525060016000838152602001908152602001600020600082015181600001556020820151816001015560408201518160020160006101000a81548160ff0219169083151502179055509050508091505098975050505050505050565b603c81565b6060600061054b89898989898989610a68565b90506002600481111561056157610560610b82565b5b61056a82610239565b600481111561057c5761057b610b82565b5b146105bc576040517f08c379a00000000000000000000000000000000000000000000000000000000081526004016105b3906113da565b60405180910390fd5b600060016000838152602001908152602001600020905060018160020160006101000a81548160ff0219169083151502179055506060600089899050111561064057888860405161060e9291906112a6565b6040518091039020878760405160200161062a93929190611447565b6040516020818303038152906040529050610688565b86868080601f016020809104026020016040519081016040528093929190818152602001838380828437600081840152601f19601f8201169050808301925050505050505090505b6000808c73ffffffffffffffffffffffffffffffffffffffff168c846040516106b191906114a2565b60006040518083038185875af1925050503d80600081146106ee576040519150601f19603f3d011682016040523d82523d6000602084013e6106f3565b606091505b509150915081610738576040517f08c379a000000000000000000000000000000000000000000000000000000000815260040161072f90611505565b60405180910390fd5b8095505050505050979650505050505050565b6001600481111561075f5761075e610b82565b5b61076883610239565b600481111561077a57610779610b82565b5b146107ba576040517f08c379a00000000000000000000000000000000000000000000000000000000081526004016107b190611571565b60405180910390fd5b60008060009054906101000a900473ffffffffffffffffffffffffffffffffffffffff1673ffffffffffffffffffffffffffffffffffffffff166370a08231336040518263ffffffff1660e01b8152600401610816919061119e565b602060405180830381865afa158015610833573d6000803e3d6000fd5b505050506040513d601f19601f8201168201806040525081019061085791906111ce565b90506000811161089c576040517f08c379a0000000000000000000000000000000000000000000000000000000008152600401610893906115dd565b60405180910390fd5b60006002600085815260200190815260200160002090508060030160003373ffffffffffffffffffffffffffffffffffffffff1673ffffffffffffffffffffffffffffffffffffffff16815260200190815260200160002060009054906101000a900460ff1615610942576040517f08c379a000000000000000000000000000000000000000000000000000000000815260040161093990611649565b60405180910390fd5b60008360ff160361096d5781816000016000828254610961919061135a565b925050819055506109b5565b60018360ff1603610998578181600101600082825461098c919061135a565b925050819055506109b4565b818160020160008282546109ac919061135a565b925050819055505b5b60018160030160003373ffffffffffffffffffffffffffffffffffffffff1673ffffffffffffffffffffffffffffffffffffffff16815260200190815260200160002060006101000a81548160ff02191690831515021790555050505050565b60026020528060005260406000206000915090508060000154908060010154908060020154905083565b600a81565b60008054906101000a900473ffffffffffffffffffffffffffffffffffffffff1681565b600087878787878787604051602001610a8797969594939291906116c3565b604051602081830303815290604052805190602001209050979650505050505050565b600080fd5b600080fd5b6000819050919050565b610ac781610ab4565b8114610ad257600080fd5b50565b600081359050610ae481610abe565b92915050565b600060208284031215610b0057610aff610aaa565b5b6000610b0e84828501610ad5565b91505092915050565b6000819050919050565b610b2a81610b17565b82525050565b60008115159050919050565b610b4581610b30565b82525050565b6000606082019050610b606000830186610b21565b610b6d6020830185610b21565b610b7a6040830184610b3c565b949350505050565b7f4e487b7100000000000000000000000000000000000000000000000000000000600052602160045260246000fd5b60058110610bc257610bc1610b82565b5b50565b6000819050610bd382610bb1565b919050565b6000610be382610bc5565b9050919050565b610bf381610bd8565b82525050565b6000602082019050610c0e6000830184610bea565b92915050565b600073ffffffffffffffffffffffffffffffffffffffff82169050919050565b6000610c3f82610c14565b9050919050565b610c4f81610c34565b8114610c5a57600080fd5b50565b600081359050610c6c81610c46565b92915050565b610c7b81610b17565b8114610c8657600080fd5b50565b600081359050610c9881610c72565b92915050565b600080fd5b600080fd5b600080fd5b60008083601f840112610cc357610cc2610c9e565b5b8235905067ffffffffffffffff811115610ce057610cdf610ca3565b5b602083019150836001820283011115610cfc57610cfb610ca8565b5b9250929050565b60008083601f840112610d1957610d18610c9e565b5b8235905067ffffffffffffffff811115610d3657610d35610ca3565b5b602083019150836001820283011115610d5257610d51610ca8565b5b9250929050565b60008060008060008060008060a0898b031215610d7957610d78610aaa565b5b6000610d878b828c01610c5d565b9850506020610d988b828c01610c89565b975050604089013567ffffffffffffffff811115610db957610db8610aaf565b5b610dc58b828c01610cad565b9650965050606089013567ffffffffffffffff811115610de857610de7610aaf565b5b610df48b828c01610d03565b9450945050608089013567ffffffffffffffff811115610e1757610e16610aaf565b5b610e238b828c01610cad565b92509250509295985092959890939650565b610e3e81610ab4565b82525050565b6000602082019050610e596000830184610e35565b92915050565b6000602082019050610e746000830184610b21565b92915050565b600080600080600080600060a0888a031215610e9957610e98610aaa565b5b6000610ea78a828b01610c5d565b9750506020610eb88a828b01610c89565b965050604088013567ffffffffffffffff811115610ed957610ed8610aaf565b5b610ee58a828b01610cad565b9550955050606088013567ffffffffffffffff811115610f0857610f07610aaf565b5b610f148a828b01610d03565b93509350506080610f278a828b01610ad5565b91505092959891949750929550565b600081519050919050565b600082825260208201905092915050565b60005b83811015610f70578082015181840152602081019050610f55565b60008484015250505050565b6000601f19601f8301169050919050565b6000610f9882610f36565b610fa28185610f41565b9350610fb2818560208601610f52565b610fbb81610f7c565b840191505092915050565b60006020820190508181036000830152610fe08184610f8d565b905092915050565b600060ff82169050919050565b610ffe81610fe8565b811461100957600080fd5b50565b60008135905061101b81610ff5565b92915050565b6000806040838503121561103857611037610aaa565b5b600061104685828601610ad5565b92505060206110578582860161100c565b9150509250929050565b60006060820190506110766000830186610b21565b6110836020830185610b21565b6110906040830184610b21565b949350505050565b6000819050919050565b60006110bd6110b86110b384610c14565b611098565b610c14565b9050919050565b60006110cf826110a2565b9050919050565b60006110e1826110c4565b9050919050565b6110f1816110d6565b82525050565b600060208201905061110c60008301846110e8565b92915050565b600082825260208201905092915050565b7f70726f706f73616c20646f6573656e2774206578697374000000000000000000600082015250565b6000611159601783611112565b915061116482611123565b602082019050919050565b600060208201905081810360008301526111888161114c565b9050919050565b61119881610c34565b82525050565b60006020820190506111b3600083018461118f565b92915050565b6000815190506111c881610c72565b92915050565b6000602082840312156111e4576111e3610aaa565b5b60006111f2848285016111b9565b91505092915050565b7f6e6f7420656e6f75676820746f6b656e00000000000000000000000000000000600082015250565b6000611231601083611112565b915061123c826111fb565b602082019050919050565b6000602082019050818103600083015261126081611224565b9050919050565b600081905092915050565b82818337600083830152505050565b600061128d8385611267565b935061129a838584611272565b82840190509392505050565b60006112b3828486611281565b91508190509392505050565b7f70726f706f73616c20616c726561647920657869737473000000000000000000600082015250565b60006112f5601783611112565b9150611300826112bf565b602082019050919050565b60006020820190508181036000830152611324816112e8565b9050919050565b7f4e487b7100000000000000000000000000000000000000000000000000000000600052601160045260246000fd5b600061136582610b17565b915061137083610b17565b92508282019050808211156113885761138761132b565b5b92915050565b7f696e76616c696420737461746500000000000000000000000000000000000000600082015250565b60006113c4600d83611112565b91506113cf8261138e565b602082019050919050565b600060208201905081810360008301526113f3816113b7565b9050919050565b60007fffffffff0000000000000000000000000000000000000000000000000000000082169050919050565b6000819050919050565b61144161143c826113fa565b611426565b82525050565b60006114538286611430565b600482019150611464828486611281565b9150819050949350505050565b600061147c82610f36565b6114868185611267565b9350611496818560208601610f52565b80840191505092915050565b60006114ae8284611471565b915081905092915050565b7f7478206661696c64000000000000000000000000000000000000000000000000600082015250565b60006114ef600883611112565b91506114fa826114b9565b602082019050919050565b6000602082019050818103600083015261151e816114e2565b9050919050565b7f6e6f742061637469766500000000000000000000000000000000000000000000600082015250565b600061155b600a83611112565b915061156682611525565b602082019050919050565b6000602082019050818103600083015261158a8161154e565b9050919050565b7f6e6f7420656e6f75676820746f6b656e73000000000000000000000000000000600082015250565b60006115c7601183611112565b91506115d282611591565b602082019050919050565b600060208201905081810360008301526115f6816115ba565b9050919050565b7f616c726561647920766f74656400000000000000000000000000000000000000600082015250565b6000611633600d83611112565b915061163e826115fd565b602082019050919050565b6000602082019050818103600083015261166281611626565b9050919050565b60006116758385611112565b9350611682838584611272565b61168b83610f7c565b840190509392505050565b60006116a28385610f41565b93506116af838584611272565b6116b883610f7c565b840190509392505050565b600060a0820190506116d8600083018a61118f565b6116e56020830189610b21565b81810360408301526116f8818789611669565b9050818103606083015261170d818587611696565b905061171c6080830184610e35565b9897505050505050505056fea26469706673582212200683d2339e03eec013ebcc774a4b847c765e4662f7519c1b03da7c109d3b653d64736f6c63430008120033",
					"opcodes": "PUSH1 0x80 PUSH1 0x40 MSTORE CALLVALUE DUP1 ISZERO PUSH3 0x11 JUMPI PUSH1 0x0 DUP1 REVERT JUMPDEST POP PUSH1 0x40 MLOAD PUSH3 0x189C CODESIZE SUB DUP1 PUSH3 0x189C DUP4 CODECOPY DUP2 DUP2 ADD PUSH1 0x40 MSTORE DUP2 ADD SWAP1 PUSH3 0x37 SWAP2 SWAP1 PUSH3 0xFC JUMP JUMPDEST DUP1 PUSH1 0x0 DUP1 PUSH2 0x100 EXP DUP2 SLOAD DUP2 PUSH20 0xFFFFFFFFFFFFFFFFFFFFFFFFFFFFFFFFFFFFFFFF MUL NOT AND SWAP1 DUP4 PUSH20 0xFFFFFFFFFFFFFFFFFFFFFFFFFFFFFFFFFFFFFFFF AND MUL OR SWAP1 SSTORE POP POP PUSH3 0x12E JUMP JUMPDEST PUSH1 0x0 DUP1 REVERT JUMPDEST PUSH1 0x0 PUSH20 0xFFFFFFFFFFFFFFFFFFFFFFFFFFFFFFFFFFFFFFFF DUP3 AND SWAP1 POP SWAP2 SWAP1 POP JUMP JUMPDEST PUSH1 0x0 PUSH3 0xB0 DUP3 PUSH3 0x83 JUMP JUMPDEST SWAP1 POP SWAP2 SWAP1 POP JUMP JUMPDEST PUSH1 0x0 PUSH3 0xC4 DUP3 PUSH3 0xA3 JUMP JUMPDEST SWAP1 POP SWAP2 SWAP1 POP JUMP JUMPDEST PUSH3 0xD6 DUP2 PUSH3 0xB7 JUMP JUMPDEST DUP2 EQ PUSH3 0xE2 JUMPI PUSH1 0x0 DUP1 REVERT JUMPDEST POP JUMP JUMPDEST PUSH1 0x0 DUP2 MLOAD SWAP1 POP PUSH3 0xF6 DUP2 PUSH3 0xCB JUMP JUMPDEST SWAP3 SWAP2 POP POP JUMP JUMPDEST PUSH1 0x0 PUSH1 0x20 DUP3 DUP5 SUB SLT ISZERO PUSH3 0x115 JUMPI PUSH3 0x114 PUSH3 0x7E JUMP JUMPDEST JUMPDEST PUSH1 0x0 PUSH3 0x125 DUP5 DUP3 DUP6 ADD PUSH3 0xE5 JUMP JUMPDEST SWAP2 POP POP SWAP3 SWAP2 POP POP JUMP JUMPDEST PUSH2 0x175E DUP1 PUSH3 0x13E PUSH1 0x0 CODECOPY PUSH1 0x0 RETURN INVALID PUSH1 0x80 PUSH1 0x40 MSTORE CALLVALUE DUP1 ISZERO PUSH2 0x10 JUMPI PUSH1 0x0 DUP1 REVERT JUMPDEST POP PUSH1 0x4 CALLDATASIZE LT PUSH2 0x93 JUMPI PUSH1 0x0 CALLDATALOAD PUSH1 0xE0 SHR DUP1 PUSH4 0xBB0F4B15 GT PUSH2 0x66 JUMPI DUP1 PUSH4 0xBB0F4B15 EQ PUSH2 0x148 JUMPI DUP1 PUSH4 0xC9A28CB9 EQ PUSH2 0x178 JUMPI DUP1 PUSH4 0xD14B85B9 EQ PUSH2 0x194 JUMPI DUP1 PUSH4 0xD6159FE5 EQ PUSH2 0x1C6 JUMPI DUP1 PUSH4 0xFC0C546A EQ PUSH2 0x1E4 JUMPI PUSH2 0x93 JUMP JUMPDEST DUP1 PUSH4 0x32ED5B12 EQ PUSH2 0x98 JUMPI DUP1 PUSH4 0x61D585DA EQ PUSH2 0xCA JUMPI DUP1 PUSH4 0x8524C65D EQ PUSH2 0xFA JUMPI DUP1 PUSH4 0xA438D208 EQ PUSH2 0x12A JUMPI JUMPDEST PUSH1 0x0 DUP1 REVERT JUMPDEST PUSH2 0xB2 PUSH1 0x4 DUP1 CALLDATASIZE SUB DUP2 ADD SWAP1 PUSH2 0xAD SWAP2 SWAP1 PUSH2 0xAEA JUMP JUMPDEST PUSH2 0x202 JUMP JUMPDEST PUSH1 0x40 MLOAD PUSH2 0xC1 SWAP4 SWAP3 SWAP2 SWAP1 PUSH2 0xB4B JUMP JUMPDEST PUSH1 0x40 MLOAD DUP1 SWAP2 SUB SWAP1 RETURN JUMPDEST PUSH2 0xE4 PUSH1 0x4 DUP1 CALLDATASIZE SUB DUP2 ADD SWAP1 PUSH2 0xDF SWAP2 SWAP1 PUSH2 0xAEA JUMP JUMPDEST PUSH2 0x239 JUMP JUMPDEST PUSH1 0x40 MLOAD PUSH2 0xF1 SWAP2 SWAP1 PUSH2 0xBF9 JUMP JUMPDEST PUSH1 0x40 MLOAD DUP1 SWAP2 SUB SWAP1 RETURN JUMPDEST PUSH2 0x114 PUSH1 0x4 DUP1 CALLDATASIZE SUB DUP2 ADD SWAP1 PUSH2 0x10F SWAP2 SWAP1 PUSH2 0xD59 JUMP JUMPDEST PUSH2 0x336 JUMP JUMPDEST PUSH1 0x40 MLOAD PUSH2 0x121 SWAP2 SWAP1 PUSH2 0xE44 JUMP JUMPDEST PUSH1 0x40 MLOAD DUP1 SWAP2 SUB SWAP1 RETURN JUMPDEST PUSH2 0x132 PUSH2 0x533 JUMP JUMPDEST PUSH1 0x40 MLOAD PUSH2 0x13F SWAP2 SWAP1 PUSH2 0xE5F JUMP JUMPDEST PUSH1 0x40 MLOAD DUP1 SWAP2 SUB SWAP1 RETURN JUMPDEST PUSH2 0x162 PUSH1 0x4 DUP1 CALLDATASIZE SUB DUP2 ADD SWAP1 PUSH2 0x15D SWAP2 SWAP1 PUSH2 0xE7A JUMP JUMPDEST PUSH2 0x538 JUMP JUMPDEST PUSH1 0x40 MLOAD PUSH2 0x16F SWAP2 SWAP1 PUSH2 0xFC6 JUMP JUMPDEST PUSH1 0x40 MLOAD DUP1 SWAP2 SUB SWAP1 RETURN JUMPDEST PUSH2 0x192 PUSH1 0x4 DUP1 CALLDATASIZE SUB DUP2 ADD SWAP1 PUSH2 0x18D SWAP2 SWAP1 PUSH2 0x1021 JUMP JUMPDEST PUSH2 0x74B JUMP JUMPDEST STOP JUMPDEST PUSH2 0x1AE PUSH1 0x4 DUP1 CALLDATASIZE SUB DUP2 ADD SWAP1 PUSH2 0x1A9 SWAP2 SWAP1 PUSH2 0xAEA JUMP JUMPDEST PUSH2 0xA15 JUMP JUMPDEST PUSH1 0x40 MLOAD PUSH2 0x1BD SWAP4 SWAP3 SWAP2 SWAP1 PUSH2 0x1061 JUMP JUMPDEST PUSH1 0x40 MLOAD DUP1 SWAP2 SUB SWAP1 RETURN JUMPDEST PUSH2 0x1CE PUSH2 0xA3F JUMP JUMPDEST PUSH1 0x40 MLOAD PUSH2 0x1DB SWAP2 SWAP1 PUSH2 0xE5F JUMP JUMPDEST PUSH1 0x40 MLOAD DUP1 SWAP2 SUB SWAP1 RETURN JUMPDEST PUSH2 0x1EC PUSH2 0xA44 JUMP JUMPDEST PUSH1 0x40 MLOAD PUSH2 0x1F9 SWAP2 SWAP1 PUSH2 0x10F7 JUMP JUMPDEST PUSH1 0x40 MLOAD DUP1 SWAP2 SUB SWAP1 RETURN JUMPDEST PUSH1 0x1 PUSH1 0x20 MSTORE DUP1 PUSH1 0x0 MSTORE PUSH1 0x40 PUSH1 0x0 KECCAK256 PUSH1 0x0 SWAP2 POP SWAP1 POP DUP1 PUSH1 0x0 ADD SLOAD SWAP1 DUP1 PUSH1 0x1 ADD SLOAD SWAP1 DUP1 PUSH1 0x2 ADD PUSH1 0x0 SWAP1 SLOAD SWAP1 PUSH2 0x100 EXP SWAP1 DIV PUSH1 0xFF AND SWAP1 POP DUP4 JUMP JUMPDEST PUSH1 0x0 DUP1 PUSH1 0x1 PUSH1 0x0 DUP5 DUP2 MSTORE PUSH1 0x20 ADD SWAP1 DUP2 MSTORE PUSH1 0x20 ADD PUSH1 0x0 KECCAK256 SWAP1 POP PUSH1 0x0 PUSH1 0x2 PUSH1 0x0 DUP6 DUP2 MSTORE PUSH1 0x20 ADD SWAP1 DUP2 MSTORE PUSH1 0x20 ADD PUSH1 0x0 KECCAK256 SWAP1 POP PUSH1 0x0 DUP3 PUSH1 0x0 ADD SLOAD GT PUSH2 0x2AF JUMPI PUSH1 0x40 MLOAD PUSH32 0x8C379A000000000000000000000000000000000000000000000000000000000 DUP2 MSTORE PUSH1 0x4 ADD PUSH2 0x2A6 SWAP1 PUSH2 0x116F JUMP JUMPDEST PUSH1 0x40 MLOAD DUP1 SWAP2 SUB SWAP1 REVERT JUMPDEST DUP2 PUSH1 0x2 ADD PUSH1 0x0 SWAP1 SLOAD SWAP1 PUSH2 0x100 EXP SWAP1 DIV PUSH1 0xFF AND ISZERO PUSH2 0x2D1 JUMPI PUSH1 0x4 SWAP3 POP POP POP PUSH2 0x331 JUMP JUMPDEST DUP2 PUSH1 0x0 ADD SLOAD TIMESTAMP LT ISZERO PUSH2 0x2E8 JUMPI PUSH1 0x0 SWAP3 POP POP POP PUSH2 0x331 JUMP JUMPDEST DUP2 PUSH1 0x0 ADD SLOAD TIMESTAMP LT ISZERO DUP1 ISZERO PUSH2 0x2FF JUMPI POP DUP2 PUSH1 0x1 ADD SLOAD TIMESTAMP LT JUMPDEST ISZERO PUSH2 0x30F JUMPI PUSH1 0x1 SWAP3 POP POP POP PUSH2 0x331 JUMP JUMPDEST DUP1 PUSH1 0x0 ADD SLOAD DUP2 PUSH1 0x1 ADD SLOAD GT ISZERO PUSH2 0x32A JUMPI PUSH1 0x2 SWAP3 POP POP POP PUSH2 0x331 JUMP JUMPDEST PUSH1 0x3 SWAP3 POP POP POP JUMPDEST SWAP2 SWAP1 POP JUMP JUMPDEST PUSH1 0x0 PUSH1 0x1 PUSH1 0x0 DUP1 SLOAD SWAP1 PUSH2 0x100 EXP SWAP1 DIV PUSH20 0xFFFFFFFFFFFFFFFFFFFFFFFFFFFFFFFFFFFFFFFF AND PUSH20 0xFFFFFFFFFFFFFFFFFFFFFFFFFFFFFFFFFFFFFFFF AND PUSH4 0x70A08231 CALLER PUSH1 0x40 MLOAD DUP3 PUSH4 0xFFFFFFFF AND PUSH1 0xE0 SHL DUP2 MSTORE PUSH1 0x4 ADD PUSH2 0x393 SWAP2 SWAP1 PUSH2 0x119E JUMP JUMPDEST PUSH1 0x20 PUSH1 0x40 MLOAD DUP1 DUP4 SUB DUP2 DUP7 GAS STATICCALL ISZERO DUP1 ISZERO PUSH2 0x3B0 JUMPI RETURNDATASIZE PUSH1 0x0 DUP1 RETURNDATACOPY RETURNDATASIZE PUSH1 0x0 REVERT JUMPDEST POP POP POP POP PUSH1 0x40 MLOAD RETURNDATASIZE PUSH1 0x1F NOT PUSH1 0x1F DUP3 ADD AND DUP3 ADD DUP1 PUSH1 0x40 MSTORE POP DUP2 ADD SWAP1 PUSH2 0x3D4 SWAP2 SWAP1 PUSH2 0x11CE JUMP JUMPDEST GT PUSH2 0x414 JUMPI PUSH1 0x40 MLOAD PUSH32 0x8C379A000000000000000000000000000000000000000000000000000000000 DUP2 MSTORE PUSH1 0x4 ADD PUSH2 0x40B SWAP1 PUSH2 0x1247 JUMP JUMPDEST PUSH1 0x40 MLOAD DUP1 SWAP2 SUB SWAP1 REVERT JUMPDEST PUSH1 0x0 PUSH2 0x43C DUP11 DUP11 DUP11 DUP11 DUP11 DUP11 DUP11 DUP11 PUSH1 0x40 MLOAD PUSH2 0x42F SWAP3 SWAP2 SWAP1 PUSH2 0x12A6 JUMP JUMPDEST PUSH1 0x40 MLOAD DUP1 SWAP2 SUB SWAP1 KECCAK256 PUSH2 0xA68 JUMP JUMPDEST SWAP1 POP PUSH1 0x0 PUSH1 0x1 PUSH1 0x0 DUP4 DUP2 MSTORE PUSH1 0x20 ADD SWAP1 DUP2 MSTORE PUSH1 0x20 ADD PUSH1 0x0 KECCAK256 PUSH1 0x0 ADD SLOAD EQ PUSH2 0x497 JUMPI PUSH1 0x40 MLOAD PUSH32 0x8C379A000000000000000000000000000000000000000000000000000000000 DUP2 MSTORE PUSH1 0x4 ADD PUSH2 0x48E SWAP1 PUSH2 0x130B JUMP JUMPDEST PUSH1 0x40 MLOAD DUP1 SWAP2 SUB SWAP1 REVERT JUMPDEST PUSH1 0x40 MLOAD DUP1 PUSH1 0x60 ADD PUSH1 0x40 MSTORE DUP1 PUSH1 0xA TIMESTAMP PUSH2 0x4AF SWAP2 SWAP1 PUSH2 0x135A JUMP JUMPDEST DUP2 MSTORE PUSH1 0x20 ADD PUSH1 0x3C PUSH1 0xA TIMESTAMP PUSH2 0x4C3 SWAP2 SWAP1 PUSH2 0x135A JUMP JUMPDEST PUSH2 0x4CD SWAP2 SWAP1 PUSH2 0x135A JUMP JUMPDEST DUP2 MSTORE PUSH1 0x20 ADD PUSH1 0x0 ISZERO ISZERO DUP2 MSTORE POP PUSH1 0x1 PUSH1 0x0 DUP4 DUP2 MSTORE PUSH1 0x20 ADD SWAP1 DUP2 MSTORE PUSH1 0x20 ADD PUSH1 0x0 KECCAK256 PUSH1 0x0 DUP3 ADD MLOAD DUP2 PUSH1 0x0 ADD SSTORE PUSH1 0x20 DUP3 ADD MLOAD DUP2 PUSH1 0x1 ADD SSTORE PUSH1 0x40 DUP3 ADD MLOAD DUP2 PUSH1 0x2 ADD PUSH1 0x0 PUSH2 0x100 EXP DUP2 SLOAD DUP2 PUSH1 0xFF MUL NOT AND SWAP1 DUP4 ISZERO ISZERO MUL OR SWAP1 SSTORE POP SWAP1 POP POP DUP1 SWAP2 POP POP SWAP9 SWAP8 POP POP POP POP POP POP POP POP JUMP JUMPDEST PUSH1 0x3C DUP2 JUMP JUMPDEST PUSH1 0x60 PUSH1 0x0 PUSH2 0x54B DUP10 DUP10 DUP10 DUP10 DUP10 DUP10 DUP10 PUSH2 0xA68 JUMP JUMPDEST SWAP1 POP PUSH1 0x2 PUSH1 0x4 DUP2 GT ISZERO PUSH2 0x561 JUMPI PUSH2 0x560 PUSH2 0xB82 JUMP JUMPDEST JUMPDEST PUSH2 0x56A DUP3 PUSH2 0x239 JUMP JUMPDEST PUSH1 0x4 DUP2 GT ISZERO PUSH2 0x57C JUMPI PUSH2 0x57B PUSH2 0xB82 JUMP JUMPDEST JUMPDEST EQ PUSH2 0x5BC JUMPI PUSH1 0x40 MLOAD PUSH32 0x8C379A000000000000000000000000000000000000000000000000000000000 DUP2 MSTORE PUSH1 0x4 ADD PUSH2 0x5B3 SWAP1 PUSH2 0x13DA JUMP JUMPDEST PUSH1 0x40 MLOAD DUP1 SWAP2 SUB SWAP1 REVERT JUMPDEST PUSH1 0x0 PUSH1 0x1 PUSH1 0x0 DUP4 DUP2 MSTORE PUSH1 0x20 ADD SWAP1 DUP2 MSTORE PUSH1 0x20 ADD PUSH1 0x0 KECCAK256 SWAP1 POP PUSH1 0x1 DUP2 PUSH1 0x2 ADD PUSH1 0x0 PUSH2 0x100 EXP DUP2 SLOAD DUP2 PUSH1 0xFF MUL NOT AND SWAP1 DUP4 ISZERO ISZERO MUL OR SWAP1 SSTORE POP PUSH1 0x60 PUSH1 0x0 DUP10 DUP10 SWAP1 POP GT ISZERO PUSH2 0x640 JUMPI DUP9 DUP9 PUSH1 0x40 MLOAD PUSH2 0x60E SWAP3 SWAP2 SWAP1 PUSH2 0x12A6 JUMP JUMPDEST PUSH1 0x40 MLOAD DUP1 SWAP2 SUB SWAP1 KECCAK256 DUP8 DUP8 PUSH1 0x40 MLOAD PUSH1 0x20 ADD PUSH2 0x62A SWAP4 SWAP3 SWAP2 SWAP1 PUSH2 0x1447 JUMP JUMPDEST PUSH1 0x40 MLOAD PUSH1 0x20 DUP2 DUP4 SUB SUB DUP2 MSTORE SWAP1 PUSH1 0x40 MSTORE SWAP1 POP PUSH2 0x688 JUMP JUMPDEST DUP7 DUP7 DUP1 DUP1 PUSH1 0x1F ADD PUSH1 0x20 DUP1 SWAP2 DIV MUL PUSH1 0x20 ADD PUSH1 0x40 MLOAD SWAP1 DUP2 ADD PUSH1 0x40 MSTORE DUP1 SWAP4 SWAP3 SWAP2 SWAP1 DUP2 DUP2 MSTORE PUSH1 0x20 ADD DUP4 DUP4 DUP1 DUP3 DUP5 CALLDATACOPY PUSH1 0x0 DUP2 DUP5 ADD MSTORE PUSH1 0x1F NOT PUSH1 0x1F DUP3 ADD AND SWAP1 POP DUP1 DUP4 ADD SWAP3 POP POP POP POP POP POP POP SWAP1 POP JUMPDEST PUSH1 0x0 DUP1 DUP13 PUSH20 0xFFFFFFFFFFFFFFFFFFFFFFFFFFFFFFFFFFFFFFFF AND DUP13 DUP5 PUSH1 0x40 MLOAD PUSH2 0x6B1 SWAP2 SWAP1 PUSH2 0x14A2 JUMP JUMPDEST PUSH1 0x0 PUSH1 0x40 MLOAD DUP1 DUP4 SUB DUP2 DUP6 DUP8 GAS CALL SWAP3 POP POP POP RETURNDATASIZE DUP1 PUSH1 0x0 DUP2 EQ PUSH2 0x6EE JUMPI PUSH1 0x40 MLOAD SWAP2 POP PUSH1 0x1F NOT PUSH1 0x3F RETURNDATASIZE ADD AND DUP3 ADD PUSH1 0x40 MSTORE RETURNDATASIZE DUP3 MSTORE RETURNDATASIZE PUSH1 0x0 PUSH1 0x20 DUP5 ADD RETURNDATACOPY PUSH2 0x6F3 JUMP JUMPDEST PUSH1 0x60 SWAP2 POP JUMPDEST POP SWAP2 POP SWAP2 POP DUP2 PUSH2 0x738 JUMPI PUSH1 0x40 MLOAD PUSH32 0x8C379A000000000000000000000000000000000000000000000000000000000 DUP2 MSTORE PUSH1 0x4 ADD PUSH2 0x72F SWAP1 PUSH2 0x1505 JUMP JUMPDEST PUSH1 0x40 MLOAD DUP1 SWAP2 SUB SWAP1 REVERT JUMPDEST DUP1 SWAP6 POP POP POP POP POP POP SWAP8 SWAP7 POP POP POP POP POP POP POP JUMP JUMPDEST PUSH1 0x1 PUSH1 0x4 DUP2 GT ISZERO PUSH2 0x75F JUMPI PUSH2 0x75E PUSH2 0xB82 JUMP JUMPDEST JUMPDEST PUSH2 0x768 DUP4 PUSH2 0x239 JUMP JUMPDEST PUSH1 0x4 DUP2 GT ISZERO PUSH2 0x77A JUMPI PUSH2 0x779 PUSH2 0xB82 JUMP JUMPDEST JUMPDEST EQ PUSH2 0x7BA JUMPI PUSH1 0x40 MLOAD PUSH32 0x8C379A000000000000000000000000000000000000000000000000000000000 DUP2 MSTORE PUSH1 0x4 ADD PUSH2 0x7B1 SWAP1 PUSH2 0x1571 JUMP JUMPDEST PUSH1 0x40 MLOAD DUP1 SWAP2 SUB SWAP1 REVERT JUMPDEST PUSH1 0x0 DUP1 PUSH1 0x0 SWAP1 SLOAD SWAP1 PUSH2 0x100 EXP SWAP1 DIV PUSH20 0xFFFFFFFFFFFFFFFFFFFFFFFFFFFFFFFFFFFFFFFF AND PUSH20 0xFFFFFFFFFFFFFFFFFFFFFFFFFFFFFFFFFFFFFFFF AND PUSH4 0x70A08231 CALLER PUSH1 0x40 MLOAD DUP3 PUSH4 0xFFFFFFFF AND PUSH1 0xE0 SHL DUP2 MSTORE PUSH1 0x4 ADD PUSH2 0x816 SWAP2 SWAP1 PUSH2 0x119E JUMP JUMPDEST PUSH1 0x20 PUSH1 0x40 MLOAD DUP1 DUP4 SUB DUP2 DUP7 GAS STATICCALL ISZERO DUP1 ISZERO PUSH2 0x833 JUMPI RETURNDATASIZE PUSH1 0x0 DUP1 RETURNDATACOPY RETURNDATASIZE PUSH1 0x0 REVERT JUMPDEST POP POP POP POP PUSH1 0x40 MLOAD RETURNDATASIZE PUSH1 0x1F NOT PUSH1 0x1F DUP3 ADD AND DUP3 ADD DUP1 PUSH1 0x40 MSTORE POP DUP2 ADD SWAP1 PUSH2 0x857 SWAP2 SWAP1 PUSH2 0x11CE JUMP JUMPDEST SWAP1 POP PUSH1 0x0 DUP2 GT PUSH2 0x89C JUMPI PUSH1 0x40 MLOAD PUSH32 0x8C379A000000000000000000000000000000000000000000000000000000000 DUP2 MSTORE PUSH1 0x4 ADD PUSH2 0x893 SWAP1 PUSH2 0x15DD JUMP JUMPDEST PUSH1 0x40 MLOAD DUP1 SWAP2 SUB SWAP1 REVERT JUMPDEST PUSH1 0x0 PUSH1 0x2 PUSH1 0x0 DUP6 DUP2 MSTORE PUSH1 0x20 ADD SWAP1 DUP2 MSTORE PUSH1 0x20 ADD PUSH1 0x0 KECCAK256 SWAP1 POP DUP1 PUSH1 0x3 ADD PUSH1 0x0 CALLER PUSH20 0xFFFFFFFFFFFFFFFFFFFFFFFFFFFFFFFFFFFFFFFF AND PUSH20 0xFFFFFFFFFFFFFFFFFFFFFFFFFFFFFFFFFFFFFFFF AND DUP2 MSTORE PUSH1 0x20 ADD SWAP1 DUP2 MSTORE PUSH1 0x20 ADD PUSH1 0x0 KECCAK256 PUSH1 0x0 SWAP1 SLOAD SWAP1 PUSH2 0x100 EXP SWAP1 DIV PUSH1 0xFF AND ISZERO PUSH2 0x942 JUMPI PUSH1 0x40 MLOAD PUSH32 0x8C379A000000000000000000000000000000000000000000000000000000000 DUP2 MSTORE PUSH1 0x4 ADD PUSH2 0x939 SWAP1 PUSH2 0x1649 JUMP JUMPDEST PUSH1 0x40 MLOAD DUP1 SWAP2 SUB SWAP1 REVERT JUMPDEST PUSH1 0x0 DUP4 PUSH1 0xFF AND SUB PUSH2 0x96D JUMPI DUP2 DUP2 PUSH1 0x0 ADD PUSH1 0x0 DUP3 DUP3 SLOAD PUSH2 0x961 SWAP2 SWAP1 PUSH2 0x135A JUMP JUMPDEST SWAP3 POP POP DUP2 SWAP1 SSTORE POP PUSH2 0x9B5 JUMP JUMPDEST PUSH1 0x1 DUP4 PUSH1 0xFF AND SUB PUSH2 0x998 JUMPI DUP2 DUP2 PUSH1 0x1 ADD PUSH1 0x0 DUP3 DUP3 SLOAD PUSH2 0x98C SWAP2 SWAP1 PUSH2 0x135A JUMP JUMPDEST SWAP3 POP POP DUP2 SWAP1 SSTORE POP PUSH2 0x9B4 JUMP JUMPDEST DUP2 DUP2 PUSH1 0x2 ADD PUSH1 0x0 DUP3 DUP3 SLOAD PUSH2 0x9AC SWAP2 SWAP1 PUSH2 0x135A JUMP JUMPDEST SWAP3 POP POP DUP2 SWAP1 SSTORE POP JUMPDEST JUMPDEST PUSH1 0x1 DUP2 PUSH1 0x3 ADD PUSH1 0x0 CALLER PUSH20 0xFFFFFFFFFFFFFFFFFFFFFFFFFFFFFFFFFFFFFFFF AND PUSH20 0xFFFFFFFFFFFFFFFFFFFFFFFFFFFFFFFFFFFFFFFF AND DUP2 MSTORE PUSH1 0x20 ADD SWAP1 DUP2 MSTORE PUSH1 0x20 ADD PUSH1 0x0 KECCAK256 PUSH1 0x0 PUSH2 0x100 EXP DUP2 SLOAD DUP2 PUSH1 0xFF MUL NOT AND SWAP1 DUP4 ISZERO ISZERO MUL OR SWAP1 SSTORE POP POP POP POP POP JUMP JUMPDEST PUSH1 0x2 PUSH1 0x20 MSTORE DUP1 PUSH1 0x0 MSTORE PUSH1 0x40 PUSH1 0x0 KECCAK256 PUSH1 0x0 SWAP2 POP SWAP1 POP DUP1 PUSH1 0x0 ADD SLOAD SWAP1 DUP1 PUSH1 0x1 ADD SLOAD SWAP1 DUP1 PUSH1 0x2 ADD SLOAD SWAP1 POP DUP4 JUMP JUMPDEST PUSH1 0xA DUP2 JUMP JUMPDEST PUSH1 0x0 DUP1 SLOAD SWAP1 PUSH2 0x100 EXP SWAP1 DIV PUSH20 0xFFFFFFFFFFFFFFFFFFFFFFFFFFFFFFFFFFFFFFFF AND DUP2 JUMP JUMPDEST PUSH1 0x0 DUP8 DUP8 DUP8 DUP8 DUP8 DUP8 DUP8 PUSH1 0x40 MLOAD PUSH1 0x20 ADD PUSH2 0xA87 SWAP8 SWAP7 SWAP6 SWAP5 SWAP4 SWAP3 SWAP2 SWAP1 PUSH2 0x16C3 JUMP JUMPDEST PUSH1 0x40 MLOAD PUSH1 0x20 DUP2 DUP4 SUB SUB DUP2 MSTORE SWAP1 PUSH1 0x40 MSTORE DUP1 MLOAD SWAP1 PUSH1 0x20 ADD KECCAK256 SWAP1 POP SWAP8 SWAP7 POP POP POP POP POP POP POP JUMP JUMPDEST PUSH1 0x0 DUP1 REVERT JUMPDEST PUSH1 0x0 DUP1 REVERT JUMPDEST PUSH1 0x0 DUP2 SWAP1 POP SWAP2 SWAP1 POP JUMP JUMPDEST PUSH2 0xAC7 DUP2 PUSH2 0xAB4 JUMP JUMPDEST DUP2 EQ PUSH2 0xAD2 JUMPI PUSH1 0x0 DUP1 REVERT JUMPDEST POP JUMP JUMPDEST PUSH1 0x0 DUP2 CALLDATALOAD SWAP1 POP PUSH2 0xAE4 DUP2 PUSH2 0xABE JUMP JUMPDEST SWAP3 SWAP2 POP POP JUMP JUMPDEST PUSH1 0x0 PUSH1 0x20 DUP3 DUP5 SUB SLT ISZERO PUSH2 0xB00 JUMPI PUSH2 0xAFF PUSH2 0xAAA JUMP JUMPDEST JUMPDEST PUSH1 0x0 PUSH2 0xB0E DUP5 DUP3 DUP6 ADD PUSH2 0xAD5 JUMP JUMPDEST SWAP2 POP POP SWAP3 SWAP2 POP POP JUMP JUMPDEST PUSH1 0x0 DUP2 SWAP1 POP SWAP2 SWAP1 POP JUMP JUMPDEST PUSH2 0xB2A DUP2 PUSH2 0xB17 JUMP JUMPDEST DUP3 MSTORE POP POP JUMP JUMPDEST PUSH1 0x0 DUP2 ISZERO ISZERO SWAP1 POP SWAP2 SWAP1 POP JUMP JUMPDEST PUSH2 0xB45 DUP2 PUSH2 0xB30 JUMP JUMPDEST DUP3 MSTORE POP POP JUMP JUMPDEST PUSH1 0x0 PUSH1 0x60 DUP3 ADD SWAP1 POP PUSH2 0xB60 PUSH1 0x0 DUP4 ADD DUP7 PUSH2 0xB21 JUMP JUMPDEST PUSH2 0xB6D PUSH1 0x20 DUP4 ADD DUP6 PUSH2 0xB21 JUMP JUMPDEST PUSH2 0xB7A PUSH1 0x40 DUP4 ADD DUP5 PUSH2 0xB3C JUMP JUMPDEST SWAP5 SWAP4 POP POP POP POP JUMP JUMPDEST PUSH32 0x4E487B7100000000000000000000000000000000000000000000000000000000 PUSH1 0x0 MSTORE PUSH1 0x21 PUSH1 0x4 MSTORE PUSH1 0x24 PUSH1 0x0 REVERT JUMPDEST PUSH1 0x5 DUP2 LT PUSH2 0xBC2 JUMPI PUSH2 0xBC1 PUSH2 0xB82 JUMP JUMPDEST JUMPDEST POP JUMP JUMPDEST PUSH1 0x0 DUP2 SWAP1 POP PUSH2 0xBD3 DUP3 PUSH2 0xBB1 JUMP JUMPDEST SWAP2 SWAP1 POP JUMP JUMPDEST PUSH1 0x0 PUSH2 0xBE3 DUP3 PUSH2 0xBC5 JUMP JUMPDEST SWAP1 POP SWAP2 SWAP1 POP JUMP JUMPDEST PUSH2 0xBF3 DUP2 PUSH2 0xBD8 JUMP JUMPDEST DUP3 MSTORE POP POP JUMP JUMPDEST PUSH1 0x0 PUSH1 0x20 DUP3 ADD SWAP1 POP PUSH2 0xC0E PUSH1 0x0 DUP4 ADD DUP5 PUSH2 0xBEA JUMP JUMPDEST SWAP3 SWAP2 POP POP JUMP JUMPDEST PUSH1 0x0 PUSH20 0xFFFFFFFFFFFFFFFFFFFFFFFFFFFFFFFFFFFFFFFF DUP3 AND SWAP1 POP SWAP2 SWAP1 POP JUMP JUMPDEST PUSH1 0x0 PUSH2 0xC3F DUP3 PUSH2 0xC14 JUMP JUMPDEST SWAP1 POP SWAP2 SWAP1 POP JUMP JUMPDEST PUSH2 0xC4F DUP2 PUSH2 0xC34 JUMP JUMPDEST DUP2 EQ PUSH2 0xC5A JUMPI PUSH1 0x0 DUP1 REVERT JUMPDEST POP JUMP JUMPDEST PUSH1 0x0 DUP2 CALLDATALOAD SWAP1 POP PUSH2 0xC6C DUP2 PUSH2 0xC46 JUMP JUMPDEST SWAP3 SWAP2 POP POP JUMP JUMPDEST PUSH2 0xC7B DUP2 PUSH2 0xB17 JUMP JUMPDEST DUP2 EQ PUSH2 0xC86 JUMPI PUSH1 0x0 DUP1 REVERT JUMPDEST POP JUMP JUMPDEST PUSH1 0x0 DUP2 CALLDATALOAD SWAP1 POP PUSH2 0xC98 DUP2 PUSH2 0xC72 JUMP JUMPDEST SWAP3 SWAP2 POP POP JUMP JUMPDEST PUSH1 0x0 DUP1 REVERT JUMPDEST PUSH1 0x0 DUP1 REVERT JUMPDEST PUSH1 0x0 DUP1 REVERT JUMPDEST PUSH1 0x0 DUP1 DUP4 PUSH1 0x1F DUP5 ADD SLT PUSH2 0xCC3 JUMPI PUSH2 0xCC2 PUSH2 0xC9E JUMP JUMPDEST JUMPDEST DUP3 CALLDATALOAD SWAP1 POP PUSH8 0xFFFFFFFFFFFFFFFF DUP2 GT ISZERO PUSH2 0xCE0 JUMPI PUSH2 0xCDF PUSH2 0xCA3 JUMP JUMPDEST JUMPDEST PUSH1 0x20 DUP4 ADD SWAP2 POP DUP4 PUSH1 0x1 DUP3 MUL DUP4 ADD GT ISZERO PUSH2 0xCFC JUMPI PUSH2 0xCFB PUSH2 0xCA8 JUMP JUMPDEST JUMPDEST SWAP3 POP SWAP3 SWAP1 POP JUMP JUMPDEST PUSH1 0x0 DUP1 DUP4 PUSH1 0x1F DUP5 ADD SLT PUSH2 0xD19 JUMPI PUSH2 0xD18 PUSH2 0xC9E JUMP JUMPDEST JUMPDEST DUP3 CALLDATALOAD SWAP1 POP PUSH8 0xFFFFFFFFFFFFFFFF DUP2 GT ISZERO PUSH2 0xD36 JUMPI PUSH2 0xD35 PUSH2 0xCA3 JUMP JUMPDEST JUMPDEST PUSH1 0x20 DUP4 ADD SWAP2 POP DUP4 PUSH1 0x1 DUP3 MUL DUP4 ADD GT ISZERO PUSH2 0xD52 JUMPI PUSH2 0xD51 PUSH2 0xCA8 JUMP JUMPDEST JUMPDEST SWAP3 POP SWAP3 SWAP1 POP JUMP JUMPDEST PUSH1 0x0 DUP1 PUSH1 0x0 DUP1 PUSH1 0x0 DUP1 PUSH1 0x0 DUP1 PUSH1 0xA0 DUP10 DUP12 SUB SLT ISZERO PUSH2 0xD79 JUMPI PUSH2 0xD78 PUSH2 0xAAA JUMP JUMPDEST JUMPDEST PUSH1 0x0 PUSH2 0xD87 DUP12 DUP3 DUP13 ADD PUSH2 0xC5D JUMP JUMPDEST SWAP9 POP POP PUSH1 0x20 PUSH2 0xD98 DUP12 DUP3 DUP13 ADD PUSH2 0xC89 JUMP JUMPDEST SWAP8 POP POP PUSH1 0x40 DUP10 ADD CALLDATALOAD PUSH8 0xFFFFFFFFFFFFFFFF DUP2 GT ISZERO PUSH2 0xDB9 JUMPI PUSH2 0xDB8 PUSH2 0xAAF JUMP JUMPDEST JUMPDEST PUSH2 0xDC5 DUP12 DUP3 DUP13 ADD PUSH2 0xCAD JUMP JUMPDEST SWAP7 POP SWAP7 POP POP PUSH1 0x60 DUP10 ADD CALLDATALOAD PUSH8 0xFFFFFFFFFFFFFFFF DUP2 GT ISZERO PUSH2 0xDE8 JUMPI PUSH2 0xDE7 PUSH2 0xAAF JUMP JUMPDEST JUMPDEST PUSH2 0xDF4 DUP12 DUP3 DUP13 ADD PUSH2 0xD03 JUMP JUMPDEST SWAP5 POP SWAP5 POP POP PUSH1 0x80 DUP10 ADD CALLDATALOAD PUSH8 0xFFFFFFFFFFFFFFFF DUP2 GT ISZERO PUSH2 0xE17 JUMPI PUSH2 0xE16 PUSH2 0xAAF JUMP JUMPDEST JUMPDEST PUSH2 0xE23 DUP12 DUP3 DUP13 ADD PUSH2 0xCAD JUMP JUMPDEST SWAP3 POP SWAP3 POP POP SWAP3 SWAP6 SWAP9 POP SWAP3 SWAP6 SWAP9 SWAP1 SWAP4 SWAP7 POP JUMP JUMPDEST PUSH2 0xE3E DUP2 PUSH2 0xAB4 JUMP JUMPDEST DUP3 MSTORE POP POP JUMP JUMPDEST PUSH1 0x0 PUSH1 0x20 DUP3 ADD SWAP1 POP PUSH2 0xE59 PUSH1 0x0 DUP4 ADD DUP5 PUSH2 0xE35 JUMP JUMPDEST SWAP3 SWAP2 POP POP JUMP JUMPDEST PUSH1 0x0 PUSH1 0x20 DUP3 ADD SWAP1 POP PUSH2 0xE74 PUSH1 0x0 DUP4 ADD DUP5 PUSH2 0xB21 JUMP JUMPDEST SWAP3 SWAP2 POP POP JUMP JUMPDEST PUSH1 0x0 DUP1 PUSH1 0x0 DUP1 PUSH1 0x0 DUP1 PUSH1 0x0 PUSH1 0xA0 DUP9 DUP11 SUB SLT ISZERO PUSH2 0xE99 JUMPI PUSH2 0xE98 PUSH2 0xAAA JUMP JUMPDEST JUMPDEST PUSH1 0x0 PUSH2 0xEA7 DUP11 DUP3 DUP12 ADD PUSH2 0xC5D JUMP JUMPDEST SWAP8 POP POP PUSH1 0x20 PUSH2 0xEB8 DUP11 DUP3 DUP12 ADD PUSH2 0xC89 JUMP JUMPDEST SWAP7 POP POP PUSH1 0x40 DUP9 ADD CALLDATALOAD PUSH8 0xFFFFFFFFFFFFFFFF DUP2 GT ISZERO PUSH2 0xED9 JUMPI PUSH2 0xED8 PUSH2 0xAAF JUMP JUMPDEST JUMPDEST PUSH2 0xEE5 DUP11 DUP3 DUP12 ADD PUSH2 0xCAD JUMP JUMPDEST SWAP6 POP SWAP6 POP POP PUSH1 0x60 DUP9 ADD CALLDATALOAD PUSH8 0xFFFFFFFFFFFFFFFF DUP2 GT ISZERO PUSH2 0xF08 JUMPI PUSH2 0xF07 PUSH2 0xAAF JUMP JUMPDEST JUMPDEST PUSH2 0xF14 DUP11 DUP3 DUP12 ADD PUSH2 0xD03 JUMP JUMPDEST SWAP4 POP SWAP4 POP POP PUSH1 0x80 PUSH2 0xF27 DUP11 DUP3 DUP12 ADD PUSH2 0xAD5 JUMP JUMPDEST SWAP2 POP POP SWAP3 SWAP6 SWAP9 SWAP2 SWAP5 SWAP8 POP SWAP3 SWAP6 POP JUMP JUMPDEST PUSH1 0x0 DUP2 MLOAD SWAP1 POP SWAP2 SWAP1 POP JUMP JUMPDEST PUSH1 0x0 DUP3 DUP3 MSTORE PUSH1 0x20 DUP3 ADD SWAP1 POP SWAP3 SWAP2 POP POP JUMP JUMPDEST PUSH1 0x0 JUMPDEST DUP4 DUP2 LT ISZERO PUSH2 0xF70 JUMPI DUP1 DUP3 ADD MLOAD DUP2 DUP5 ADD MSTORE PUSH1 0x20 DUP2 ADD SWAP1 POP PUSH2 0xF55 JUMP JUMPDEST PUSH1 0x0 DUP5 DUP5 ADD MSTORE POP POP POP POP JUMP JUMPDEST PUSH1 0x0 PUSH1 0x1F NOT PUSH1 0x1F DUP4 ADD AND SWAP1 POP SWAP2 SWAP1 POP JUMP JUMPDEST PUSH1 0x0 PUSH2 0xF98 DUP3 PUSH2 0xF36 JUMP JUMPDEST PUSH2 0xFA2 DUP2 DUP6 PUSH2 0xF41 JUMP JUMPDEST SWAP4 POP PUSH2 0xFB2 DUP2 DUP6 PUSH1 0x20 DUP7 ADD PUSH2 0xF52 JUMP JUMPDEST PUSH2 0xFBB DUP2 PUSH2 0xF7C JUMP JUMPDEST DUP5 ADD SWAP2 POP POP SWAP3 SWAP2 POP POP JUMP JUMPDEST PUSH1 0x0 PUSH1 0x20 DUP3 ADD SWAP1 POP DUP2 DUP2 SUB PUSH1 0x0 DUP4 ADD MSTORE PUSH2 0xFE0 DUP2 DUP5 PUSH2 0xF8D JUMP JUMPDEST SWAP1 POP SWAP3 SWAP2 POP POP JUMP JUMPDEST PUSH1 0x0 PUSH1 0xFF DUP3 AND SWAP1 POP SWAP2 SWAP1 POP JUMP JUMPDEST PUSH2 0xFFE DUP2 PUSH2 0xFE8 JUMP JUMPDEST DUP2 EQ PUSH2 0x1009 JUMPI PUSH1 0x0 DUP1 REVERT JUMPDEST POP JUMP JUMPDEST PUSH1 0x0 DUP2 CALLDATALOAD SWAP1 POP PUSH2 0x101B DUP2 PUSH2 0xFF5 JUMP JUMPDEST SWAP3 SWAP2 POP POP JUMP JUMPDEST PUSH1 0x0 DUP1 PUSH1 0x40 DUP4 DUP6 SUB SLT ISZERO PUSH2 0x1038 JUMPI PUSH2 0x1037 PUSH2 0xAAA JUMP JUMPDEST JUMPDEST PUSH1 0x0 PUSH2 0x1046 DUP6 DUP3 DUP7 ADD PUSH2 0xAD5 JUMP JUMPDEST SWAP3 POP POP PUSH1 0x20 PUSH2 0x1057 DUP6 DUP3 DUP7 ADD PUSH2 0x100C JUMP JUMPDEST SWAP2 POP POP SWAP3 POP SWAP3 SWAP1 POP JUMP JUMPDEST PUSH1 0x0 PUSH1 0x60 DUP3 ADD SWAP1 POP PUSH2 0x1076 PUSH1 0x0 DUP4 ADD DUP7 PUSH2 0xB21 JUMP JUMPDEST PUSH2 0x1083 PUSH1 0x20 DUP4 ADD DUP6 PUSH2 0xB21 JUMP JUMPDEST PUSH2 0x1090 PUSH1 0x40 DUP4 ADD DUP5 PUSH2 0xB21 JUMP JUMPDEST SWAP5 SWAP4 POP POP POP POP JUMP JUMPDEST PUSH1 0x0 DUP2 SWAP1 POP SWAP2 SWAP1 POP JUMP JUMPDEST PUSH1 0x0 PUSH2 0x10BD PUSH2 0x10B8 PUSH2 0x10B3 DUP5 PUSH2 0xC14 JUMP JUMPDEST PUSH2 0x1098 JUMP JUMPDEST PUSH2 0xC14 JUMP JUMPDEST SWAP1 POP SWAP2 SWAP1 POP JUMP JUMPDEST PUSH1 0x0 PUSH2 0x10CF DUP3 PUSH2 0x10A2 JUMP JUMPDEST SWAP1 POP SWAP2 SWAP1 POP JUMP JUMPDEST PUSH1 0x0 PUSH2 0x10E1 DUP3 PUSH2 0x10C4 JUMP JUMPDEST SWAP1 POP SWAP2 SWAP1 POP JUMP JUMPDEST PUSH2 0x10F1 DUP2 PUSH2 0x10D6 JUMP JUMPDEST DUP3 MSTORE POP POP JUMP JUMPDEST PUSH1 0x0 PUSH1 0x20 DUP3 ADD SWAP1 POP PUSH2 0x110C PUSH1 0x0 DUP4 ADD DUP5 PUSH2 0x10E8 JUMP JUMPDEST SWAP3 SWAP2 POP POP JUMP JUMPDEST PUSH1 0x0 DUP3 DUP3 MSTORE PUSH1 0x20 DUP3 ADD SWAP1 POP SWAP3 SWAP2 POP POP JUMP JUMPDEST PUSH32 0x70726F706F73616C20646F6573656E2774206578697374000000000000000000 PUSH1 0x0 DUP3 ADD MSTORE POP JUMP JUMPDEST PUSH1 0x0 PUSH2 0x1159 PUSH1 0x17 DUP4 PUSH2 0x1112 JUMP JUMPDEST SWAP2 POP PUSH2 0x1164 DUP3 PUSH2 0x1123 JUMP JUMPDEST PUSH1 0x20 DUP3 ADD SWAP1 POP SWAP2 SWAP1 POP JUMP JUMPDEST PUSH1 0x0 PUSH1 0x20 DUP3 ADD SWAP1 POP DUP2 DUP2 SUB PUSH1 0x0 DUP4 ADD MSTORE PUSH2 0x1188 DUP2 PUSH2 0x114C JUMP JUMPDEST SWAP1 POP SWAP2 SWAP1 POP JUMP JUMPDEST PUSH2 0x1198 DUP2 PUSH2 0xC34 JUMP JUMPDEST DUP3 MSTORE POP POP JUMP JUMPDEST PUSH1 0x0 PUSH1 0x20 DUP3 ADD SWAP1 POP PUSH2 0x11B3 PUSH1 0x0 DUP4 ADD DUP5 PUSH2 0x118F JUMP JUMPDEST SWAP3 SWAP2 POP POP JUMP JUMPDEST PUSH1 0x0 DUP2 MLOAD SWAP1 POP PUSH2 0x11C8 DUP2 PUSH2 0xC72 JUMP JUMPDEST SWAP3 SWAP2 POP POP JUMP JUMPDEST PUSH1 0x0 PUSH1 0x20 DUP3 DUP5 SUB SLT ISZERO PUSH2 0x11E4 JUMPI PUSH2 0x11E3 PUSH2 0xAAA JUMP JUMPDEST JUMPDEST PUSH1 0x0 PUSH2 0x11F2 DUP5 DUP3 DUP6 ADD PUSH2 0x11B9 JUMP JUMPDEST SWAP2 POP POP SWAP3 SWAP2 POP POP JUMP JUMPDEST PUSH32 0x6E6F7420656E6F75676820746F6B656E00000000000000000000000000000000 PUSH1 0x0 DUP3 ADD MSTORE POP JUMP JUMPDEST PUSH1 0x0 PUSH2 0x1231 PUSH1 0x10 DUP4 PUSH2 0x1112 JUMP JUMPDEST SWAP2 POP PUSH2 0x123C DUP3 PUSH2 0x11FB JUMP JUMPDEST PUSH1 0x20 DUP3 ADD SWAP1 POP SWAP2 SWAP1 POP JUMP JUMPDEST PUSH1 0x0 PUSH1 0x20 DUP3 ADD SWAP1 POP DUP2 DUP2 SUB PUSH1 0x0 DUP4 ADD MSTORE PUSH2 0x1260 DUP2 PUSH2 0x1224 JUMP JUMPDEST SWAP1 POP SWAP2 SWAP1 POP JUMP JUMPDEST PUSH1 0x0 DUP2 SWAP1 POP SWAP3 SWAP2 POP POP JUMP JUMPDEST DUP3 DUP2 DUP4 CALLDATACOPY PUSH1 0x0 DUP4 DUP4 ADD MSTORE POP POP POP JUMP JUMPDEST PUSH1 0x0 PUSH2 0x128D DUP4 DUP6 PUSH2 0x1267 JUMP JUMPDEST SWAP4 POP PUSH2 0x129A DUP4 DUP6 DUP5 PUSH2 0x1272 JUMP JUMPDEST DUP3 DUP5 ADD SWAP1 POP SWAP4 SWAP3 POP POP POP JUMP JUMPDEST PUSH1 0x0 PUSH2 0x12B3 DUP3 DUP5 DUP7 PUSH2 0x1281 JUMP JUMPDEST SWAP2 POP DUP2 SWAP1 POP SWAP4 SWAP3 POP POP POP JUMP JUMPDEST PUSH32 0x70726F706F73616C20616C726561647920657869737473000000000000000000 PUSH1 0x0 DUP3 ADD MSTORE POP JUMP JUMPDEST PUSH1 0x0 PUSH2 0x12F5 PUSH1 0x17 DUP4 PUSH2 0x1112 JUMP JUMPDEST SWAP2 POP PUSH2 0x1300 DUP3 PUSH2 0x12BF JUMP JUMPDEST PUSH1 0x20 DUP3 ADD SWAP1 POP SWAP2 SWAP1 POP JUMP JUMPDEST PUSH1 0x0 PUSH1 0x20 DUP3 ADD SWAP1 POP DUP2 DUP2 SUB PUSH1 0x0 DUP4 ADD MSTORE PUSH2 0x1324 DUP2 PUSH2 0x12E8 JUMP JUMPDEST SWAP1 POP SWAP2 SWAP1 POP JUMP JUMPDEST PUSH32 0x4E487B7100000000000000000000000000000000000000000000000000000000 PUSH1 0x0 MSTORE PUSH1 0x11 PUSH1 0x4 MSTORE PUSH1 0x24 PUSH1 0x0 REVERT JUMPDEST PUSH1 0x0 PUSH2 0x1365 DUP3 PUSH2 0xB17 JUMP JUMPDEST SWAP2 POP PUSH2 0x1370 DUP4 PUSH2 0xB17 JUMP JUMPDEST SWAP3 POP DUP3 DUP3 ADD SWAP1 POP DUP1 DUP3 GT ISZERO PUSH2 0x1388 JUMPI PUSH2 0x1387 PUSH2 0x132B JUMP JUMPDEST JUMPDEST SWAP3 SWAP2 POP POP JUMP JUMPDEST PUSH32 0x696E76616C696420737461746500000000000000000000000000000000000000 PUSH1 0x0 DUP3 ADD MSTORE POP JUMP JUMPDEST PUSH1 0x0 PUSH2 0x13C4 PUSH1 0xD DUP4 PUSH2 0x1112 JUMP JUMPDEST SWAP2 POP PUSH2 0x13CF DUP3 PUSH2 0x138E JUMP JUMPDEST PUSH1 0x20 DUP3 ADD SWAP1 POP SWAP2 SWAP1 POP JUMP JUMPDEST PUSH1 0x0 PUSH1 0x20 DUP3 ADD SWAP1 POP DUP2 DUP2 SUB PUSH1 0x0 DUP4 ADD MSTORE PUSH2 0x13F3 DUP2 PUSH2 0x13B7 JUMP JUMPDEST SWAP1 POP SWAP2 SWAP1 POP JUMP JUMPDEST PUSH1 0x0 PUSH32 0xFFFFFFFF00000000000000000000000000000000000000000000000000000000 DUP3 AND SWAP1 POP SWAP2 SWAP1 POP JUMP JUMPDEST PUSH1 0x0 DUP2 SWAP1 POP SWAP2 SWAP1 POP JUMP JUMPDEST PUSH2 0x1441 PUSH2 0x143C DUP3 PUSH2 0x13FA JUMP JUMPDEST PUSH2 0x1426 JUMP JUMPDEST DUP3 MSTORE POP POP JUMP JUMPDEST PUSH1 0x0 PUSH2 0x1453 DUP3 DUP7 PUSH2 0x1430 JUMP JUMPDEST PUSH1 0x4 DUP3 ADD SWAP2 POP PUSH2 0x1464 DUP3 DUP5 DUP7 PUSH2 0x1281 JUMP JUMPDEST SWAP2 POP DUP2 SWAP1 POP SWAP5 SWAP4 POP POP POP POP JUMP JUMPDEST PUSH1 0x0 PUSH2 0x147C DUP3 PUSH2 0xF36 JUMP JUMPDEST PUSH2 0x1486 DUP2 DUP6 PUSH2 0x1267 JUMP JUMPDEST SWAP4 POP PUSH2 0x1496 DUP2 DUP6 PUSH1 0x20 DUP7 ADD PUSH2 0xF52 JUMP JUMPDEST DUP1 DUP5 ADD SWAP2 POP POP SWAP3 SWAP2 POP POP JUMP JUMPDEST PUSH1 0x0 PUSH2 0x14AE DUP3 DUP5 PUSH2 0x1471 JUMP JUMPDEST SWAP2 POP DUP2 SWAP1 POP SWAP3 SWAP2 POP POP JUMP JUMPDEST PUSH32 0x7478206661696C64000000000000000000000000000000000000000000000000 PUSH1 0x0 DUP3 ADD MSTORE POP JUMP JUMPDEST PUSH1 0x0 PUSH2 0x14EF PUSH1 0x8 DUP4 PUSH2 0x1112 JUMP JUMPDEST SWAP2 POP PUSH2 0x14FA DUP3 PUSH2 0x14B9 JUMP JUMPDEST PUSH1 0x20 DUP3 ADD SWAP1 POP SWAP2 SWAP1 POP JUMP JUMPDEST PUSH1 0x0 PUSH1 0x20 DUP3 ADD SWAP1 POP DUP2 DUP2 SUB PUSH1 0x0 DUP4 ADD MSTORE PUSH2 0x151E DUP2 PUSH2 0x14E2 JUMP JUMPDEST SWAP1 POP SWAP2 SWAP1 POP JUMP JUMPDEST PUSH32 0x6E6F742061637469766500000000000000000000000000000000000000000000 PUSH1 0x0 DUP3 ADD MSTORE POP JUMP JUMPDEST PUSH1 0x0 PUSH2 0x155B PUSH1 0xA DUP4 PUSH2 0x1112 JUMP JUMPDEST SWAP2 POP PUSH2 0x1566 DUP3 PUSH2 0x1525 JUMP JUMPDEST PUSH1 0x20 DUP3 ADD SWAP1 POP SWAP2 SWAP1 POP JUMP JUMPDEST PUSH1 0x0 PUSH1 0x20 DUP3 ADD SWAP1 POP DUP2 DUP2 SUB PUSH1 0x0 DUP4 ADD MSTORE PUSH2 0x158A DUP2 PUSH2 0x154E JUMP JUMPDEST SWAP1 POP SWAP2 SWAP1 POP JUMP JUMPDEST PUSH32 0x6E6F7420656E6F75676820746F6B656E73000000000000000000000000000000 PUSH1 0x0 DUP3 ADD MSTORE POP JUMP JUMPDEST PUSH1 0x0 PUSH2 0x15C7 PUSH1 0x11 DUP4 PUSH2 0x1112 JUMP JUMPDEST SWAP2 POP PUSH2 0x15D2 DUP3 PUSH2 0x1591 JUMP JUMPDEST PUSH1 0x20 DUP3 ADD SWAP1 POP SWAP2 SWAP1 POP JUMP JUMPDEST PUSH1 0x0 PUSH1 0x20 DUP3 ADD SWAP1 POP DUP2 DUP2 SUB PUSH1 0x0 DUP4 ADD MSTORE PUSH2 0x15F6 DUP2 PUSH2 0x15BA JUMP JUMPDEST SWAP1 POP SWAP2 SWAP1 POP JUMP JUMPDEST PUSH32 0x616C726561647920766F74656400000000000000000000000000000000000000 PUSH1 0x0 DUP3 ADD MSTORE POP JUMP JUMPDEST PUSH1 0x0 PUSH2 0x1633 PUSH1 0xD DUP4 PUSH2 0x1112 JUMP JUMPDEST SWAP2 POP PUSH2 0x163E DUP3 PUSH2 0x15FD JUMP JUMPDEST PUSH1 0x20 DUP3 ADD SWAP1 POP SWAP2 SWAP1 POP JUMP JUMPDEST PUSH1 0x0 PUSH1 0x20 DUP3 ADD SWAP1 POP DUP2 DUP2 SUB PUSH1 0x0 DUP4 ADD MSTORE PUSH2 0x1662 DUP2 PUSH2 0x1626 JUMP JUMPDEST SWAP1 POP SWAP2 SWAP1 POP JUMP JUMPDEST PUSH1 0x0 PUSH2 0x1675 DUP4 DUP6 PUSH2 0x1112 JUMP JUMPDEST SWAP4 POP PUSH2 0x1682 DUP4 DUP6 DUP5 PUSH2 0x1272 JUMP JUMPDEST PUSH2 0x168B DUP4 PUSH2 0xF7C JUMP JUMPDEST DUP5 ADD SWAP1 POP SWAP4 SWAP3 POP POP POP JUMP JUMPDEST PUSH1 0x0 PUSH2 0x16A2 DUP4 DUP6 PUSH2 0xF41 JUMP JUMPDEST SWAP4 POP PUSH2 0x16AF DUP4 DUP6 DUP5 PUSH2 0x1272 JUMP JUMPDEST PUSH2 0x16B8 DUP4 PUSH2 0xF7C JUMP JUMPDEST DUP5 ADD SWAP1 POP SWAP4 SWAP3 POP POP POP JUMP JUMPDEST PUSH1 0x0 PUSH1 0xA0 DUP3 ADD SWAP1 POP PUSH2 0x16D8 PUSH1 0x0 DUP4 ADD DUP11 PUSH2 0x118F JUMP JUMPDEST PUSH2 0x16E5 PUSH1 0x20 DUP4 ADD DUP10 PUSH2 0xB21 JUMP JUMPDEST DUP2 DUP2 SUB PUSH1 0x40 DUP4 ADD MSTORE PUSH2 0x16F8 DUP2 DUP8 DUP10 PUSH2 0x1669 JUMP JUMPDEST SWAP1 POP DUP2 DUP2 SUB PUSH1 0x60 DUP4 ADD MSTORE PUSH2 0x170D DUP2 DUP6 DUP8 PUSH2 0x1696 JUMP JUMPDEST SWAP1 POP PUSH2 0x171C PUSH1 0x80 DUP4 ADD DUP5 PUSH2 0xE35 JUMP JUMPDEST SWAP9 SWAP8 POP POP POP POP POP POP POP POP JUMP INVALID LOG2 PUSH5 0x6970667358 0x22 SLT KECCAK256 MOD DUP4 0xD2 CALLER SWAP15 SUB 0xEE 0xC0 SGT 0xEB 0xCC PUSH24 0x4A4B847C765E4662F7519C1B03DA7C109D3B653D64736F6C PUSH4 0x43000812 STOP CALLER "
				},
				"gasEstimates": {
					"creation": {
						"codeDepositCost": "1196400",
						"executionCost": "infinite",
						"totalCost": "infinite"
					},
					"external": {
						"VOTING_DELAY()": "395",
						"VOTING_DURATION()": "396",
						"execute(address,uint256,string,bytes,bytes32)": "infinite",
						"proposalVotes(bytes32)": "infinite",
						"proposals(bytes32)": "infinite",
						"propose(address,uint256,string,bytes,string)": "infinite",
						"state(bytes32)": "15843",
						"token()": "infinite",
						"vote(bytes32,uint8)": "infinite"
					},
					"internal": {
						"generateProposalId(address,uint256,string calldata,bytes calldata,bytes32)": "infinite"
					}
				},
				"methodIdentifiers": {
					"VOTING_DELAY()": "d6159fe5",
					"VOTING_DURATION()": "a438d208",
					"execute(address,uint256,string,bytes,bytes32)": "bb0f4b15",
					"proposalVotes(bytes32)": "d14b85b9",
					"proposals(bytes32)": "32ed5b12",
					"propose(address,uint256,string,bytes,string)": "8524c65d",
					"state(bytes32)": "61d585da",
					"token()": "fc0c546a",
					"vote(bytes32,uint8)": "c9a28cb9"
				}
			},
			"storageLayout": {
				"storage": [
					{
						"astId": 5,
						"contract": "contracts/Gov.sol:DAO",
						"label": "token",
						"offset": 0,
						"slot": "0",
						"type": "t_contract(IERC20)500"
					},
					{
						"astId": 28,
						"contract": "contracts/Gov.sol:DAO",
						"label": "proposals",
						"offset": 0,
						"slot": "1",
						"type": "t_mapping(t_bytes32,t_struct(Proposal)23_storage)"
					},
					{
						"astId": 33,
						"contract": "contracts/Gov.sol:DAO",
						"label": "proposalVotes",
						"offset": 0,
						"slot": "2",
						"type": "t_mapping(t_bytes32,t_struct(ProposalVote)16_storage)"
					}
				],
				"types": {
					"t_address": {
						"encoding": "inplace",
						"label": "address",
						"numberOfBytes": "20"
					},
					"t_bool": {
						"encoding": "inplace",
						"label": "bool",
						"numberOfBytes": "1"
					},
					"t_bytes32": {
						"encoding": "inplace",
						"label": "bytes32",
						"numberOfBytes": "32"
					},
					"t_contract(IERC20)500": {
						"encoding": "inplace",
						"label": "contract IERC20",
						"numberOfBytes": "20"
					},
					"t_mapping(t_address,t_bool)": {
						"encoding": "mapping",
						"key": "t_address",
						"label": "mapping(address => bool)",
						"numberOfBytes": "32",
						"value": "t_bool"
					},
					"t_mapping(t_bytes32,t_struct(Proposal)23_storage)": {
						"encoding": "mapping",
						"key": "t_bytes32",
						"label": "mapping(bytes32 => struct DAO.Proposal)",
						"numberOfBytes": "32",
						"value": "t_struct(Proposal)23_storage"
					},
					"t_mapping(t_bytes32,t_struct(ProposalVote)16_storage)": {
						"encoding": "mapping",
						"key": "t_bytes32",
						"label": "mapping(bytes32 => struct DAO.ProposalVote)",
						"numberOfBytes": "32",
						"value": "t_struct(ProposalVote)16_storage"
					},
					"t_struct(Proposal)23_storage": {
						"encoding": "inplace",
						"label": "struct DAO.Proposal",
						"members": [
							{
								"astId": 18,
								"contract": "contracts/Gov.sol:DAO",
								"label": "votingStarts",
								"offset": 0,
								"slot": "0",
								"type": "t_uint256"
							},
							{
								"astId": 20,
								"contract": "contracts/Gov.sol:DAO",
								"label": "votingEnds",
								"offset": 0,
								"slot": "1",
								"type": "t_uint256"
							},
							{
								"astId": 22,
								"contract": "contracts/Gov.sol:DAO",
								"label": "executed",
								"offset": 0,
								"slot": "2",
								"type": "t_bool"
							}
						],
						"numberOfBytes": "96"
					},
					"t_struct(ProposalVote)16_storage": {
						"encoding": "inplace",
						"label": "struct DAO.ProposalVote",
						"members": [
							{
								"astId": 7,
								"contract": "contracts/Gov.sol:DAO",
								"label": "aggainstVotes",
								"offset": 0,
								"slot": "0",
								"type": "t_uint256"
							},
							{
								"astId": 9,
								"contract": "contracts/Gov.sol:DAO",
								"label": "forVotes",
								"offset": 0,
								"slot": "1",
								"type": "t_uint256"
							},
							{
								"astId": 11,
								"contract": "contracts/Gov.sol:DAO",
								"label": "abstainVotes",
								"offset": 0,
								"slot": "2",
								"type": "t_uint256"
							},
							{
								"astId": 15,
								"contract": "contracts/Gov.sol:DAO",
								"label": "hasVoted",
								"offset": 0,
								"slot": "3",
								"type": "t_mapping(t_address,t_bool)"
							}
						],
						"numberOfBytes": "128"
					},
					"t_uint256": {
						"encoding": "inplace",
						"label": "uint256",
						"numberOfBytes": "32"
					}
				}
			},
			"userdoc": {
				"kind": "user",
				"methods": {},
				"version": 1
			}
		}
	}
}